:1000000026C1000054C1000052C1000050C10000D0
:100010004EC100004CC100004AC1000048C10000B0
:1000200046C1000044C1000042C1000040C10000C0
:100030003EC100003CC100003AC1000038C10000D0
:1000400036C1000034C1000032C1000030C10000E0
:100050002EC100002CC100002AC10000DAC400003B
:1000600026C10000A0C4000075C4000020C100002B
:100070001EC100001CC100001AC1000018C1000010
:1000800016C1000014C1000012C1000010C1000020
:100090000EC100000CC100000AC1000008C1000030
:1000A00006C1000004C1000002C1000000C1000040
:1000B000FEC00000FCC00000FAC00000F8C0000054
:1000C000F6C00000F4C00000F2C00000F0C0000064
:1000D000EEC00000ECC00000EAC00000E8C0000074
:1000E000E6C00000D002D302C202C602CC020A035C
:1000F000D702DB02E102E502E902EF02F302F702B6
:100100000A03FD0201030503020807080C0816088C
:10011000200899082A0832083A0844084E08580866
:100120006708710899087B0885088F08000021007E
:10013000240027002A002D003000330001010000B8
:10014000040107010A0100002200250028002B00FD
:100150002E003100340002010000050108010B01EE
:10016000000020002300260029002C002F00320070
:100170000001000003010601090105050505070549
:1001800008080808020202020A0A08080404040413
:10019000010101010101010103030303030303033F
:1001A000040707070C0C0C0C0C0C0C0C02020202CE
:1001B00006060606060606060B0B0B0B0B0B0B0BB7
:1001C0000102102020080810204010204080020169
:1001D000020108040201010204081020408080404E
:1001E000201008040201800402018040201008044D
:1001F00002010804020101020408102040800102EB
:1002000004081020408000000A0B02090C0D0E08A3
:1002100007030401000000000000000000000000CF
:1002200000000000000000000000000000000000CE
:10023000000012111000000000000000000000008B
:100240000000000000000000000000005305112421
:100250001FBECFEFD1E2DEBFCDBF00E00CBF23E079
:10026000A4E4B2E001C01D92A234B207E1F712E0AB
:10027000A0E0B2E0E2E6F6E100E00BBF02C00790CA
:100280000D92A434B107D9F711E0C7E2D1E000E044
:1002900006C021970109802FFE010E94230BC63260
:1002A000D10780E00807A9F754D40C942F0BA8CEEF
:1002B000EAE5F2E0A089B18982E08C93A485B58556
:1002C0001C92A685B7858FEC8C93108EA489B58976
:1002D00086E08C93A289B3898C9180618C93A289EA
:1002E000B3898C9188608C93A289B3898C91806842
:1002F0008C930288F389E02D80818F7D808308951F
:10030000CF92DF92EF92FF920F931F93CF93DF93E1
:100310006C017A018B01C0E0D0E0CE15DF0589F0D9
:10032000D8016D918D01D601ED91FC910190F08184
:10033000E02DC6011995892B11F47E0102C021968A
:10034000ECCFC701DF91CF911F910F91FF90EF90FC
:10035000DF90CF900895089580E090E00895FC012B
:10036000538D448D252F30E0842F90E0821B930B1A
:10037000541710F0CF96089501970895FC01918DC0
:10038000828D981761F0828DDF01A80FB11D5D96F7
:100390008C91928D9F5F9F73928F90E008958FEF65
:1003A0009FEF0895FC01918D828D981731F0828D19
:1003B000E80FF11D858D90E008958FEF9FEF089570
:1003C000FC01918D228D892F90E0805C9F4F821BD4
:1003D00091098F73992708958AE592E0F1DF21E072
:1003E000892B09F420E0822F0895FC01848DDF0120
:1003F000A80FB11DA35ABF4F2C91848D90E0019698
:100400008F739927848FA689B7892C93A089B18986
:100410008C9180648C93938D848D981306C0028890
:10042000F389E02D80818F7D80830895EF92FF9284
:100430000F931F93CF93DF93EC0181E0888F9B8D07
:100440008C8D981305C0E889F989808185FD23C0CA
:10045000F62E0B8D10E00F5F1F4F0F731127E02E4C
:100460008C8DE8120BC00FB607FCFACFE889F9892A
:10047000808185FFF5CFCE01B8DFF2CF8B8DFE01F5
:10048000E80FF11DE35AFF4FF0820B8FEA89FB89D9
:100490008081806207C0EE89FF896083E889F989DD
:1004A00080818064808381E090E0DF91CF911F9113
:1004B0000F91FF90EF900895CF93DF93EC01888D1B
:1004C0008823C1F0EA89FB89808185FD05C0A88960
:1004D000B9898C9186FD0EC00FB607FCF5CF8081DF
:1004E00085FFF2CFA889B9898C9185FFEDCFCE0128
:1004F0007CDFE8CFDF91CF91089580E090E0892BF9
:1005000019F06ADF811125C080E090E0892B41F06D
:1005100080E090E0892B21F00E94000081111CC036
:1005200080E090E0892B41F080E090E0892B21F081
:100530000E940000811113C080E090E0892BA1F09F
:1005400080E090E0892B81F00E94000081110AC0B8
:1005500008950E940000D8CF0E940000E1CF0E94C1
:100560000000EACF0C940000089590E0FC01319760
:10057000E231F10508F04EC08827EE58FF4F8F4F4B
:100580000C94230B809180008F7703C080918000B2
:100590008F7D80938000089580918000877FF9CFC0
:1005A00084B58F7702C084B58F7D84BD0895809116
:1005B000B0008F7703C08091B0008F7D8093B00032
:1005C0000895809190008F7707C0809190008F7D73
:1005D00003C080919000877F809390000895809160
:1005E000A0008F7707C08091A0008F7D03C080910D
:1005F000A000877F8093A0000895809120018F77CD
:1006000007C0809120018F7D03C080912001877FEA
:100610008093200108951F93CF93DF93282F30E01C
:10062000F901EA5FFD4F8491F901E054FE4FD49146
:10063000F901E658FE4FC491CC23C1F0162F811169
:1006400094DFEC2FF0E0EE0FFF1FEA5BFE4FA59169
:10065000B4918FB7F894111105C09C91ED2FE095DE
:10066000E92302C0EC91ED2BEC938FBFDF91CF918A
:100670001F910895CF93DF9390E0FC01E054FE4F6B
:100680002491FC01E658FE4F8491882361F190E0AB
:10069000880F991FFC01E45DFE4FC591D491FC01C8
:1006A000EA5BFE4FA591B491611109C09FB7F89420
:1006B0008881209582238883EC912E230BC06230A1
:1006C00061F49FB7F8943881822F809583238883C3
:1006D000EC912E2B2C939FBF06C08FB7F894E88126
:1006E0002E2B28838FBFDF91CF9108953FB7F894C9
:1006F0008091490290914A02A0914B02B0914C0224
:1007000026B5A89B05C02F3F19F00196A11DB11D6C
:100710003FBFBA2FA92F982F8827820F911DA11DA7
:10072000B11DBC01CD0142E0660F771F881F991FE4
:100730004A95D1F708952FB7F894609145027091CA
:10074000460280914702909148022FBF08958F92F0
:100750009F92AF92BF92CF92DF92EF92FF926B0186
:100760007C01E9DF4B015C01C60ED71EE81EF91EB5
:10077000E2DF681579058A059B0528F0C616D706BD
:10078000E806F906A8F7FF90EF90DF90CF90BF90B2
:10079000AF909F908F900895DF92EF92FF920F930A
:1007A0001F93CF93DF93C7E0D0E0E12C01E010E08E
:1007B00060E080913F032FDF8FE99FE00197F1F721
:1007C00000C000002091400330E0F901EA5FFD4FD6
:1007D0008491F901E054FE4FD490F901E658FE4FA0
:1007E000F490FF2069F08111C0DEEF2DF0E0EE0FF4
:1007F000FF1FE05AFE4FA591B491EC91ED21B1F4A9
:1008000061E080913F0307DF8FE99FE00197F1F7F7
:1008100000C00000219708F0CBCF8E2DDF91CF9143
:100820001F910F91FF90EF90DF900895C8010C2E5B
:1008300001C0880F0A94EAF7E82AE2CFCF93DF934A
:1008400060E080914103E7DE8FE99FE00197F1F7D7
:1008500000C00000A1DFC82FD0E0DC2FCC279CDF38
:10086000C82B61E080914103D6DEC2FD0FC0BE01FE
:1008700083E0769567958A95E1F780E090E013D55F
:1008800020E030E040E85EE36FD504C060E070E057
:1008900080EC9FE7DF91CF910895DDD6611571055A
:1008A00079F0FB0101900020E9F73197AF01461B79
:1008B000570BDC01ED91FC910280F381E02D19943E
:1008C00080E090E008954F925F926F927F92EF9256
:1008D000FF920F931F93CF93DF93CDB7DEB7A1970E
:1008E0000FB6F894DEBF0FBECDBF7C01FA01CB017D
:1008F00019A2223008F42AE08E010F5D1F4F422E0C
:10090000512C612C712CBF01A3019201E1D5F90199
:10091000CA01015011096A3014F4605D01C0695CBC
:10092000D8016C93232B242B252B69F7B801C70121
:10093000B5DFA1960FB6F894DEBF0FBECDBFDF9135
:10094000CF911F910F91FF90EF907F906F905F90EC
:100950004F9008951F920F920FB60F9211240BB66D
:100960000F922F933F934F935F936F937F938F9348
:100970009F93AF93BF93EF93FF938AE592E035DDAA
:10098000FF91EF91BF91AF919F918F917F916F9167
:100990005F914F913F912F910F900BBE0F900FBE23
:1009A0000F901F9018951F920F920FB60F9211245F
:1009B0000BB60F922F938F939F93EF93FF93E0913A
:1009C0006A02F0916B028081E0917002F0917102F5
:1009D00082FD12C09081809173028F5F8F7320918E
:1009E0007402821751F0E0917302F0E0E65AFD4F75
:1009F000958F8093730201C08081FF91EF919F9149
:100A00008F912F910F900BBE0F900FBE0F901F90E4
:100A100018951F920F920FB60F9211242F933F93A8
:100A20008F939F93AF93BF9380914502909146021D
:100A3000A0914702B09148023091440223E0230F75
:100A40002D3720F40196A11DB11D05C026E8230F06
:100A50000296A11DB11D20934402809345029093FC
:100A60004602A0934702B0934802809149029091B8
:100A70004A02A0914B02B0914C020196A11DB11DFA
:100A80008093490290934A02A0934B02B0934C0288
:100A9000BF91AF919F918F913F912F910F900FBE7A
:100AA0000F901F901895CF93DF93EAE5F2E0138241
:100AB000128288EE93E0A0E0B0E084839583A68361
:100AC000B78384E092E09183808385EC90E0958702
:100AD000848784EC90E09787868780EC90E0918B08
:100AE000808B81EC90E0938B828B82EC90E0958BF5
:100AF000848B86EC90E0978B868B118E128E138EF2
:100B0000148EE7EFF2E016821782108611861286A5
:100B100013861486158616861786108A118A128AFD
:100B2000138A148A158ACFE3D3E082E0888383E0B6
:100B30008A8384E0898361E083E09CDD61E08881D1
:100B400099DD60E0898196DD61E08A81DF91CF9156
:100B500062CD789484B5826084BD84B5816084BDA3
:100B600085B5826085BD85B5816085BD80916E004B
:100B7000816080936E00109281008091810082607C
:100B800080938100809181008160809381008091B9
:100B900080008160809380008091B10084608093A8
:100BA000B1008091B00081608093B000809191008D
:100BB0008260809391008091910081608093910088
:100BC000809190008160809390008091A10082606C
:100BD0008093A1008091A10081608093A100809109
:100BE000A00081608093A0008091210182608093A9
:100BF0002101809121018160809321018091200158
:100C000081608093200180917A00846080937A00D3
:100C100080917A00826080937A0080917A0081606E
:100C200080937A0080917A00806880937A00109295
:100C3000C10010923B0310923C0310923D031092AE
:100C40003E031092F9021092FA021092FB021092E7
:100C5000FC0268EB7BE080E090E079DD8AE592E0E1
:100C600090933A038093390323DB65DD6093F902A7
:100C70007093FA028093FB029093FC0262E172E0AF
:100C80008091390390913A0309DE6AE070E080E0D8
:100C900090E05DDD81E080930D0314BC15BC83E220
:100CA00084BD82E085BD569A3A9A429A1FDD4B0177
:100CB0005C0194E6C92ED12CE12CF12C17DDDC016E
:100CC000CB0188199909AA09BB09883E9340A1055F
:100CD000B10558F021E0C21AD108E108F10838EE58
:100CE000830E33E0931EA11CB11CC114D104E10496
:100CF000F10421F7DDDA8CE0282E82E0382E05E5BC
:100D0000C6E4DCE312E317DD672B682B692B39F4AB
:100D100012DD623071058105910508F4FCC00BDD20
:100D20006093560270935702809358029093590231
:100D3000C0905202D0905302E0905402F0905502BD
:100D40006C157D058E059F0540F4609352027093EB
:100D500053028093540290935502C0905202D09057
:100D60005302E0905402F09055029B01AC012C1903
:100D70003D094E095F0969017A013AEFC316D104B2
:100D8000E104F10408F4C7C0609352027093530267
:100D9000809354029093550284EF91E0A0E0B0E07C
:100DA0008093050390930603A0930703B093080371
:100DB0001092090310920A0310920B0310920C0375
:100DC0008091FD029091FE02A091FF02B09100037C
:100DD0008093010390930203A0930303B093040351
:100DE000AADC6093FD027093FE028093FF02909351
:100DF0000003A1DC6093F9027093FA028093FB0276
:100E00009093FC0298DC6B017C0164E272E08091BB
:100E1000390390913A0342DD2AE041E050E060E07E
:100E200070E08091390390913A034DDD6BE272E0FE
:100E30008091390390913A0331DD2AE0B701A60190
:100E40008091390390913A033EDD6DE272E080912A
:100E5000390390913A0322DD8091FD029091FE02C8
:100E6000A091FF02B0910003B701A601481B590BE6
:100E70006A0B7B0B2AE08091390390913A0323DDC2
:100E80006DE272E08091390390913A0307DD409161
:100E9000FD025091FE026091FF027091000380916B
:100EA000010390910203A0910303B0910403481B36
:100EB000590B6A0B7B0B2AE08091390390913A031E
:100EC00002DD6FE272E08091390390913A03E6DC33
:100ED00032DCAB01BC012AE08091390390913A03E6
:100EE000F2DCE0903903F0903A0361E372E0C7016D
:100EF000D5DC61E272E0C701D1DC65E070E080E042
:100F000090E025DC18DC6093FD027093FE02809374
:100F1000FF02909300030FDCC0904E02D0904F026E
:100F2000E0905002F0905102DC01CB018C199D0938
:100F3000AE09BF0981319742A105B10508F4ADC1E1
:100F4000FADB60934E0270934F02809350029093AD
:100F5000510274DC20E030E040E450E4DBD23FD3C7
:100F60006D31710518F410924D022AC09B012F516A
:100F700031092A30310518F410934D0221C09B012C
:100F8000295231092A30310518F4D0934D0218C086
:100F90009B01235331092530310518F4C0934D02CC
:100FA0000FC0AB01485351094530510518F4009367
:100FB0004D0206C06D33710518F0F4E6F0934D0252
:100FC000D0904D02ED2CF12C61E086E053DBE11472
:100FD000F10411F460E005C02FEFE216F10421F4F2
:100FE00061E086E018DBABC0F101849190E0FC0188
:100FF0003197E231F10508F09CC08827EC57FF4F8C
:101000008F4F21C384B5806884BDD7BC98C084B598
:10101000806284BDD8BC93C080918000806880933A
:101020008000F0928900E092880089C08091800061
:10103000806280938000F0928B00E0928A007FC0F3
:1010400080918000886080938000F0928D00E09213
:101050008C0075C08091B00080688093B000D09201
:10106000B3006DC08091B00080628093B000D092D8
:10107000B40065C080919000806880939000F092E9
:101080009900E09298005BC080919000806280930C
:101090009000F0929B00E0929A0051C080919000E5
:1010A000886080939000F0929D00E0929C0047C081
:1010B0008091A00080688093A0008091A0008F7B29
:1010C0008093A000F092A900E092A80038C080911F
:1010D000A00080628093A000F092AB00E092AA0092
:1010E0002EC08091A00088608093A000F092AD0097
:1010F000E092AC0024C080912001806880932001A0
:10110000F0922901E09228011AC0809120018062AA
:1011100080932001F0922B01E0922A0110C080916F
:101120002001886080932001F0922D01E0922C0133
:1011300006C0F0E8EF16F1040CF052CF4BCF7EDB87
:1011400020E030E040E450E4E5D16B017C014B014C
:101150005C019B01AC0173D2882319F068E372E053
:1011600018C026013701E89477F82FEF3FEF4FE7DB
:101170005FE7C301B20163D281110FC02FEF3FEFD0
:101180004FE75FE7C301B2018AD0181634F46CE36D
:1011900072E08AE592E082DB7BC02FEF3FEF4FE702
:1011A0005FE4C701B60147D218161CF460E472E090
:1011B000F0CF2FEF3FEF4FE75FECC701B6016FD0E5
:1011C00087FDF4CF20E030E0A901C701B60167D068
:1011D00087FF11C0E0915A02F0915B020190F0810B
:1011E000E02D6DE28AE592E0199546015701B7FAC4
:1011F000B094B7F8B0942AE037ED43EA5BE3C50159
:10120000B40189D14B015C01EAD16B017C014BD067
:101210009B01AC01C501B4017DD14B015C012AE009
:10122000B701A6018AE592E04EDBE0915A02F09107
:101230005B020190F081E02D6EE28AE592E0199563
:1012400020E030E040E251E4C501B4018DD06B01F3
:101250007C01C5D14B01A12CB12C2AE0B501A40120
:101260008AE592E030DBC501B4011DD09B01AC01E1
:10127000C701B6014FD120E030E040E251E474D024
:10128000AED1AB0160E070E02AE08AE592E01BDBC2
:1012900061E272E08AE592E001DB2FD934CD40D0E3
:1012A00008F481E00895E89409C097FB3EF4909516
:1012B0008095709561957F4F8F4F9F4F9923A9F02F
:1012C000F92F96E9BB279395F695879577956795BE
:1012D000B795F111F8CFFAF4BB0F11F460FF1BC002
:1012E0006F5F7F4F8F4F9F4F16C0882311F096E995
:1012F00011C0772321F09EE8872F762F05C0662343
:1013000071F096E8862F70E060E02AF09A95660FFB
:10131000771F881FDAF7880F9695879597F90895B4
:10132000990F0008550FAA0BE0E8FEEF16161706F6
:10133000E807F907C0F012161306E407F50798F05E
:10134000621B730B840B950B39F40A2661F0232B77
:10135000242B252B21F408950A2609F4A140A695F3
:101360008FEF811D811D08950BD078C069D028F0C2
:101370006ED018F0952309F05AC05FC01124A2C0A6
:101380007ED0A0F3959FD1F3950F50E0551F629F3B
:10139000F001729FBB27F00DB11D639FAA27F00DCE
:1013A000B11DAA1F649F6627B00DA11D661F829FF5
:1013B0002227B00DA11D621F739FB00DA11D621FDA
:1013C000839FA00D611D221F749F3327A00D611DF7
:1013D000231F849F600D211D822F762F6A2F1124D9
:1013E0009F5750408AF0E1F088234AF0EE0FFF1F2C
:1013F000BB1F661F771F881F91505040A9F79E3F63
:10140000510570F014C05EC05F3FECF3983EDCF312
:10141000869577956795B795F795E7959F5FC1F79F
:10142000FE2B880F911D9695879597F9089597F94A
:101430009F6780E870E060E008959FEF80EC08957A
:1014400000240A94161617061806090608950024A3
:101450000A9412161306140605060895092E03941D
:10146000000C11F4882352F0BB0F40F4BF2B11F491
:1014700060FF04C06F5F7F4F8F4F9F4F089557FDF0
:101480009058440F551F59F05F3F71F04795880FF2
:1014900097FB991F61F09F3F79F087950895121689
:1014A00013061406551FF2CF4695F1DF08C0161635
:1014B00017061806991FF1CF8695710561050894E6
:1014C0000895E894BB2766277727CB0197F90895FD
:1014D000A1E21A2EAA1BBB1BFD010DC0AA1FBB1F38
:1014E000EE1FFF1FA217B307E407F50720F0A21BAA
:1014F000B30BE40BF50B661F771F881F991F1A9417
:1015000069F760957095809590959B01AC01BD0140
:10151000CF0108955058BB27AA270ED09FCF90DF48
:1015200030F095DF20F031F49F3F11F41EF485CFA9
:101530000EF4E095E7FB7BCFE92FA1DF80F3BA172C
:10154000620773078407950718F071F49EF5B9CF09
:101550000EF4E0950B2EBA2FA02D0B01B9019001CE
:101560000C01CA01A0011124FF27591B99F0593F12
:1015700050F4503E68F11A16F040A22F232F342F5A
:101580004427585FF3CF469537952795A795F040A8
:101590005395C9F77EF41F16BA0B620B730B840BBD
:1015A000BAF09150A1F0FF0FBB1F661F771F881F75
:1015B000C2F70EC0BA0F621F731F841F48F48795CD
:1015C00077956795B795F7959E3F08F0B3CF9395BC
:1015D000880F08F09927EE0F97958795089557DFA4
:1015E00088F09F5790F0B92F9927B751A0F0D1F00C
:1015F000660F771F881F991F1AF0BA95C9F712C096
:10160000B13081F05EDFB1E008955BCF672F782FB6
:101610008827B85F39F0B93FCCF386957795679501
:10162000B395D9F73EF490958095709561957F4F6D
:101630008F4F9F4F089574DE08F48FEF089570DE8A
:10164000880B990B0895EE0FFF1F881F8BBF079023
:10165000F691E02D199481E090E0F89400C0F894A0
:02166000FFCFBA
:101662000000000016028001AF015C02E001BE0131
:10167200D201564D4450565F317C315F564D445035
:10168200560D0A00564D4450455F003A323A007CEE
:10169200005F564D445045006E616E00696E6600F3
:0416A2006F766600F9
:00000001FF
