:100000000C9462000C948A000C948A000C948A0070
:100010000C948A000C948A000C948A000C948A0038
:100020000C948A000C948A000C948A000C948A0028
:100030000C948A000C948A000C948A000C948A0018
:100040000C9490030C948A000C945E030C94380377
:100050000C948A000C948A000C948A000C948A00F8
:100060000C948A000C948A000000000024002700F1
:100070002A0000000000250028002B0000000000DE
:1000800023002600290004040404040404040202DA
:100090000202020203030303030301020408102007
:1000A0004080010204081020010204081020000012
:1000B0000008000201000003040700000000000027
:1000C0000000DA0311241FBECFEFD8E0DEBFCDBFA2
:1000D00022E0A8E3B1E001C01D92A533B207E1F729
:1000E00011E0A0E0B1E0E0E9F1E102C005900D927D
:1000F000A833B107D9F710E0C2E6D0E004C02197D9
:10010000FE010E94BB08C136D107C9F70E94340422
:100110000C94C6080C940000CF92DF92EF92FF92ED
:100120000F931F93CF93DF936C017A018B01C0E093
:10013000D0E0CE15DF0589F0D8016D918D01D60193
:10014000ED91FC910190F081E02DC6010995892B7C
:1001500011F47E0102C02196ECCFC701DF91CF914F
:100160001F910F91FF90EF90DF90CF900895089529
:1001700080E090E00895FC01538D448D252F30E000
:10018000842F90E0821B930B541710F0CF960895A4
:1001900001970895FC01918D828D981761F0828DF1
:1001A000DF01A80FB11D5D968C91928D9F5F9F73AB
:1001B000928F90E008958FEF9FEF0895FC01918D4D
:1001C000828D981731F0828DE80FF11D858D90E0BA
:1001D00008958FEF9FEF0895FC01918D228D892F57
:1001E00090E0805C9F4F821B91098F73992708953F
:1001F0008DE491E00E94EC0021E0892B09F420E0DD
:10020000822F0895FC01848DDF01A80FB11DA35A30
:10021000BF4F2C91848D90E001968F739927848F26
:10022000A689B7892C93A089B1898C9180648C931D
:10023000938D848D981306C00288F389E02D808108
:100240008F7D80830895EF92FF920F931F93CF933A
:10025000DF93EC0181E0888F9B8D8C8D981305C016
:10026000E889F989808185FD24C0F62E0B8D10E088
:100270000F5F1F4F0F731127E02E8C8DE8120CC0FB
:100280000FB607FCFACFE889F989808185FFF5CFA1
:10029000CE010E940201F1CF8B8DFE01E80FF11D0E
:1002A000E35AFF4FF0820B8FEA89FB8980818062DD
:1002B00007C0EE89FF896083E889F98980818064BD
:1002C000808381E090E0DF91CF911F910F91FF90AB
:1002D000EF900895CF93DF93EC01888D8823C9F0C8
:1002E000EA89FB89808185FD05C0A889B9898C913F
:1002F00086FD0FC00FB607FCF5CF808185FFF2CFDA
:10030000A889B9898C9185FFEDCFCE010E940201A9
:10031000E7CFDF91CF91089580E090E0892B29F01D
:100320000E94F80081110C9400000895833081F040
:1003300028F4813099F08230A1F008958730A9F037
:100340008830B9F08430D1F4809180008F7D03C073
:10035000809180008F7780938000089584B58F7797
:1003600002C084B58F7D84BD08958091B0008F77E1
:1003700003C08091B0008F7D8093B00008951F93DB
:10038000CF93DF93282F30E0F901E255FF4F84919E
:10039000F901E656FF4FD491F901EA57FF4FC49196
:1003A000CC23C9F0162F81110E949601EC2FF0E0AA
:1003B000EE0FFF1FEE58FF4FA591B4918FB7F89441
:1003C000111105C09C91ED2FE095E92302C0EC913D
:1003D000ED2BEC938FBFDF91CF911F910895CF93B9
:1003E000DF9390E0FC01E656FF4F2491FC01EA57B1
:1003F000FF4F8491882361F190E0880F991FFC01E1
:10040000E859FF4FC591D491FC01EE58FF4FA591DB
:10041000B491611109C09FB7F89488812095822317
:100420008883EC912E230BC0623061F49FB7F8945F
:100430003881822F809583238883EC912E2B2C93F7
:100440009FBF06C08FB7F894E8812E2B28838FBFFB
:10045000DF91CF9108953FB7F89480913D0190913D
:100460003E01A0913F01B091400126B5A89B05C077
:100470002F3F19F00196A11DB11D3FBFBA2FA92F23
:10048000982F8827820F911DA11DB11DBC01CD01A0
:1004900042E0660F771F881F991F4A95D1F708958C
:1004A0002FB7F8946091390170913A0180913B0126
:1004B00090913C012FBF08958F929F92AF92BF926F
:1004C000CF92DF92EF92FF926B017C010E9450026B
:1004D0004B015C01C60ED71EE81EF91E0E94500299
:1004E000681579058A059B0528F0C616D706E80623
:1004F000F906A0F7FF90EF90DF90CF90BF90AF90FC
:100500009F908F900895DF92EF92FF920F931F9329
:10051000CF93DF93C7E0D0E0E12C01E010E060E092
:10052000809132020E94BF018FE99FE00197F1F7AD
:1005300000C000002091330230E0F901E255FF4F86
:100540008491F901E656FF4FD490F901EA57FF4F25
:10055000F490FF2071F081110E949601EF2DF0E0E0
:10056000EE0FFF1FE458FF4FA591B491EC91ED21E0
:10057000B9F461E0809132020E94BF018FE99FE0EF
:100580000197F1F700C00000219708F0C8CF8E2D29
:10059000DF91CF911F910F91FF90EF90DF90089521
:1005A000C8010C2E01C0880F0A94EAF7E82AE1CFAF
:1005B0000E94C1086115710579F0FB0101900020CE
:1005C000E9F73197AF01461B570BDC01ED91FC9128
:1005D0000280F381E02D099480E090E008954F922D
:1005E0005F926F927F92EF92FF920F931F93CF9340
:1005F000DF93CDB7DEB7A1970FB6F894DEBF0FBE7D
:10060000CDBF7C01FA01CB0119A2223008F42AE007
:100610008E010F5D1F4F422E512C612C712CBF019A
:10062000A30192010E94FD07F901CA0101501109BD
:100630006A3014F4605D01C0695CD8016C93232BAF
:10064000242B252B61F7B801C7010E94DA02A1967D
:100650000FB6F894DEBF0FBECDBFDF91CF911F91D3
:100660000F91FF90EF907F906F905F904F90089563
:100670001F920F920FB60F9211242F933F934F9317
:100680005F936F937F938F939F93AF93BF93EF93FA
:10069000FF938DE491E00E940201FF91EF91BF91E1
:1006A000AF919F918F917F916F915F914F913F910A
:1006B0002F910F900FBE0F901F9018951F920F92C1
:1006C0000FB60F9211242F938F939F93EF93FF9365
:1006D000E0915D01F0915E018081E0916301F09114
:1006E000640182FD12C09081809166018F5F8F73DB
:1006F00020916701821751F0E0916601F0E0E35B21
:10070000FE4F958F8093660101C08081FF91EF912C
:100710009F918F912F910F900FBE0F901F90189562
:100720001F920F920FB60F9211242F933F938F9326
:100730009F93AF93BF938091390190913A01A0911B
:100740003B01B0913C013091380123E0230F2D375C
:1007500020F40196A11DB11D05C026E8230F0296C5
:10076000A11DB11D209338018093390190933A0166
:10077000A0933B01B0933C0180913D0190913E01DB
:10078000A0913F01B09140010196A11DB11D809340
:100790003D0190933E01A0933F01B0934001BF9172
:1007A000AF919F918F913F912F910F900FBE0F901E
:1007B0001F901895CF93DF93EDE4F1E0138212823E
:1007C00088EE93E0A0E0B0E084839583A683B783AE
:1007D00084E091E09183808385EC90E09587848725
:1007E00084EC90E09787868780EC90E0918B808BFB
:1007F00081EC90E0938B828B82EC90E0958B848BE4
:1008000086EC90E0978B868B118E128E138E148E51
:10081000EAEEF1E0168217821086118612861386A0
:100820001486158616861786108A118A128A138AEC
:10083000148A158AC2E3D2E082E0888383E08A8347
:1008400084E0898361E083E00E94EF0161E08881B8
:100850000E94EF0160E089810E94EF0161E08A81DE
:10086000DF91CF910C94BF01789484B5826084BDF0
:1008700084B5816084BD85B5826085BD85B58160A4
:1008800085BD80916E00816080936E001092810022
:1008900080918100826080938100809181008160DD
:1008A000809381008091800081608093800080919E
:1008B000B10084608093B1008091B000816080932A
:1008C000B00080917A00846080937A0080917A00F1
:1008D000826080937A0080917A00816080937A00B0
:1008E00080917A00806880937A001092C100109203
:1008F0002E0210922F0210923002109231021092AA
:10090000EC011092ED011092EE011092EF0168EBF4
:100910007BE080E090E00E945C028DE491E09093A7
:100920002D0280932C02E0915D01F0915E0182E046
:100930008083E0915901F0915A011082E0915B01AE
:10094000F0915C0180E1808310926501E09161018A
:10095000F091620186E08083E0915F01F091600197
:10096000808180618083E0915F01F09160018081EE
:1009700088608083E0915F01F091600180818068F0
:100980008083E0915F01F091600180818F7D8083A1
:100990000E9450026093EC017093ED018093EE0190
:1009A0009093EF0162E171E080912C0290912D0211
:1009B0000E94DA026AE070E080E090E00E945C024F
:1009C00081E08093000293EA94BD85BD61E086E0FA
:1009D0000E94EF0161E080E10E94EF0161E080E1AF
:1009E0000E94BF010E942B024B015C0134E6C32E22
:1009F000D12CE12CF12C0E942B02DC01CB018819B7
:100A00009909AA09BB09883E9340A105B10558F090
:100A100021E0C21AD108E108F10838EE830E33E074
:100A2000931EA11CB11CC114D104E104F10419F7F7
:100A300024EFC22EDD24D394E12CF12C04EB10E042
:100A40000E945002672B682B692B41F40E945002D0
:100A5000623071058105910508F40BC10E945002B6
:100A60006093490170934A0180934B0190934C012C
:100A70008090450190904601A0904701B0904801B8
:100A8000681579058A059B0540F4609345017093CC
:100A900046018093470190934801809045019090D2
:100AA0004601A0904701B09048019B01AC01281974
:100AB00039094A095B0949015A013AEF8316910441
:100AC000A104B10408F4D5C06093450170934601B8
:100AD0008093470190934801C092F801D092F901A8
:100AE000E092FA01F092FB011092FC011092FD01DC
:100AF0001092FE011092FF018091F0019091F1019E
:100B0000A091F201B091F3018093F4019093F5016B
:100B1000A093F601B093F7010E9450026093F00198
:100B20007093F1018093F2019093F3010E945002BF
:100B30006093EC017093ED018093EE019093EF01CF
:100B40000E9450024B015C0164E271E080912C0232
:100B500090912D020E94DA022AE041E050E060E02C
:100B600070E080912C0290912D020E94EF026BE2C6
:100B700071E080912C0290912D020E94DA022AE00D
:100B8000B501A40180912C0290912D020E94EF02E8
:100B90006DE271E080912C0290912D020E94DA02A8
:100BA0008091F0019091F101A091F201B091F301D7
:100BB000B501A401481B590B6A0B7B0B2AE08091FD
:100BC0002C0290912D020E94EF026DE271E0809163
:100BD0002C0290912D020E94DA024091F001509176
:100BE000F1016091F2017091F3018091F401909113
:100BF000F501A091F601B091F701481B590B6A0B62
:100C00007B0B2AE080912C0290912D020E94EF0232
:100C10006FE271E080912C0290912D020E94DA0225
:100C20000E945002AB01BC012AE080912C029091FD
:100C30002D020E94EF02C0912C02D0912D0261E39F
:100C400071E0CE010E94DA0261E271E0CE010E9401
:100C5000DA0265E070E080E090E00E945C020E94B1
:100C600050026093F0017093F1018093F201909330
:100C7000F3010E9450028090410190904201A090A7
:100C80004301B0904401DC01CB0188199909AA09FC
:100C9000BB09813A9648A140B10508F4B0C060E0B4
:100CA000809134020E94BF018FE99FE00197F1F724
:100CB00000C000000E948302C82FD0E0DC2FCC27A8
:100CC0000E948302C82B61E0809134020E94BF0120
:100CD000C2FD11C0BE0183E0769567958A95E1F764
:100CE00080E090E00E94020720E030E040E85EE310
:100CF0000E943F0704C060E070E080EC9FE720E0C6
:100D000030E040E450E40E941F080E948C086F31DC
:100D1000A8F081EE860F8A3098F087ED860F853037
:100D200088F082ED860F853078F08DEC860F853067
:100D300068F06853653060F0C4E60BC0C0E009C0DD
:100D4000C9E107C0C3E205C0C2E303C0C1E401C0FA
:100D5000C0E561E086E00E94EF01CC2309F441C0C8
:100D6000F8018491833009F148F48130C9F0823070
:100D7000C1F584B5806284BDC8BD37C0873009F134
:100D8000883039F1843069F58091800080628093E9
:100D900080008C2F90E090938B0080938A0025C078
:100DA00084B5806884BDC7BD20C080918000806804
:100DB000809380008C2F90E090938900809388002E
:100DC00014C08091B00080688093B000C093B300DD
:100DD0000CC08091B00080628093B000C093B400DA
:100DE00004C060E086E00E94BF010E945002609350
:100DF00041017093420180934301909344010E940A
:100E00008C011ECEE89409C097FB3EF49095809526
:100E1000709561957F4F8F4F9F4F9923A9F0F92FC0
:100E200096E9BB279395F695879577956795B7953E
:100E3000F111F8CFFAF4BB0F11F460FF1BC06F5F24
:100E40007F4F8F4F9F4F16C0882311F096E911C036
:100E5000772321F09EE8872F762F05C0662371F057
:100E600096E8862F70E060E02AF09A95660F771F6B
:100E7000881FDAF7880F9695879597F908950E944D
:100E800052070C94C3070E94B50738F00E94BC07B4
:100E900020F0952311F00C94AC070C94B2071124A8
:100EA0000C94F7070E94D40770F3959FC1F3950F38
:100EB00050E0551F629FF001729FBB27F00DB11DDE
:100EC000639FAA27F00DB11DAA1F649F6627B00D6E
:100ED000A11D661F829F2227B00DA11D621F739F57
:100EE000B00DA11D621F839FA00D611D221F749F65
:100EF0003327A00D611D231F849F600D211D822FAC
:100F0000762F6A2F11249F5750409AF0F1F08823D2
:100F10004AF0EE0FFF1FBB1F661F771F881F9150FF
:100F20005040A9F79E3F510580F00C94AC070C94FB
:100F3000F7075F3FE4F3983ED4F38695779567957E
:100F4000B795F795E7959F5FC1F7FE2B880F911D29
:100F50009695879597F9089597F99F6780E870E0CF
:100F600060E008959FEF80EC089500240A9416161F
:100F7000170618060906089500240A941216130687
:100F8000140605060895092E0394000C11F4882315
:100F900052F0BB0F40F4BF2B11F460FF04C06F5F31
:100FA0007F4F8F4F9F4F089557FD9058440F551F07
:100FB00059F05F3F71F04795880F97FB991F61F0DB
:100FC0009F3F79F087950895121613061406551F52
:100FD000F2CF4695F1DF08C0161617061806991FBE
:100FE000F1CF86957105610508940895E894BB27B3
:100FF00066277727CB0197F90895A1E21A2EAA1B3D
:10100000BB1BFD010DC0AA1FBB1FEE1FFF1FA217B8
:10101000B307E407F50720F0A21BB30BE40BF50BB5
:10102000661F771F881F991F1A9469F7609570953E
:10103000809590959B01AC01BD01CF01089550585A
:10104000BB27AA270E9437080C94C3070E94B50744
:1010500038F00E94BC0720F039F49F3F19F426F4C1
:101060000C94B2070EF4E095E7FB0C94AC07E92F63
:101070000E94D40758F3BA176207730784079507CD
:1010800020F079F4A6F50C94F6070EF4E0950B2EFB
:10109000BA2FA02D0B01B90190010C01CA01A001CA
:1010A0001124FF27591B99F0593F50F4503E68F125
:1010B0001A16F040A22F232F342F4427585FF3CF66
:1010C000469537952795A795F0405395C9F77EF437
:1010D0001F16BA0B620B730B840BBAF09150A1F080
:1010E000FF0FBB1F661F771F881FC2F70EC0BA0F06
:1010F000621F731F841F48F4879577956795B7958E
:10110000F7959E3F08F0B0CF9395880F08F0992788
:10111000EE0F9795879508950E94DC0788F09F57FA
:1011200098F0B92F9927B751B0F0E1F0660F771F0B
:10113000881F991F1AF0BA95C9F714C0B13091F001
:101140000E94F607B1E008950C94F607672F782FF8
:101150008827B85F39F0B93FCCF3869577956795C6
:10116000B395D9F73EF490958095709561957F4F32
:101170008F4F9F4F0895EE0FFF1F0590F491E02DC4
:10118000099481E090E0F8940C94C608F894FFCF9D
:101190000000000023018C00BB006A01EC00CA00C3
:1011A000DE00564D4450565F317C315F564D445001
:1011B000560D0A00564D4450455F003A323A007CC5
:0811C000005F564D445045004C
:107800000C94343C0C94513C0C94513C0C94513CE1
:107810000C94513C0C94513C0C94513C0C94513CB4
:107820000C94513C0C94513C0C94513C0C94513CA4
:107830000C94513C0C94513C0C94513C0C94513C94
:107840000C94513C0C94513C0C94513C0C94513C84
:107850000C94513C0C94513C0C94513C0C94513C74
:107860000C94513C0C94513C11241FBECFEFD8E036
:10787000DEBFCDBF11E0A0E0B1E0ECE9FFE702C060
:1078800005900D92A230B107D9F712E0A2E0B1E065
:1078900001C01D92AD30B107E1F70E942D3D0C945F
:1078A000CC3F0C94003C982F959595959595959582
:1078B000905D8F708A307CF0282F295A8091C0000B
:1078C00085FFFCCF9093C6008091C00085FFFCCF60
:1078D0002093C6000895282F205DF0CF982F809127
:1078E000C00085FFFCCF9093C6000895EF92FF92F1
:1078F0000F931F93EE24FF2487018091C00087FD22
:1079000017C00894E11CF11C011D111D81E4E8164B
:1079100082E4F8068FE0080780E0180770F3E09132
:107920000401F091050109958091C00087FFE9CF1E
:107930008091C6001F910F91FF90EF9008950E94D3
:10794000763C982F8091C00085FFFCCF9093C600B5
:1079500091362CF490330CF09053892F089597555D
:10796000892F08951F930E949F3C182F0E949F3CCF
:107970001295107F810F1F9108951F93182F882350
:1079800021F00E94763C1150E1F71F9108951F935A
:10799000182F0E94763C803249F0809103018F5F5E
:1079A000809303018530C1F01F9108958091C0003C
:1079B00085FFFCCF84E18093C6008091C00085FFE5
:1079C000FCCF1093C6008091C00085FFFCCF80E102
:1079D0008093C6001F910895E0910401F091050184
:1079E00009951F9108950E94763C803241F0809164
:1079F00003018F5F80930301853081F008958091AA
:107A0000C00085FFFCCF84E18093C6008091C00058
:107A100085FFFCCF80E18093C6000895E0910401CA
:107A2000F09105010995089540E951E08823A1F0FE
:107A30002D9A28EE33E0FA013197F1F721503040CA
:107A4000D1F72D9828EE33E0FA013197F1F7215064
:107A50003040D1F7815061F708953F924F925F9285
:107A60006F927F928F929F92AF92BF92CF92DF924E
:107A7000EF92FF920F931F93CF93DF93000080E16B
:107A80008093C4001092C50088E18093C10086E015
:107A90008093C2005098589A259A81E00E94143D24
:107AA00024E1F22E9EE1E92E85E9D82E0FE0C02ECA
:107AB00010E1B12EAA24A394B1E49B2EA6E58A2E50
:107AC000F2E57F2EE0E26E2E79E4572E63E5462E36
:107AD00050E5352E0E94763C8033B1F18133B9F107
:107AE000803409F46FC0813409F476C0823409F41B
:107AF00085C0853409F488C0803531F1823521F1A3
:107B0000813511F1853509F485C0863509F48DC0BC
:107B1000843609F496C0843709F403C1853709F423
:107B200072C1863709F466C0809103018F5F80932C
:107B30000301853079F6E0910401F0910501099582
:107B40000E94763C803351F60E94F33CC3CF0E94E2
:107B5000763C803249F78091C00085FFFCCFF092DF
:107B6000C6008091C00085FFFCCF9092C600809136
:107B7000C00085FFFCCF8092C6008091C00085FFC9
:107B8000FCCF7092C6008091C00085FFFCCF609250
:107B9000C6008091C00085FFFCCF5092C600809146
:107BA000C00085FFFCCF4092C6008091C00085FFD9
:107BB000FCCF3092C6008091C00085FFFCCFB09210
:107BC000C60088CF0E94763C863808F4BDCF0E945C
:107BD000763C0E94F33C7ECF0E94763C803809F4CC
:107BE0009CC0813809F40BC1823809F43CC1883942
:107BF00009F48FC080E00E94C73C6CCF84E10E94F2
:107C0000BD3C0E94F33C66CF85E00E94BD3C0E94D3
:107C1000F33C60CF0E94763C809306010E94763C44
:107C2000809307010E94F33C55CF0E94763C80333D
:107C300009F41DC183E00E94BD3C80E00E94C73C66
:107C400049CF0E94763C809309020E94763C809343
:107C5000080280910C028E7F80930C020E94763C79
:107C6000853409F415C18091080290910902892B8D
:107C700089F000E010E00E94763CF801E85FFE4FDA
:107C800080830F5F1F4F80910802909109020817AF
:107C9000190788F30E94763C803209F045CF809125
:107CA0000C0280FF01C16091060170910701660F0F
:107CB000771F7093070160930601A0910802B091AD
:107CC00009021097C9F0E8E0F1E09B01AD014E0F09
:107CD0005F1FF999FECF32BD21BD819180BDFA9A17
:107CE000F99A2F5F3F4FE417F50799F76A0F7B1F4B
:107CF00070930701609306018091C00085FFFCCF5F
:107D0000F092C6008091C00085FFFCCFB092C60003
:107D1000E1CE83E00E94C73CDDCE82E00E94C73CFA
:107D2000D9CE0E94763C809309020E94763C8093D3
:107D300008028091060190910701880F991F909386
:107D40000701809306010E94763C853409F4A6C0A1
:107D500080910C028E7F80930C020E94763C8032D0
:107D600009F0B8CE8091C00085FFFCCFF092C6002C
:107D7000609108027091090261157105B9F140E046
:107D800050E080910C02A82FA170B82FB27011C0E2
:107D9000BB2309F45CC0E0910601F0910701319624
:107DA000F0930701E09306014F5F5F4F46175707B7
:107DB000E8F4AA2369F3F999FECF209106013091E6
:107DC000070132BD21BDF89A90B58091C00085FFB2
:107DD000FCCF9093C6002F5F3F4F30930701209355
:107DE00006014F5F5F4F4617570718F38091C00099
:107DF00085FDE5CE8091C00085FFF8CFE0CE81E023
:107E00000E94C73C67CE0E94763C803209F08CCE3F
:107E10008091C00085FFFCCFF092C6008091C00029
:107E200085FFFCCFE092C6008091C00085FFFCCFAB
:107E3000D092C6008091C00085FFFCCFC092C600E2
:107E40008091C00085FFFCCFB092C60043CEE09188
:107E50000601F091070194918091C00085FFFCCF4D
:107E60009093C6009CCF80E10E94C73C33CE0E9415
:107E7000763C0E94763C182F0E94763C112309F430
:107E800083C0113009F484C08FE00E94C73C22CE29
:107E900080910C02816080930C02E5CE80910C02EF
:107EA000816080930C0259CF809107018823880F4D
:107EB000880B8A2180930B02809106019091070123
:107EC000880F991F90930701809306018091080203
:107ED00080FF09C080910802909109020196909359
:107EE000090280930802F894F999FECF1127E091D6
:107EF0000601F0910701C8E0D1E08091080290915D
:107F00000902103091F40091570001700130D9F34B
:107F100003E000935700E89500915700017001308D
:107F2000D9F301E100935700E89509901990009169
:107F3000570001700130D9F301E000935700E89534
:107F40001395103498F011270091570001700130FB
:107F5000D9F305E000935700E895009157000170B0
:107F60000130D9F301E100935700E895329602976A
:107F700009F0C7CF103011F00296E5CF112480919F
:107F8000C00085FFB9CEBCCE8EE10E94C73CA2CD19
:0C7F900085E90E94C73C9ECDF894FFCF0D
:027F9C00800063
:040000030000780081
:00000001FF