:100000000C9462000C947F000C947F000C947F0091
:100010000C947F000C947F000C947F000C947F0064
:100020000C947F000C947F000C947F000C947F0054
:100030000C947F000C947F000C947F000C947F0044
:100040000C9490010C947F000C947F000C947F0022
:100050000C947F000C947F000C947F000C947F0024
:100060000C947F000C947F00000000002400270007
:100070002A0000000000250028002B0000000000DE
:1000800023002600290004040404040404040202DA
:100090000202020203030303030301020408102007
:1000A0004080010204081020010204081020000012
:1000B0000008000201000003040700000000000027
:1000C0000000360311241FBECFEFD8E0DEBFCDBF46
:1000D00021E0A0E0B1E001C01D92A031B207E1F73C
:1000E00010E0C2E6D0E004C02197FE010E94E904BE
:1000F000C136D107C9F70E94DA010C94EF040C94C1
:100100000000833081F028F4813099F08230A1F032
:1001100008958730A9F08830B9F08430D1F4809107
:1001200080008F7D03C0809180008F778093800056
:10013000089584B58F7702C084B58F7D84BD0895FE
:100140008091B0008F7703C08091B0008F7D809345
:10015000B00008951F93CF93DF93282F30E0F9016B
:10016000E255FF4F8491F901E656FF4FD491F90112
:10017000EA57FF4FC491CC23C9F0162F81110E947A
:100180008100EC2FF0E0EE0FFF1FEE58FF4FA5911E
:10019000B4918FB7F894111105C09C91ED2FE095A3
:1001A000E92302C0EC91ED2BEC938FBFDF91CF914F
:1001B0001F910895CF93DF9390E0FC01E656FF4F27
:1001C0002491FC01EA57FF4F8491882361F190E06C
:1001D000880F991FFC01E859FF4FC591D491FC018C
:1001E000EE58FF4FA591B491611109C09FB7F894E3
:1001F0008881209582238883EC912E230BC0623066
:1002000061F49FB7F8943881822F80958323888387
:10021000EC912E2B2C939FBF06C08FB7F894E881EA
:100220002E2B28838FBFDF91CF9108953FB7F8948D
:100230008091010190910201A0910301B09104010C
:1002400026B5A89B05C02F3F19F00196A11DB11D31
:100250003FBFBA2FA92F982F8827820F911DA11D6C
:10026000B11DBC01CD0142E0660F771F881F991FA9
:100270004A95D1F70895DF92EF92FF920F931F9363
:10028000CF93DF93C7E0D0E0E12C01E010E060E025
:1002900080910D010E94AA008FE99FE00197F1F77C
:1002A00000C0000020910E0130E0F901E255FF4F3F
:1002B0008491F901E656FF4FD490F901EA57FF4FB8
:1002C000F490FF2071F081110E948100EF2DF0E089
:1002D000EE0FFF1FE458FF4FA591B491EC91ED2173
:1002E000B9F461E080910D010E94AA008FE99FE0BE
:1002F0000197F1F700C00000219708F0C8CF8E2DBC
:10030000DF91CF911F910F91FF90EF90DF900895B3
:10031000C8010C2E01C0880F0A94EAF7E82AE1CF41
:100320001F920F920FB60F9211242F933F938F932A
:100330009F93AF93BF938091050190910601A09187
:100340000701B09108013091000123E0230F2D3700
:1003500020F40196A11DB11D05C026E8230F0296C9
:10036000A11DB11D2093000180930501909306010A
:10037000A0930701B09308018091010190910201BF
:10038000A0910301B09104010196A11DB11D8093BC
:10039000010190930201A0930301B0930401BF9166
:1003A000AF919F918F913F912F910F900FBE0F9022
:1003B0001F901895789484B5826084BD84B581605F
:1003C00084BD85B5826085BD85B5816085BD809120
:1003D0006E00816080936E00109281008091810098
:1003E0008260809381008091810081608093810090
:1003F000809180008160809380008091B100846052
:100400008093B1008091B00081608093B0008091B2
:100410007A00846080937A0080917A008260809371
:100420007A0080917A00816080937A0080917A00CE
:10043000806880937A001092C10083EA84BD81E0D5
:1004400085BD61E086E00E94DA0061E080E10E9403
:10045000DA0061E080E10E94AA000E9416014B01CF
:100460005C0134E6C32ED12CE12CF12C0E94160144
:10047000DC01CB0188199909AA09BB09883E934080
:10048000A105B10558F021E0C21AD108E108F10830
:1004900088EE880E83E0981EA11CB11CC114D10403
:1004A000E104F10419F704EB10E020E0E22E20E073
:1004B000F22E2FB7F8948091050190910601A0913A
:1004C0000701B09108012FBF4091090150910A0125
:1004D00060910B0170910C01841B950BA60BB70B5F
:1004E000813A9648A140B10508F4B9C060E0809116
:1004F0000F010E94AA008FE99FE00197F1F700C069
:1005000000000E943B01C82FD0E0DC2FCC270E94C6
:100510003B01C82B61E080910F010E94AA00C2FD3F
:1005200011C0BE0183E0769567958A95E1F780E07A
:1005300090E00E94EE0320E030E040E85EE30E949D
:100540007C0404C060E070E080EC9FE720E030E0D5
:1005500040E450E40E9452030E94BF036F31A8F0B0
:1005600081EE860F8A3098F087ED860F853088F00F
:1005700082ED860F853078F08DEC860F853068F03F
:100580006853653060F0C4E60BC0C0E009C0C9E143
:1005900007C0C3E205C0C2E303C0C1E401C0C0E5B7
:1005A00061E086E00E94DA00CC2309F441C0F80142
:1005B0008491833009F148F48130C9F08230C1F56B
:1005C00084B5806284BDC8BD37C0873009F18830EA
:1005D00039F1843069F580918000806280938000D9
:1005E0008C2F90E090938B0080938A0025C084B577
:1005F000806884BDC7BD20C08091800080688093E2
:1006000080008C2F90E0909389008093880014C024
:100610008091B00080688093B000C093B3000CC09C
:100620008091B00080628093B000C093B40004C099
:1006300060E086E00E94AA002FB7F894809105013F
:1006400090910601A0910701B09108012FBF8093FE
:10065000090190930A01A0930B01B0930C01E114DE
:10066000F10409F426CF0E94000023CFCF93DF933B
:10067000CDE0D1E082E0888383E08A8384E08983CF
:1006800061E083E00E94DA0061E088810E94DA0084
:1006900060E089810E94DA0061E08A81DF91CF9178
:1006A0000C94AA005058BB27AA270E946A030C94F6
:1006B00042040E94340438F00E943B0420F039F4D4
:1006C0009F3F19F426F40C9431040EF4E095E7FBF7
:1006D0000C942B04E92F0E94530458F3BA176207B5
:1006E00073078407950720F079F4A6F50C94750438
:1006F0000EF4E0950B2EBA2FA02D0B01B90190013D
:100700000C01CA01A0011124FF27591B99F0593F80
:1007100050F4503E68F11A16F040A22F232F342FC8
:100720004427585FF3CF469537952795A795F04016
:100730005395C9F77EF41F16BA0B620B730B840B2B
:10074000BAF09150A1F0FF0FBB1F661F771F881FE3
:10075000C2F70EC0BA0F621F731F841F48F487953B
:1007600077956795B795F7959E3F08F0B0CF93952D
:10077000880F08F09927EE0F9795879508950E94A6
:100780005B0488F09F5798F0B92F9927B751B0F0C4
:10079000E1F0660F771F881F991F1AF0BA95C9F705
:1007A00014C0B13091F00E947504B1E008950C942A
:1007B0007504672F782F8827B85F39F0B93FCCF3DD
:1007C000869577956795B395D9F73EF49095809582
:1007D000709561957F4F8F4F9F4F0895E89409C0A2
:1007E00097FB3EF490958095709561957F4F8F4F64
:1007F0009F4F9923A9F0F92F96E9BB279395F6957A
:10080000879577956795B795F111F8CFFAF4BB0FF7
:1008100011F460FF1BC06F5F7F4F8F4F9F4F16C05B
:10082000882311F096E911C0772321F09EE8872FE5
:10083000762F05C0662371F096E8862F70E060E0A1
:100840002AF09A95660F771F881FDAF7880F96951A
:10085000879597F9089597F99F6780E870E060E0C1
:1008600008959FEF80EC089500240A941616170649
:1008700018060906089500240A9412161306140691
:1008800005060895092E0394000C11F4882352F0F4
:10089000BB0F40F4BF2B11F460FF04C06F5F7F4FAC
:1008A0008F4F9F4F089557FD9058440F551F59F093
:1008B0005F3F71F04795880F97FB991F61F09F3F4D
:1008C00079F087950895121613061406551FF2CF76
:1008D0004695F1DF08C0161617061806991FF1CFC6
:1008E00086957105610508940895E894BB276627ED
:1008F0007727CB0197F908950E948F040C94420446
:100900000E94340438F00E943B0420F0952311F03B
:100910000C942B040C94310411240C9476040E9442
:10092000530470F3959FC1F3950F50E0551F629FDC
:10093000F001729FBB27F00DB11D639FAA27F00D38
:10094000B11DAA1F649F6627B00DA11D661F829F5F
:100950002227B00DA11D621F739FB00DA11D621F44
:10096000839FA00D611D221F749F3327A00D611D61
:10097000231F849F600D211D822F762F6A2F112443
:100980009F5750409AF0F1F088234AF0EE0FFF1F76
:10099000BB1F661F771F881F91505040A9F79E3FCD
:1009A000510580F00C942B040C9476045F3FE4F323
:1009B000983ED4F3869577956795B795F795E79523
:1009C0009F5FC1F7FE2B880F911D9695879597F92C
:1009D0000895EE0FFF1F0590F491E02D0994F8940F
:0209E000FFCF47
:00000001FF
