:1000000007C10000E1C60000B4C6000087C60000BA
:100010005AC600002DC6000000C60000D3C500006F
:10002000A6C5000026C1000024C1000022C10000B6
:1000300020C100001EC100001CC100001AC1000048
:1000400018C1000016C1000014C1000012C1000058
:1000500010C100000EC100000CC100003EC5000030
:1000600008C1000086C400005BC4000002C100009B
:1000700000C10000FEC00000FCC00000FAC000008B
:10008000F8C00000F6C00000F4C00000F2C000009C
:10009000F0C00000EEC00000ECC00000A9C70000E6
:1000A000E8C00000E6C00000E4C00000E2C00000BC
:1000B000E0C00000DEC00000DCC00000DAC00000CC
:1000C000D8C00000D6C00000D4C00000D2C00000DC
:1000D000D0C00000CEC00000CCC00000CAC00000EC
:1000E000C8C000006F027202610265026902A902C3
:1000F00076027A028002840288028E0292029602BE
:10010000A9029C02A002A40200000A0B02090C0D25
:100110000E080703040100000000000000000000BA
:1001200000000000000000000000000000000000CF
:10013000000000001211100000000000000000008C
:1001400000000000000000000000000000000000AF
:100150002200250028002B002E003100340002016F
:100160000000050108010B01000021002400270008
:100170002A002D00300033000101000004010701B6
:100180000A0105050505070508080808020202021C
:100190000A0A080804040404010101010101010123
:1001A0000303030303030303040707070C0C0C0CEE
:1001B0000C0C0C0C020202020606060606060606D7
:1001C0000B0B0B0B0B0B0B0B010210202008081064
:1001D00020401020408002010201080402010102B7
:1001E0000408102040808040201008040201800490
:1001F00002018040201008040201080402010102EB
:100200000408102040800102040810204080900D56
:1002100011241FBECFEFD1E2DEBFCDBF00E00CBF87
:1002200024E0AAEBB2E001C01D92A537B207E1F7C6
:1002300012E0A0E0B2E0E2E6FCE100E00BBF02C0A9
:1002400007900D92AA3BB107D9F711E0C8E0D1E0C1
:1002500000E006C021970109802FFE010E94230EB5
:10026000C730D10780E00807A9F70E94940A0C94D0
:100270002F0EC6CEFC01538D448D252F30E0842FE8
:1002800090E0821B930B541710F0CF9608950197BE
:100290000895FC01918D828D981761F0828DDF01A8
:1002A000A80FB11D5D968C91928D9F5F9F73928F69
:1002B00090E008958FEF9FEF0895FC01918D828D5E
:1002C000981731F0828DE80FF11D858D90E008952B
:1002D0008FEF9FEF0895FC01918D228D892F90E083
:1002E000805C9F4F821B91098F73992708958BE63D
:1002F00093E0F1DF21E0892B09F420E0822F0895BB
:10030000FC01848DDF01A80FB11DA35ABF4F2C91B2
:10031000848D90E001968F739927848FA689B78981
:100320002C93A089B1898C9180648C93938D848D5A
:10033000981306C00288F389E02D80818F7D808329
:100340000895EF92FF920F931F93CF93DF93EC01E9
:1003500081E0888F9B8D8C8D981305C0E889F98981
:10036000808185FD23C0F62E0B8D10E00F5F1F4F9F
:100370000F731127E02E8C8DE8120BC00FB607FC0F
:10038000FACFE889F989808185FFF5CFCE01B8DF02
:10039000F2CF8B8DFE01E80FF11DE35AFF4FF08283
:1003A0000B8FEA89FB898081806207C0EE89FF8913
:1003B0006083E889F98980818064808381E090E0AE
:1003C000DF91CF911F910F91FF90EF900895CF9300
:1003D000DF93EC01888D8823C1F0EA89FB89808155
:1003E00085FD05C0A889B9898C9186FD0EC00FB620
:1003F00007FCF5CF808185FFF2CFA889B9898C9160
:1004000085FFEDCFCE017CDFE8CFDF91CF9108955E
:1004100080E090E0892B19F06ADF811125C080E02F
:1004200090E0892B41F080E090E0892B21F00E9440
:10043000000081111CC080E090E0892B41F080E039
:1004400090E0892B21F00E940000811113C080E010
:1004500090E0892BA1F080E090E0892B81F00E9450
:10046000000081110AC008950E940000D8CF0E94A8
:100470000000E1CF0E940000EACF0C940000089534
:10048000362F90E0FC01E85FFE4F4491FC01E853F9
:10049000FE4F2491FC01EE57FE4F9491992309F4ED
:1004A0006BC0442309F455C050E0FA013197E231A2
:1004B000F10508F04EC08827EE58FF4F8F4F0C947F
:1004C000230E809180008F7707C0809180008F7D00
:1004D00003C080918000877F809380003AC084B5FC
:1004E0008F7702C084B58F7D84BD33C08091B0000A
:1004F0008F7703C08091B0008F7D8093B00029C0BA
:10050000809190008F7707C0809190008F7D03C00D
:1005100080919000877F809390001BC08091A00005
:100520008F7707C08091A0008F7D03C08091A000CD
:10053000877F8093A0000DC0809120018F7707C036
:10054000809120018F7D03C080912001877F80935F
:100550002001E92FF0E0EE0FFF1FE25BFE4FA591B7
:10056000B4918FB7F894EC91311103C020952E23EC
:1005700001C02E2B2C938FBF08953FB7F894809124
:100580000D0390910E03A0910F03B091100326B5B7
:10059000A89B05C02F3F19F00196A11DB11D3FBFBB
:1005A000BA2FA92F982F8827820F911DA11DB11D49
:1005B000BC01CD0142E0660F771F881F991F4A9545
:1005C000D1F70895089521E001C0220F6A95EAF756
:1005D000DC011C962C931C971A965C934E931997EA
:1005E000ED91FC910484F585E02D60E01994DC0127
:1005F000ED91FC910684F785E02D41E0199581E0AD
:1006000090E008950895089585ED8093BC00809151
:10061000BC0084FDFCCF1092460308954091E10296
:10062000262F30E0240F311D21323105DCF42091DA
:1006300046032430C9F4FC0180E090E0861758F4AA
:100640003091E1022191DC01A154BD4FA30FB11DF6
:100650002C930196F3CF8091E102680F6093E10241
:1006600080E0089581E0089582E00895089581E092
:1006700090E03091070320910603321710F480E0D8
:1006800090E091958195910908958091070390914B
:100690000603891730F48F5F8093070380E090E0B2
:1006A00008958FEF9FEF08958091060390E02091C9
:1006B0000703821B91090895CF92DF92EF92FF9278
:1006C0000F931F93CF93DF937C01262F972F8A01DF
:1006D00080914703882391F0C62FD72F6E01C40E57
:1006E000D51ECC15DD0569F06991D701ED91FC911E
:1006F0000190F081E02DC7011995F3CF642F822F6F
:100700008DDFC801DF91CF911F910F91FF90EF9086
:10071000DF90CF900895CF93DF931F92CDB7DEB7D0
:100720006983209147032223D1F020916A0320326C
:1007300040F021E030E0FC013383228380E090E050
:1007400014C080914803E82FF0E0E75BFC4F9981EB
:1007500090838F5F8093480380936A0304C061E0B5
:10076000CE0101965BDF81E090E00F90DF91CF91A9
:100770000895089580E090E00895F89489B18C7010
:100780008093BE028091BE028C3021F48091BD0224
:10079000811109C08091BE02843019F481E08093F8
:1007A000BA02789408958091BB029091BC0201979F
:1007B0009093BC028093BB021092BA021092BD02C9
:1007C000F0CFF89489B18C708093BE028091BE0204
:1007D0008C3021F48091BA02811109C08091BE024F
:1007E000883019F481E08093BD0278940895809157
:1007F000BB029091BC0201969093BC028093BB0215
:100800001092BA021092BD02F0CF0E942B0EFC0192
:1008100023812223A9F091819095692360838281AD
:1008200091E09093470380936903109248031092DC
:100830006A0380E594E06FDF37D5282F30E002C0EF
:1008400020E030E081E090E0232B11F080E090E0A8
:100850000895EF92FF920F931F93CF938C01FC01A9
:10086000759684E0C0E060FF02C09081C92B669558
:10087000815031968111F7CF413011F4F80144894C
:10088000F8018585C82BC42B7801FEE0EF0EF11C22
:10089000F80162896C2BC701BADFF80162896095A3
:1008A0006C23C701CF911F910F91FF90EF90AFCFB5
:1008B0000F931F93CF93DF93062F0F70423019F4DD
:1008C00040E0602F0FC0142F262FEC0130E0B9015B
:1008D00084E0759567958A95E1F7CE01BADF412FDF
:1008E000602FCE01DF91CF911F910F91B2CFFC010C
:1008F00084858823A1F0218532852115310519F4DD
:10090000611106C007C02130310521F4611102C018
:10091000858701C015866585CF010E9678CF08952D
:100920001F920F920FB60F9211240BB60F922F93B6
:100930003F934F935F936F937F938F939F93AF9367
:10094000BF93EF93FF938BE693E0DADCFF91EF9197
:10095000BF91AF919F918F917F916F915F914F91D7
:100960003F912F910F900BBE0F900FBE0F901F90D5
:1009700018951F920F920FB60F9211240BB60F927B
:100980002F938F939F93EF93FF93E0917B03F091CD
:100990007C038081E0918103F091820382FD12C08B
:1009A0009081809184038F5F8F73209185038217DC
:1009B00051F0E0918403F0E0E559FC4F958F80936E
:1009C000840301C08081FF91EF919F918F912F91BE
:1009D0000F900BBE0F900FBE0F901F9018958F9227
:1009E0009F92AF92BF92CF92DF92EF92FF926B01F4
:1009F0007C01C3DD4B015C01C114D104E104F104AD
:100A0000E9F0BBDDDC01CB0188199909AA09BB0912
:100A1000883E9340A105B10578F321E0C21AD108C0
:100A2000E108F10888EE880E83E0981EA11CB11C35
:100A3000C114D104E104F10421F7DECFFF90EF905F
:100A4000DF90CF90BF90AF909F908F9008952FB779
:100A5000F8946091090370910A0380910B039091BF
:100A60000C032FBF08950F931F93F894F0DF0091AC
:100A70001103109112032091130330911403AB0161
:100A8000BC01401B510B620B730B8091150390E06E
:100A9000A0E0B0E0481759076A077B07D0F0D7DF1E
:100AA00060931103709312038093130390931403C4
:100AB00080911703811104C081E08093170302C065
:100AC0001092170380911603811103C081E0809377
:100AD000160378941F910F9108951F920F920FB6ED
:100AE0000F9211242F933F938F939F93AF93BF93B4
:100AF0008091090390910A03A0910B03B0910C031C
:100B00003091080323E0230F2D3720F40196A11D17
:100B1000B11D05C026E8230F0296A11DB11D20932B
:100B200008038093090390930A03A0930B03B093E7
:100B30000C0380910D0390910E03A0910F03B091CF
:100B400010030196A11DB11D80930D0390930E0318
:100B5000A0930F03B0931003BF91AF919F918F911A
:100B60003F912F910F900FBE0F901F9018951F92DD
:100B70000F920FB60F9211240BB60F922F933F9343
:100B80004F935F936F937F938F939F93AF93BF9395
:100B9000EF93FF93E0910E02F0910F021995FF91F0
:100BA000EF91BF91AF919F918F917F916F915F91E5
:100BB0004F913F912F910F900BBE0F900FBE0F9052
:100BC0001F9018951F920F920FB60F9211240BB61B
:100BD0000F922F933F934F935F936F937F938F93D6
:100BE0009F93AF93BF93EF93FF93E0910C02F0912B
:100BF0000D021995FF91EF91BF91AF919F918F9148
:100C00007F916F915F914F913F912F910F900BBE0C
:100C10000F900FBE0F901F9018951F920F920FB656
:100C20000F9211240BB60F922F933F934F935F9324
:100C30006F937F938F939F93AF93BF93EF93FF93A4
:100C4000E0910202F09103021995FF91EF91BF919B
:100C5000AF919F918F917F916F915F914F913F9154
:100C60002F910F900BBE0F900FBE0F901F901895F5
:100C70001F920F920FB60F9211240BB60F922F9363
:100C80003F934F935F936F937F938F939F93AF9314
:100C9000BF93EF93FF93E0910002F0910102199549
:100CA000FF91EF91BF91AF919F918F917F916F9144
:100CB0005F914F913F912F910F900BBE0F900FBE00
:100CC0000F901F9018951F920F920FB60F9211243C
:100CD0000BB60F922F933F934F935F936F937F9336
:100CE0008F939F93AF93BF93EF93FF93E0910A028B
:100CF000F0910B021995FF91EF91BF91AF919F91E8
:100D00008F917F916F915F914F913F912F910F90B4
:100D10000BBE0F900FBE0F901F9018951F920F9251
:100D20000FB60F9211240BB60F922F933F934F9350
:100D30005F936F937F938F939F93AF93BF93EF9343
:100D4000FF93E0910802F09109021995FF91EF914C
:100D5000BF91AF919F918F917F916F915F914F91D3
:100D60003F912F910F900BBE0F900FBE0F901F90D1
:100D700018951F920F920FB60F9211240BB60F9277
:100D80002F933F934F935F936F937F938F939F9393
:100D9000AF93BF93EF93FF93E0910602F0910702A8
:100DA0001995FF91EF91BF91AF919F918F917F9195
:100DB0006F915F914F913F912F910F900BBE0F90CC
:100DC0000FBE0F901F9018951F920F920FB60F92A3
:100DD00011240BB60F922F933F934F935F936F9312
:100DE0007F938F939F93AF93BF93EF93FF93E09184
:100DF0000402F09105021995FF91EF91BF91AF9117
:100E00009F918F917F916F915F914F913F912F9122
:100E10000F900BBE0F900FBE0F901F901895DC0126
:100E2000ED91FC910684F785E02D40E019940F9335
:100E30001F93CF93DF93EC01423018F08C818860D0
:100E40008C834F836887222329F0413019F48C81E9
:100E500084608C8364E670E080E090E0C0DD6C81AB
:100E600064FD31C0E881F9810684F785E02D42E018
:100E700063E0CE0119958BE496E40197F1F7E881E0
:100E8000F9810684F785E02D42E063E0CE011995F3
:100E900003E512E0C8010197F1F7E881F9810684C2
:100EA000F785E02D42E063E0CE011995C801019776
:100EB000F1F7E881F9810684F785E02D42E062E0F0
:100EC000CE01199514C06062CE01A9DF8BE496E4CF
:100ED0000197F1F76C816062CE01A1DF03E512E0BA
:100EE000C8010197F1F76C816062CE0198DFC801FB
:100EF0000197F1F76C816062CE0191DF8BEE90E09B
:100F00000197F1F784E08D836CE0CE0188DF61E02A
:100F1000CE0185DF8BE39FE10197F1F782E08E83BD
:100F200066E0CE017CDFE881F9810484F585E02D5F
:100F30006FEFCE01DF91CF911F910F911994EF9236
:100F4000FF920F931F93CF93DF93EC01062FF42EA4
:100F5000E22E8B85888B1092070310920603109265
:100F6000480310926A031092460311E01093450360
:100F70001092200361E084E183DA61E085E180DAA8
:100F80008091B9008E7F8093B9008091B9008D7FE8
:100F90008093B90088E48093B80085E48093BC0016
:100FA0008889109347038093690310924803109235
:100FB0006A037AD191E0811190E0998B992321F015
:100FC00080E594E062DB8E878989882331F01F8673
:100FD0001C8260E0CE010E961ADC2E2D4F2D602F64
:100FE000CE01DF91CF911F910F91FF90EF901FCF16
:100FF0001F920F920FB60F9211240BB60F922F93E0
:101000003F934F935F936F937F938F939F93AF9390
:10101000BF93EF93FF938091B900887F803609F4E6
:101020009CC068F5883209F45BC090F4803109F403
:1010300054C038F4882309F4F6C0883009F44DC050
:10104000F5C0883109F44CC0803209F45DC0EEC0AF
:10105000803409F468C048F4803309F455C08833FB
:1010600009F0E4C080934403D8C0803509F44FC030
:10107000883509F45DC0883409F0D8C0D6C08839F5
:1010800009F4C7C0A8F4883709F467C038F4883673
:1010900009F463C0803709F460C0C8C0883809F417
:1010A000B8C0803909F45FC0803809F0BFC05BC0A8
:1010B000803B09F486C038F4803A09F466C0883A67
:1010C00009F47FC0B3C0803C09F4A7C0883C09F490
:1010D000A4C0883B09F48AC0A9C08091210310C034
:1010E0009091430380914203981770F5E091430378
:1010F00081E08E0F80934303F0E0EE5DFC4F808132
:101100008093BB0085EC86C0809344038EC0E09141
:10111000430381E08E0F809343038091BB00F0E096
:10112000EE5DFC4F808390914303809142036EC03B
:10113000E091430381E08E0F809343038091BB00D5
:10114000F0E0EE5DFC4F80838091450381116DC01E
:1011500081E08093200384EA61C083E080934603AA
:1011600010920503CFCF80910503803208F051C063
:10117000E091050381E08E0F809305038091BB0011
:10118000F0E0EB51FD4F8083BDCF85EC8093BC0038
:101190001092460380910503803230F4E0910503FC
:1011A000F0E0EB51FD4F10826091050370E0E0919B
:1011B000E302F091E40285EE92E0199510920503A6
:1011C00035C084E0809346031092E2021092E1025F
:1011D000E091DF02F091E00219958091E102811126
:1011E00005C081E08093E1021092BF02E091E2022B
:1011F00081E08E0F8093E202F0E0E154FD4F8081A8
:101200008093BB009091E2028091E102981708F46C
:1012100079CF85E88093BC0009C085EC8093BC0041
:101220001092460303C010924403EED9FF91EF9150
:10123000BF91AF919F918F917F916F915F914F91EE
:101240003F912F910F900BBE0F900FBE0F901F90EC
:101250001895CF92DF92EF92FF920F931F93CF9347
:10126000DF936C017A018B01C0E0D0E0CE15DF0581
:1012700089F0D8016D918D01D601ED91FC9101901D
:10128000F081E02DC6011995892B11F47E0102C071
:101290002196ECCFC701DF91CF911F910F91FF9065
:1012A000EF90DF90CF90089520916A0390916903A9
:1012B000213208F04AC0809146038111FCCF32E010
:1012C0003093460331E0309345033FEF30934403BE
:1012D0001092430320934203A9E4B3E042E253E0B7
:1012E000FA013E2F341B321718F43D913193F9CF98
:1012F0001092210320912103990F922B90932103A7
:1013000090912003913061F4109220039091210379
:101310009093BB009091BC0093FDF8CF95EC01C079
:1013200095EE9093BC00909146039230E1F390913A
:1013300044039F3F79F080914403803241F08091D3
:101340004403803331F084E005C081E003C082E0D3
:1013500001C083E01092480310926A031092470381
:101360000895CF93DF9390E0FC01E853FE4F249162
:10137000FC01EE57FE4F84918823C1F090E0880F66
:10138000991FFC01E859FE4FC591D491FC01E25B25
:10139000FE4FA591B4919FB7F8943881822F809524
:1013A00083238883EC91E22BEC939FBFDF91CF9155
:1013B00008958F929F92AF92BF92CF92DF92EF9259
:1013C000FF926B017C0143DB4B015C01C60ED71E13
:1013D000E81EF91E3CDB681579058A059B0528F097
:1013E000C616D706E806F906A8F7FF90EF90DF903B
:1013F000CF90BF90AF909F908F900895CF93DF9341
:10140000CDB7DEB728970FB6F894DEBF0FBECDBFBD
:101410001D8290E49E8324E12F8324E5288719828E
:101420009A8390E19B8390E59C8390916304691774
:1014300010F06FEF690F40916404262F30E0FE0139
:10144000E20FF31F403121F4943011F4918101C077
:101450009581682F690F60688CE594E028960FB637
:10146000F894DEBF0FBECDBFDF91CF91D8CC611510
:10147000710579F0FB0101900020E9F73197AF0188
:10148000461B570BDC01ED91FC910280F381E02DAE
:10149000199480E090E008954F925F926F927F924E
:1014A000EF92FF920F931F93CF93DF93CDB7DEB7E9
:1014B000A1970FB6F894DEBF0FBECDBF7C01FA0135
:1014C000CB0119A2223008F42AE08E010F5D1F4FD4
:1014D000422E512C612C712CBF01A301920191D39A
:1014E000F901CA01015011096A3014F4605D01C0AC
:1014F000695CD8016C93232B242B252B69F7B80149
:10150000C701B5DFA1960FB6F894DEBF0FBECDBF01
:10151000DF91CF911F910F91FF90EF907F906F908F
:101520005F904F900895A3CF789484B5826084BD76
:1015300084B5816084BD85B5826085BD85B58160D7
:1015400085BD80916E00816080936E001092810055
:101550008091810082608093810080918100816010
:1015600080938100809180008160809380008091D1
:10157000B10084608093B1008091B000816080935D
:10158000B0008091910082608093910080919100E1
:1015900081608093910080919000816080939000A1
:1015A0008091A10082608093A1008091A100816060
:1015B0008093A1008091A00081608093A000809121
:1015C00021018260809321018091210181608093BB
:1015D00021018091200181608093200180917A0017
:1015E000846080937A0080917A00826080937A0090
:1015F00080917A00816080937A0080917A0080687F
:1016000080937A001092C10010924C0410924D0405
:1016100010924E0410924F0410920A0410920B0480
:1016200010920C0410920D0468EB7BE080E090E0D7
:10163000C0DE8BE693E090934B0480934A04E091E4
:101640007B03F0917C03D2E0D083E0917703F091AB
:1016500078031082E0917903F0917A0380E180832E
:1016600010928303E0917F03F0918003C6E0C08372
:10167000E0917D03F0917E03808180618083E09121
:101680007D03F0917E03808188608083E0917D03FB
:10169000F0917E03808180688083E0917D03F091EA
:1016A0007E0380818F7D8083D2D960930A047093FA
:1016B0000B0480930C0490930D0468E472E0809115
:1016C0004A0490914B042FDF6AE070E080E090E0E4
:1016D00070DE81E080931E0483E143DE82E141DE1F
:1016E00082E03FDE8DEB93E0909309028093080245
:1016F00080916900806380936900EA9A81EE93E0AB
:1017000090930B0280930A0280916900806C809311
:101710006900EB9A83E395E09093010280930002C5
:1017200080916A00836080936A00EC9A84E68093DB
:1017300015038DD9609311037093120380931303E3
:101740009093140362E370E080E090E048D920E0D9
:1017500044E064E18CE594E0F2DBE0915C04F0911C
:101760005D040484F585E02D6FEF8CE594E0199518
:10177000E0917B03F0917C03D083E0917703F091BB
:1017800078031082E0917903F0917A038FEC8083E3
:1017900010928303E0917F03F0918003C083E09176
:1017A0007D03F0917E03808180618083E0917D03E1
:1017B000F0917E03808188608083E0917D03F091C9
:1017C0007E03808180688083E0917D03F0917E03B9
:1017D00080818F7D808384EF882E99249394A12C1F
:1017E000B12C35D9672B682B692B39F430D962308D
:1017F00071058105910508F4F8C029D960931C038F
:1018000070931D0380931E0390931F03C0901803D1
:10181000D0901903E0901A03F0901B036C157D051E
:101820008E059F0540F4609318037093190380930D
:101830001A0390931B03C0901803D0901903E090F3
:101840001A03F0901B039B01AC012C193D094E09B2
:101850005F0969017A013AEFC316D104E104F1048A
:1018600008F4C3C0609318037093190380931A039C
:1018700090931B038092160490921704A092180470
:10188000B092190410921A0410921B0410921C04B6
:1018900010921D0480910E0490910F04A0911004E9
:1018A000B09111048093120490931304A093140434
:1018B000B0931504CCD860930E0470930F048093FA
:1018C000100490931104C3D860930A0470930B041E
:1018D00080930C0490930D04BAD86B017C016AE5E7
:1018E00072E080914A0490914B041DDE2AE041E0B1
:1018F00050E060E070E080914A0490914B04CCDDB0
:1019000061E672E080914A0490914B040CDE2AE07B
:10191000B701A60180914A0490914B04BDDD6DE7AB
:1019200072E080914A0490914B04FDDD80910E0499
:1019300090910F04A0911004B0911104B701A60179
:10194000481B590B6A0B7B0B2AE080914A0490914B
:101950004B04A2DD6DE772E080914A0490914B0444
:10196000E2DD40910E0450910F04609110047091DB
:1019700011048091120490911304A0911404B09169
:101980001504481B590B6A0B7B0B2AE080914A0413
:1019900090914B0481DD65E672E080914A0490915C
:1019A0004B04C1DD54D8AB01BC012AE080914A044C
:1019B00090914B0471DDE0904A04F0904B0467E68F
:1019C00072E0C70154DD67E572E0C70150DD65E0F4
:1019D00070E080E090E0EDDC3AD860930E04709304
:1019E0000F0480931004909311048091170360E01A
:1019F000811120C081E002DD6EE672E08CE594E0AA
:101A000092DD62E085E0FADC6FE772E08CE594E05D
:101A10008ADD62E088E0F2DC2AE044E650E060E043
:101A200070E08CE594E038DD62E08DE0E7DC61E8B1
:101A300072E04AC080E0E2DC63E872E08CE594E0AA
:101A400072DD62E081E0DADC67E972E08CE594E067
:101A50006ADD63E081E0D2DC2AE044E650E060E049
:101A600070E08CE594E018DDE0915C04F0915D0499
:101A70000190F081E02D6FED8CE594E019956DE912
:101A800072E08CE594E04FDD62E08CE0B7DC6FE95A
:101A900072E08CE594E047DD63E08CE0AFDC2AE0A7
:101AA00044E650E060E070E08CE594E0F5DCE09125
:101AB0005C04F0915D040190F081E02D6FED8CE508
:101AC00094E019956DE972E08CE594E02CDD80914D
:101AD0001603882311F160E080E090DC64EA72E094
:101AE0008CE594E020DD61E080E088DC64EA72E06F
:101AF0008CE594E018DD62E080E080DC64EA72E06E
:101B00008CE594E010DD63E080E078DC64EA72E06C
:101B10008CE594E008DD109216030E94080261CE65
:101B2000EBE6F3E01382128288EE93E0A0E0B0E0EF
:101B300084839583A683B78324E132E031832083B5
:101B400025EC30E03587248724EC30E03787268782
:101B500020EC30E0318B208B21EC30E0338B228B7A
:101B600022EC30E0358B248B26EC30E0378B268B53
:101B7000118E128E138E148EE8E0F4E01682178216
:101B80001086118612861386148615861686178689
:101B9000108A118A128A138A148A158AE0E5F4E001
:101BA0001382128284839583A683B78386E292E0B0
:101BB00091838083ECE5F4E01382128288E392E063
:101BC00091838083108A8FEF87871686118A87E238
:101BD0008387148615861286118684E0828B82E0C4
:101BE000838B81E0848B80E1858B80E2868B80E42F
:101BF000878B80E8808F40E050E063E0CF010C9459
:101C0000E302A1E21A2EAA1BBB1BFD010DC0AA1FF5
:101C1000BB1FEE1FFF1FA217B307E407F50720F055
:101C2000A21BB30BE40BF50B661F771F881F991FD0
:101C30001A9469F760957095809590959B01AC0119
:101C4000BD01CF010895EE0FFF1F881F8BBF0790C6
:101C5000F691E02D199481E090E0F89400C0F8949A
:021C6000FFCFB4
:101C6200E202E202E202E202E202E202E202E20252
:101C720000000000A10129093A01E7016B014901B5
:101C82005D01000000008B035C03BA0336035403BA
:101C92004503370300000000F7022909BA03B9031C
:101CA2009F07E30277045804564D4450565F317C37
:101CB200315F564D4450560D0A00564D4450455F13
:101CC200003A323A007C005F564D445045005A6952
:101CD200656C74656D70657261747572203A003E50
:101CE200003C004865697A766F7267616E672061B1
:101CF2006B746976202100536F6C6C3A0043004983
:101D020073743A0020202020202020202020202030
:0A1D120020202020202020200000C7
:020000023000CC
:10E000000D9489F10D94B2F10D94B2F10D94B2F129
:10E010000D94B2F10D94B2F10D94B2F10D94B2F1F0
:10E020000D94B2F10D94B2F10D94B2F10D94B2F1E0
:10E030000D94B2F10D94B2F10D94B2F10D94B2F1D0
:10E040000D94B2F10D94B2F10D94B2F10D94B2F1C0
:10E050000D94B2F10D94B2F10D94B2F10D94B2F1B0
:10E060000D94B2F10D94B2F10D94B2F10D94B2F1A0
:10E070000D94B2F10D94B2F10D94B2F10D94B2F190
:10E080000D94B2F10D94B2F10D94B2F10D94B2F180
:10E090000D94B2F10D94B2F10D94B2F10D94B2F170
:10E0A0000D94B2F10D94B2F10D94B2F10D94B2F160
:10E0B0000D94B2F10D94B2F10D94B2F10D94B2F150
:10E0C0000D94B2F10D94B2F10D94B2F10D94B2F140
:10E0D0000D94B2F10D94B2F10D94B2F10D94B2F130
:10E0E0000D94B2F141546D656761323536300041AF
:10E0F000726475696E6F206578706C6F72657220DE
:10E1000073746B3530305632206279204D4C530099
:10E11000426F6F746C6F616465723E004875683F52
:10E1200000436F6D70696C6564206F6E203D200048
:10E130004350552054797065202020203D20005FF9
:10E140005F4156525F415243485F5F3D2000415658
:10E1500052204C696243205665723D20004743437C
:10E160002056657273696F6E203D20004350552024
:10E1700049442020202020203D20004C6F7720663D
:10E18000757365202020203D20004869676820665F
:10E190007573652020203D200045787420667573D6
:10E1A00065202020203D20004C6F636B2066757336
:10E1B000652020203D20004D617220203720323024
:10E1C000313300312E362E3800342E332E350056A2
:10E1D00023202020414444522020206F7020636F70
:10E1E00064652020202020696E73747275637469E1
:10E1F0006F6E2061646472202020496E74657272B3
:10E20000757074006E6F20766563746F7200726A49
:10E210006D702020006A6D70200057686174207056
:10E220006F72743A00506F7274206E6F7420737541
:10E2300070706F72746564004D7573742062652030
:10E2400061206C6574746572002000577269747483
:10E25000696E672045450052656164696E672045B7
:10E26000450045452065727220636E743D00504F35
:10E27000525400303D5A65726F2061646472003FF1
:10E280003D43505520737461747300403D454550C3
:10E29000524F4D207465737400423D426C696E6B41
:10E2A000204C454400453D44756D70204545505215
:10E2B0004F4D00463D44756D7020464C415348001B
:10E2C000483D48656C70004C3D4C69737420492F83
:10E2D0004F20506F72747300513D51756974005234
:10E2E0003D44756D702052414D00563D73686F7707
:10E2F00020696E7465727275707420566563746FF0
:10E30000727300593D506F727420626C696E6B00BD
:10E310002A0011241FBECFEFD1E2DEBFCDBF01E046
:10E320000CBF12E0A0E0B2E0EEE1FDEF03E00BBFB6
:10E3300002C007900D92A030B107D9F712E0A0E01B
:10E34000B2E001C01D92AE30B107E1F70F9460F367
:10E350000D948DFE01E20EBF0FEF0DBF11241FBE05
:10E360000D9460F30D9400F020E030E040ED57E0B4
:10E3700005C0FA013197F1F72F5F3F4F2817390792
:10E38000C0F308959C01260F311DC901A0E0B0E043
:10E390002F5F3F4FABBFFC018791882361F08093D3
:10E3A000C6008091C00086FFFCCF8091C0008064D1
:10E3B0008093C000EACF08958DE08093C6008091DD
:10E3C000C00086FFFCCF8091C00080648093C000B5
:10E3D0008AE08093C6008091C00086FFFCCF8091C8
:10E3E000C00080648093C00008950F94C2F10F9420
:10E3F000DCF10895FC019081992359F09093C600B7
:10E400008091C00086FFFCCF8091C0008064809323
:10E41000C0003196992379F70895282F982F929567
:10E420009F70892F805D8A3308F0895F8093C600D2
:10E430008091C00086FFFCCF8091C00080648093F3
:10E44000C000822F8F70982F905D9A3308F0995FEB
:10E450009093C6008091C00086FFFCCF8091C000E1
:10E4600080648093C00008959C01FB01853691056E
:10E470001CF46330710594F0C90164E670E00F94F8
:10E480002EFE605D7F4F6093C6008091C00086FFC6
:10E49000FCCF8091C00080648093C0002B30310598
:10E4A00014F43297B4F0C90164E670E00F942EFEC4
:10E4B0006AE070E00F942EFE605D7F4F6093C600AF
:10E4C0008091C00086FFFCCF8091C0008064809363
:10E4D000C000C9016AE070E00F942EFEC0968093E0
:10E4E000C6008091C00086FFFCCF8091C000806490
:10E4F0008093C00008951F93182F8EE692EE60E07F
:10E500000F94C2F11093C6008091C00086FFFCCF2B
:10E510008091C00080648093C0000F94DCF11F9153
:10E5200008952F923F924F925F926F927F928F92B7
:10E530009F92AF92BF92CF92DF92EF92FF920F9392
:10E540001F93DF93CF93CDB7DEB762970FB6F894E2
:10E55000DEBF0FBECDBF382E622ECA01DB015C01CB
:10E560006D01772420E2222E2E010894411C511CBB
:10E570008BC081E0A81680E0B80681E0C80680E084
:10E58000D80628F0C601AA27BB270F940DF2BB2797
:10E59000AD2D9C2D8B2D0F940DF28A2D0F940DF225
:10E5A0002092C6008091C00086FFFCCF8091C00001
:10E5B00080648093C0009DE29093C6008091C0006B
:10E5C00086FFFCCF8091C00080648093C0002092C1
:10E5D000C6008091C00086FFFCCF8091C00080649F
:10E5E0008093C00019828601750188249924A1E0D6
:10E5F0003A1651F03A1620F0B2E03B1661F409C029
:10E600000BBFF701779007C0C7010F9477FE782EF4
:10E6100002C0F7017080872D0F940DF22092C60082
:10E620008091C00086FFFCCF8091C0008064809301
:10E63000C000872D8052F401EF70F0708F3520F408
:10E64000E40DF51D708204C0E40DF51D8EE280839B
:10E650000894E11CF11C011D111D0894811C911CE2
:10E6600090E18916910409F0C2CF80E190E0A0E02A
:10E67000B0E0A80EB91ECA1EDB1E198AC2010F9493
:10E68000FAF10F94DCF16A94662009F072CF629679
:10E690000FB6F894DEBF0FBECDBFCF91DF911F91B3
:10E6A0000F91FF90EF90DF90CF90BF90AF909F9031
:10E6B0008F907F906F905F904F903F902F90089534
:10E6C0002F923F924F925F926F927F928F929F9282
:10E6D000AF92BF92CF92DF92EF92FF920F931F9370
:10E6E000DF93CF93CDB7DEB7CD53D1400FB6F894BB
:10E6F000DEBF0FBECDBF01E20EBF0FEF0DBF94B75F
:10E70000F894A89514BE80916000886180936000A1
:10E7100010926000789493FF05C0E0910002F091A0
:10E7200001021995279A2F9A8091C00082608093E8
:10E73000C00080E18093C40088E18093C1000000A4
:10E74000EE24FF24870144E0A42EB12CCC24DD2448
:10E7500024C0C5010197F1F70894E11CF11C011DCB
:10E76000111D21E2E2162EE4F20620E0020720E06D
:10E77000120718F031E0C32ED12CC801B70127ECE5
:10E780003BE140E050E00F9441FE611571058105C9
:10E79000910519F485B1805885B98091C00087FD35
:10E7A00003C0C114D104A9F2A6014F5F5F4FC25E3E
:10E7B000DE4F59834883CE51D140C25EDE4F8881FF
:10E7C0009981CE51D140019711F00D9410FEC05D9A
:10E7D000DE4F19821882C053D14060E0C15DDE4F28
:10E7E0001882CF52D14088249924C35DDE4F19820C
:10E7F0001882CD52D140C05EDE4F188219821A8233
:10E800001B82C052D140CE5CDE4F188219821A8220
:10E810001B82C253D140EE24FF2487010BBFF701B6
:10E8200007911691C45CDE4F19830883CC53D14005
:10E830000D940BFEC25EDE4F28813981CE51D1404E
:10E840002130310509F52091C600C25EDE4F1982E4
:10E850001882CE51D14022C02F5F3F4F4F4F5F4FA4
:10E86000213082E138078AE7480780E0580780F0C6
:10E87000C45CDE4FE881F981CC53D140EF5FFF4F9C
:10E8800019F0EE27FF27099420E030E040E050E047
:10E890008091C00087FFE0CF2091C600C35DDE4FAE
:10E8A00048815981CD52D1404F5F5F4FC35DDE4FEC
:10E8B00059834883CD52D140213209F063C64A3092
:10E8C000510508F05FC60894811C911C53E0851621
:10E8D000910409F059C600E010E018C081E280936D
:10E8E000C6008091C00086FFFCCF8091C00080648C
:10E8F0008093C0002F5F3F4F2931310579F70F9486
:10E90000DCF10F5F1F4F0530110519F020E030E0FA
:10E91000E5CF10920A0210920B0210920C02109294
:10E920000D02109206021092070210920802109235
:10E930000902109202021092030210920402109235
:10E9400005028FEE90EE60E00F94F5F180E191EE1C
:10E9500060E00F94C2F18091C00087FFFCCF9091DE
:10E96000C600903608F09F759032B8F09093C600BC
:10E970008091C00086FFFCCF8091C00080648093AE
:10E98000C000A0E2A093C6008091C00086FFFCCF2B
:10E990008091C00080648093C000983409F4D7C18E
:10E9A0009934B8F4923409F459C1933458F490333B
:10E9B00019F1903308F4E3C59F33A1F1903409F0C5
:10E9C000DEC5BDC0953409F470C1963409F0D7C5D1
:10E9D00098C1923509F42BC2933538F49C3409F46C
:10E9E000F5C1913509F0CBC518C2963509F445C279
:10E9F000993509F0C4C567C483E792EE62E00F94CD
:10EA0000F5F110920602109207021092080210927D
:10EA1000090210920A0210920B0210920C0210923C
:10EA20000D0213C18FE792EE62E00F94F5F18FEEC5
:10EA300090EE60E00F94F5F181E291EE60E00F94CA
:10EA4000C2F187EB91EE60E00F94F5F180E391EE77
:10EA500060E00F94C2F184EE90EE60E00F94F5F167
:10EA60008FE391EE60E00F94C2F186E090E061E008
:10EA700070E00F9434F20F94DCF18DE591EE60E0DC
:10EA80000F94C2F189EC91EE60E00F94F5F18EE401
:10EA900091EE60E00F94C2F183EC91EE60E00F9490
:10EAA000F5F18CE691EE60E00F94C2F18EE10F94E7
:10EAB0000DF288E90F940DF281E00F940DF20F949E
:10EAC000DCF18BE791EE60E00F94C2F119E0E0E039
:10EAD000F0E010935700E4918E2F0F940DF20F94F5
:10EAE000DCF18AE891EE60E00F94C2F1E3E0F0E03F
:10EAF00010935700E4918E2F0F940DF20F94DCF1D8
:10EB000089E991EE60E00F94C2F1E2E0F0E0109349
:10EB10005700E4918E2F0F940DF20F94DCF188EAE8
:10EB200091EE60E00F94C2F1E1E0F0E01093570045
:10EB30001491812F0F940DF20F94DCF107CF8BE825
:10EB400092EE62E00F94F5F18BE492EE60E00F94A8
:10EB5000F5F10F94DCF100E010E019C0C8016F2D51
:10EB60000F947FFEFF2031F489E492EE60E00F9471
:10EB7000C2F10BC0F092C6008091C00086FFFCCFAE
:10EB80008091C00080648093C0000F5F1F4FC80158
:10EB900081519F41A0E0B0E0ABBFFC01F790BAE229
:10EBA000FB1621F0E2E000301E07C1F60F94DCF105
:10EBB0000F94DCF187E592EE60E00F94F5F10F948D
:10EBC000DCF1CC24DD2400E010E01EC0C8010F946D
:10EBD00077FEF82E882331F489E492EE60E00F94FA
:10EBE000C2F10BC08093C6008091C00086FFFCCFAD
:10EBF0008091C00080648093C000FE1419F00894D6
:10EC0000C11CD11C0F5F1F4FC80181519F41A0E063
:10EC1000B0E0ABBFFC01E790FAE2EF1621F022E092
:10EC20000030120799F60F94DCF10F94DCF182E6C4
:10EC300092EE60E00F94C2F1C60161E070E00F94C3
:10EC400034F20F94DCF10F94DCF110920202109276
:10EC50000302109204021092050278CE89E992EE26
:10EC600062E00F94F5F1279A2F9A16C02F9880E052
:10EC700090E0E0EDF7E03197F1F7019684369105E9
:10EC8000C1F72F9A80E090E0E0EDF7E03197F1F7DF
:10EC9000019684369105C1F78091C00087FFE6CFC9
:10ECA0008091C00087FFFCCF64C485EA92EE62E0E9
:10ECB0000F94F5F140910202509103026091040219
:10ECC0007091050281E020E10F9491F2809102029F
:10ECD00090910302A0910402B091050280509F4FD1
:10ECE000AF4FBF4F8093020290930302A0930402A0
:10ECF000B093050280509041A040B04008F426CE69
:10ED0000A4CF83EB92EE62E00F94F5F140910602FE
:10ED100050910702609108027091090280E020E1A1
:10ED20000F9491F28091060290910702A09108023F
:10ED3000B091090280509F4FAF4FBF4F80930602A2
:10ED400090930702A0930802B0930902FFCD80ECD4
:10ED500092EE62E00F94F5F183E792EE60E00F949B
:10ED6000F5F18FE792EE60E00F94F5F18BE892EE0B
:10ED700060E00F94F5F189E992EE60E00F94F5F10F
:10ED800085EA92EE60E00F94F5F183EB92EE60E09D
:10ED90000F94F5F180EC92EE60E00F94F5F187ECC2
:10EDA00092EE60E00F94F5F188ED92EE60E00F9442
:10EDB000F5F18FED92EE60E00F94F5F18AEE92EEB0
:10EDC00060E00F94F5F183E093EEBDCD87EC92EE19
:10EDD00062E00F94F5F181E40F947BF282E40F94EA
:10EDE0007BF283E40F947BF284E40F947BF285E45E
:10EDF0000F947BF286E40F947BF287E40F947BF20E
:10EE000088E40F947BF28AE40F947BF28BE40F94F6
:10EE10007BF28CE40F947BF299CD88ED92EE62E068
:10EE20000F94F5F1772473948824992409C48FED05
:10EE300092EE62E00F94F5F140910A0250910B02BC
:10EE400060910C0270910D0282E020E10F9491F22A
:10EE500080910A0290910B02A0910C02B0910D02D8
:10EE600080509F4FAF4FBF4F80930A0290930B0289
:10EE7000A0930C02B0930D0269CD8AEE92EE62E08F
:10EE80000F94F5F184EE90EE60E00F94F5F18FECC5
:10EE900091EE60E00F94F5F1662477244301CC5D98
:10EEA000DE4F19821882C452D140D401C301B695F5
:10EEB000A79597958795CA5DDE4F88839983AA8326
:10EEC000BB83C652D140CC5DDE4FA881B981C4520C
:10EED000D1401196CC5DDE4FB983A883C452D14096
:10EEE000CD0162E070E00F9434F2B0E2B093C6005E
:10EEF0008091C00086FFFCCF8091C0008064809329
:10EF0000C000EDE2E093C6008091C00086FFFCCF18
:10EF10008091C00080648093C000F0E2F093C6004E
:10EF20008091C00086FFFCCF8091C00080648093F8
:10EF3000C000CA5DDE4FE880F9800A811B81C6529D
:10EF4000D140BB27A12F902F8F2D0F940DF2CA5DBA
:10EF5000DE4F8881C652D1400F940DF2B0E2FB2EF5
:10EF6000F092C6008091C00086FFFCCF8091C00067
:10EF700080648093C0000DE30093C6008091C000C0
:10EF800086FFFCCF8091C00080648093C00010E2B7
:10EF90001093C6008091C00086FFFCCF8091C00016
:10EFA00080648093C0008BBEF3012791C65DDE4F65
:10EFB0002883CA52D140A22EBB24CC24DD2408943D
:10EFC000611C711C811C911C8BBEF3018791282E42
:10EFD0003324442455240894611C711C811C911C09
:10EFE0008BBEF3013791C55DDE4F3883CB52D140E4
:10EFF0000894611C711C811C911C8BBEF30147910C
:10F00000C45DDE4F4883CC52D140ADEFEA2EAFEF66
:10F01000FA2EAFEF0A2FAFEF1A2F6E0C7F1C801E57
:10F02000911E142D032DF22CEE24EA0CFB1C0C1D5A
:10F030001D1D0F940DF220E22093C6008091C000A8
:10F0400086FFFCCF8091C00080648093C000C65DC5
:10F05000DE4F8881CA52D1400F940DF230E23093D6
:10F06000C6008091C00086FFFCCF8091C000806404
:10F070008093C000C45DDE4F8881CC52D1400F9494
:10F080000DF240E24093C6008091C00086FFFCCFA5
:10F090008091C00080648093C000C55DDE4F888190
:10F0A000CB52D1400F940DF250E25093C6008091A4
:10F0B000C00086FFFCCF8091C00080648093C000B8
:10F0C0008FEFE8168FEFF80680E0080780E018075A
:10F0D00031F484E092EE60E00F94C2F1DFC0D80119
:10F0E000C7018070907CA070B0708050904CA040A0
:10F0F000B040D1F52FEF3FE340E050E0E222F322B1
:10F1000004231523CA5DDE4FA880B980CA80DB8046
:10F11000C652D140AE0CBF1CC01ED11EAA0CBB1CD7
:10F12000CC1CDD1C8EE092EE60E00F94C2F1BB2798
:10F13000A12F902F8F2D0F940DF28E2D0F940DF285
:10F1400030E23093C6008091C00086FFFCCF8091F2
:10F15000C00080648093C0004EE34093C60080915D
:10F16000C00086FFFCCF87C08EE09EEFA0E0B0E03D
:10F17000E822F9220A231B239CE0E91694E9F90608
:10F1800090E0090790E0190709F088C0C45DDE4FE0
:10F19000A881CC52D140EA2EFF2400E010E0102FCD
:10F1A0000F2DFE2CEE24C55DDE4FB881CB52D14031
:10F1B000EB0EF11C011D111DD601C501817090706F
:10F1C000A070B070DC0199278827E80EF91E0A1F8D
:10F1D0001B1F20EF30E040E050E0A222B322C42207
:10F1E000D52241E1AA0CBB1CCC1CDD1C4A95D1F7F1
:10F1F000EA0CFB1C0C1D1D1D81E090E0A0E0B0E0BE
:10F20000282239224A225B2235E1220C331C441C7D
:10F21000551C3A95D1F7E20CF31C041D151D57013E
:10F220006801AA0CBB1CCC1CDD1C85E192EE60E0E1
:10F230000F94C2F1C801AA27BB270F940DF2BB2778
:10F24000A12F902F8F2D0F940DF28E2D0F940DF274
:10F2500090E29093C6008091C00086FFFCCF809121
:10F26000C00080648093C000AEE3A093C60080918C
:10F27000C00086FFFCCF8091C00080648093C000F6
:10F28000C601AA27BB270F940DF2BB27AD2D9C2DDD
:10F290008B2D0F940DF28A2D0F940DF20F94DCF14B
:10F2A000CC5DDE4FE881F981C452D140F99709F471
:10F2B0004DCBF4E0EF2EF12C012D112D6E0C7F1CA7
:10F2C000801E911EF2CD83E093EE62E00F94F5F183
:10F2D0008AE192EE60E00F94C2F18091C00087FF56
:10F2E000FCCF1091C6001F751093C6008091C0001E
:10F2F00086FFFCCF8091C00080648093C0000F9493
:10F30000DCF1812F81548A3108F036C1163409F4BA
:10F3100095C0173490F4133409F44EC0143430F40B
:10F320001134F1F0123409F01DC130C0143409F465
:10F3300059C0153409F016C16BC01A3409F4C4C0A1
:10F340001B3438F4173409F48FC0183409F00AC19B
:10F35000A1C01B3409F4D2C01C3409F003C1E8C0B9
:10F360008FEF81B90DC082B1809582B980E090E0C5
:10F37000E0EDF7E03197F1F70196883C9105C1F790
:10F380008091C00087FFEFCF12B8EFC08FEF84B934
:10F390000DC085B1809585B980E090E0E0EDF7E0A3
:10F3A0003197F1F70196883C9105C1F78091C00033
:10F3B00087FFEFCF15B8D9C08FEF87B90DC088B1DF
:10F3C000809588B980E090E0E0EDF7E03197F1F7C3
:10F3D0000196883C9105C1F78091C00087FFEFCF6F
:10F3E00018B8C3C08FEF8AB90DC08BB180958BB9A7
:10F3F00080E090E0E0EDF7E03197F1F70196883C8E
:10F400009105C1F78091C00087FFEFCF1BB8ADC059
:10F410008FEF8DB90DC08EB180958EB980E090E0F0
:10F42000E0EDF7E03197F1F70196883C9105C1F7DF
:10F430008091C00087FFEFCF1EB897C08FEF80BBD1
:10F440000DC081B3809581BB80E090E0E0EDF7E0F6
:10F450003197F1F70196883C9105C1F78091C00082
:10F4600087FFEFCF11BA81C08FEF83BB0DC084B38C
:10F47000809584BB80E090E0E0EDF7E03197F1F714
:10F480000196883C9105C1F78091C00087FFEFCFBE
:10F4900014BA6BC08FEF809301010FC080910201FD
:10F4A00080958093020180E090E0E0EDF7E03197F5
:10F4B000F1F70196883C9105C1F78091C00087FF64
:10F4C000EDCF1092020151C08FEF809304010FC065
:10F4D0008091050180958093050180E090E0E0ED4A
:10F4E000F7E03197F1F70196883C9105C1F78091DB
:10F4F000C00087FFEDCF1092050137C08FEF8093DA
:10F5000007010FC08091080180958093080180E079
:10F5100090E0E0EDF7E03197F1F70196883C910536
:10F52000C1F78091C00087FFEDCF109208011DC088
:10F530008FEF80930A010FC080910B01809580931B
:10F540000B0180E090E0E0EDF7E03197F1F70196F4
:10F55000883C9105C1F78091C00087FFEDCF1092E4
:10F560000B0103C085E292EEEEC98091C00087FFD7
:10F57000FCCF8091C600EAC988E392EEE4C98CE131
:10F5800091EEE1C988249924933011F1943028F444
:10F59000913089F09230B8F408C0953061F195301F
:10F5A000F0F0963009F048C043C02B3109F042C951
:10F5B00091E06BE13FC96227C15DDE4F2883CF52E6
:10F5C000D14092E037C9B22FA0E0622793E032C960
:10F5D000822F90E0A82BB92B622794E02BC92E3004
:10F5E00009F039C3622795E0C05DDE4F19821882A9
:10F5F000C053D1401FC9E1E0F0E0EC0FFD1FC05D3A
:10F60000DE4F08811981C053D140E00FF11F2083E4
:10F610000F5F1F4FC05DDE4F19830883C053D14079
:10F6200062270A171B0709F005C9D80196E002C92D
:10F63000261709F010C303C0973009F0FBC87724E0
:10F640009981933109F412C19431C8F4963009F4C8
:10F65000D8C0973050F4923009F406C1933009F4C1
:10F660006DC0913009F059C253C0913109F477C08F
:10F67000923108F0BBC0903109F04FC2F5C098310B
:10F6800009F487C0993150F4953109F4EFC09531F0
:10F6900008F4C6C1963109F040C2C2C19A3109F4DA
:10F6A0006CC09A3108F491C09B3109F45BC09D3164
:10F6B00009F033C29D81903359F48F81882311F46E
:10F6C0009EE11CC0813011F091E018C098E916C08D
:10F6D000892F807591F0903539F4E0E0F0E089E011
:10F6E0008093570094910AC0983539F4E3E0F0E034
:10F6F00089E080935700949101C090E01A821B82A8
:10F700008D818C831D829E831F8227E030E009C299
:10F710001A8288E08B8381E48C8386E58D8382E581
:10F720008E8389E48F8383E5888780E589878FE5E9
:10F730008A8782E38B872BE030E0F3C18A818139AD
:10F7400041F0823941F0803911F48FE005C080E04A
:10F7500003C082E001C08AE01A828B8344C0772410
:10F76000739482C08D81882311F48EE12CC0813086
:10F7700011F081E028C088E926C01A82E1E0F0E0BB
:10F7800089E08093570084918B831C8224E030E0D1
:10F79000C8C18B81803589F48C81883039F4E2E0EE
:10F7A000F0E089E08093570084910DC0E0E0F0E044
:10F7B00089E080935700849106C0E3E0F0E089E09F
:10F7C0008093570084911A82DFCF8D81836C99E0FA
:10F7D000E1E0F0E0082E90935700E89507B600FCB2
:10F7E000FDCF1A821B8223E030E09BC180EC8A832C
:10F7F000CE5CDE4F188219821A821B82C253D1401E
:10F800008EC18A8190E0A0E0B0E0582F44273327D2
:10F8100022278B8190E0A0E0B0E0DC0199278827C7
:10F82000282B392B4A2B5B2B8D8190E0A0E0B0E098
:10F83000282B392B4A2B5B2B8C8190E0A0E0B0E089
:10F84000BA2FA92F982F8827282B392B4A2B5B2BCF
:10F85000220F331F441F551FC05EDE4F288339839C
:10F860004A835B83C052D1401A8259C13A81C95C34
:10F87000DE4F3883C753D140CA5CDE4F1882C6536F
:10F88000D1408B81C82EDD24CA5CDE4F488159816E
:10F89000C653D140C42AD52A933109F082C0CE5C28
:10F8A000DE4F88819981AA81BB81C253D1408050AB
:10F8B000904CA340B04030F583E0CE5CDE4FE88052
:10F8C000F9800A811B81C253D140F70100935B008C
:10F8D00080935700E89507B600FCFDCFCE5CDE4F65
:10F8E000088119812A813B81C253D14000501F4FAA
:10F8F0002F4F3F4FCE5CDE4F088319832A833B8313
:10F90000C253D140C05EDE4F488159816A817B81FC
:10F91000C052D140DE011B9631E08C9111962C91A2
:10F9200011971296C75CDE4F2883C953D140C85C3B
:10F93000DE4F1882C853D14090E0C85CDE4FE881AA
:10F94000F981C853D1408E2B9F2B0C01FA01609393
:10F950005B0030935700E89511244E5F5F4F6F4F67
:10F960007F4F0EEFE02E0FEFF02ECE0CDF1CC114F8
:10F97000D10499F685E0C05EDE4F088119812A81A5
:10F980003B81C052D140F80120935B008093570027
:10F99000E89507B600FCFDCF81E180935700E8951C
:10F9A00035C0C05EDE4F88819981AA81BB81C0527B
:10F9B000D140B695A795979587957C018601ABE0D8
:10F9C000AA2EB12CAC0EBD1E0BC0D5016D915D01F0
:10F9D000C7010F947FFE0894E11CF11C01501040F8
:10F9E0000115110591F7A60160E070E0440F551F65
:10F9F000661F771FC05EDE4FE880F9800A811B8199
:10FA0000C052D1404E0D5F1D601F711F1A82C05E33
:10FA1000DE4F488359836A837B83C052D1407FC0C5
:10FA2000FA80C55CDE4FF882CB53D140C65CDE4F16
:10FA30001882CA53D1408B81C82EDD24C65CDE4FAC
:10FA400008811981CA53D140C02AD12A1A828981DA
:10FA5000BE016D5F7F4F843121F59601C05EDE4FA0
:10FA6000E880F9800A811B81C052D1400BBFF701A9
:10FA700087919691DB018C9311969C936E5F7F4FDB
:10FA8000D801C7010296A11DB11DC05EDE4F88835B
:10FA90009983AA83BB83C052D14022503040F1F6F3
:10FAA00036C0C05EDE4F288139814A815B81C052F9
:10FAB000D1400894C108D108760100E010E0089414
:10FAC000C11CD11C0894E11CF11C011D111DE20E8A
:10FAD000F31E041F151F21BDBB27A52F942F832FB5
:10FAE00082BD2F5F3F4F4F4F5F4FF89A80B5DB01CC
:10FAF0008D93BD012E153F054007510761F7C05E8C
:10FB0000DE4F288339834A835B83C052D1409601FC
:10FB10002D5F3F4FFB01108204C080EC8A8322E0FE
:10FB200030E08BE18093C6008091C00086FFFCCF5F
:10FB30008091C00080648093C000C15DDE4FF88179
:10FB4000CF52D140F093C6008091C00086FFFCCF19
:10FB50008091C00080648093C000432F3093C60022
:10FB60008091C00086FFFCCF8091C00080648093AC
:10FB7000C000922F2093C6008091C00086FFFCCF6A
:10FB80008091C00080648093C0008EE08093C600A6
:10FB90008091C00086FFFCCF8091C000806480937C
:10FBA000C00065E1C15DDE4FE880CF52D1406E25D7
:10FBB00069276427FE01319610C090819093C6009A
:10FBC0008091C00086FFFCCF31968091C000806498
:10FBD0008093C0006927215030402115310569F715
:10FBE0006093C6008091C00086FFFCCF8091C0006A
:10FBF00080648093C00085B1805885B9772081F4F6
:10FC0000C15DDE4F0881CF52D1400F5FC15DDE4F35
:10FC10000883CF52D14090E0A0E0B0E00D941AF4F8
:10FC200027982F9880E090E020ED37E0F901319798
:10FC3000F1F7019684369105C9F700008091C00064
:10FC40008D7F8093C00081E180935700E895EE2777
:10FC5000FF270994FFCF90E00D941AF497FB092E2B
:10FC600007260AD077FD04D02ED006D000201AF443
:10FC7000709561957F4F0895F6F7909581959F4F08
:10FC80000895A1E21A2EAA1BBB1BFD010DC0AA1FDD
:10FC9000BB1FEE1FFF1FA217B307E407F50720F0F5
:10FCA000A21BB30BE40BF50B661F771F881F991F70
:10FCB0001A9469F760957095809590959B01AC01B9
:10FCC000BD01CF010895AA1BBB1B51E107C0AA1FAC
:10FCD000BB1FA617B70710F0A61BB70B881F991FED
:10FCE0005A95A9F780959095BC01CD010895F99991
:10FCF000FECF92BD81BDF89A992780B50895262F31
:10FD0000F999FECF1FBA92BD81BD20BD0FB6F89400
:0EFD1000FA9AF99A0FBE01960895F894FFCF63
:040000033000E000E9
:00000001FF