:100000000C9462000C945D050C9436050C948A00E7
:100010000C948A000C948A000C948A000C948A0038
:100020000C948A000C948A000C948A000C948A0028
:100030000C948A000C948A000C948A000C948A0018
:100040000C94EC040C948A000C948F010C946901BC
:100050000C948A000C948A000C948A000C948A00F8
:100060000C947B060C948A000000000025002800F8
:100070002B0000000000240027002A0000000000E0
:1000800023002600290004040404040404040202DA
:100090000202020203030303030301020408102007
:1000A0004080010204081020010204081020000012
:1000B0000008000201000003040700000000000027
:1000C0000000C60D11241FBECFEFD8E0DEBFCDBFAC
:1000D00023E0A0EDB1E001C01D92AB39B207E1F71A
:1000E00011E0A0E0B1E0EEEBF0E202C005900D926D
:1000F000A03DB107D9F710E0C2E6D0E004C02197D7
:10010000FE010E945210C136D107C9F70E94520960
:100110000C945D100C940000FC01538D448D252F30
:1001200030E0842F90E0821B930B541710F0CF9691
:10013000089501970895FC01918D828D981761F0C3
:10014000828DDF01A80FB11D5D968C91928D9F5F0E
:100150009F73928F90E008958FEF9FEF0895FC01B9
:10016000918D828D981731F0828DE80FF11D858D6C
:1001700090E008958FEF9FEF0895FC01918D228DFF
:10018000892F90E0805C9F4F821B91098F73992784
:1001900008958EE892E00E94BD0021E0892B09F4C9
:1001A00020E0822F0895FC01848DDF01A80FB11D8E
:1001B000A35ABF4F2C91848D90E001968F7399279D
:1001C000848FA689B7892C93A089B1898C9180648A
:1001D0008C93938D848D981306C00288F389E02D4B
:1001E00080818F7D80830895EF92FF920F931F93FC
:1001F000CF93DF93EC0181E0888F9B8D8C8D9813DA
:1002000005C0E889F989808185FD24C0F62E0B8D13
:1002100010E00F5F1F4F0F731127E02E8C8DE81237
:100220000CC00FB607FCFACFE889F989808185FFF9
:10023000F5CFCE010E94D300F1CF8B8DFE01E80FE8
:10024000F11DE35AFF4FF0820B8FEA89FB89808111
:10025000806207C0EE89FF896083E889F98980811F
:100260008064808381E090E0DF91CF911F910F91B6
:10027000FF90EF900895CF93DF93EC01888D882352
:10028000C9F0EA89FB89808185FD05C0A889B98903
:100290008C9186FD0FC00FB607FCF5CF808185FFDE
:1002A000F2CFA889B9898C9185FFEDCFCE010E944C
:1002B000D300E7CFDF91CF91089580E090E0892BC4
:1002C00029F00E94C90081110C94000008950E9439
:1002D00058101F920F920FB60F9211242F933F9335
:1002E0004F935F936F937F938F939F93AF93BF933E
:1002F000EF93FF938EE892E00E94D300FF91EF917D
:10030000BF91AF919F918F917F916F915F914F912D
:100310003F912F910F900FBE0F901F9018951F9235
:100320000F920FB60F9211242F938F939F93EF93F9
:10033000FF93E0919E02F0919F028081E091A402E0
:10034000F091A50282FD12C090818091A7028F5F7B
:100350008F732091A802821751F0E091A702F0E07C
:10036000E257FD4F958F8093A70201C08081FF91D6
:10037000EF919F918F912F910F900FBE0F901F9033
:1003800018951F93CF93DF93282F30E0F901E255A2
:10039000FF4F8491F901E656FF4FD491F901EA57D6
:1003A000FF4FC491CC23C9F0162F81110E94DD03A9
:1003B000EC2FF0E0EE0FFF1FE859FF4FA591B4912D
:1003C0008FB7F894111105C09C91ED2FE095E923AA
:1003D00002C0EC91ED2BEC938FBFDF91CF911F9179
:1003E00008953FB7F89480913F0290914002A09108
:1003F0004102B091420226B5A89B05C02F3F19F0DB
:100400000196A11DB11D3FBFBA2FA92F982F882794
:10041000820F911DA11DB11DBC01CD0142E0660FEF
:10042000771F881F991F4A95D1F70895089521E0F5
:1004300001C0220F6A95EAF7DC011C962C931C97E9
:100440001A965C934E931997ED91FC910484F5856F
:10045000E02D60E00994DC01ED91FC910684F785C4
:10046000E02D41E0099581E090E008950895089518
:1004700085ED8093BC008091BC0084FDFCCF109280
:100480006902089540911302262F30E0240F311D98
:1004900021323105DCF4209169022430C9F4FC01D9
:1004A00080E090E0861758F4309113022191DC012E
:1004B000AF50BE4FA30FB11D2C930196F3CF809187
:1004C0001302680F6093130280E0089581E008959D
:1004D00082E00895089581E090E030913902209102
:1004E0003802321710F480E090E0919581959109DF
:1004F00008958091390290913802891730F48F5F06
:100500008093390280E090E008958FEF9FEF089587
:100510008091380290E020913902821B9109089560
:10052000CF92DF92EF92FF920F931F93CF93DF93BF
:100530007C01262F972F8A0180916A02882391F0EF
:10054000C62FD72F6E01C40ED51ECC15DD0571F058
:100550006991D701ED91FC910190F081E02DC701E7
:100560000995F3CF642F822F0E944202C801DF91C8
:10057000CF911F910F91FF90EF90DF90CF90089552
:10058000CF93DF931F92CDB7DEB7698320916A02C4
:100590002223D1F020918D02203240F021E030E082
:1005A000FC013383228380E090E015C080916B02D0
:1005B000E82FF0E0E459FD4F998190838F5F80939D
:1005C0006B0280938D0205C061E0CE0101960E940E
:1005D000420281E090E00F90DF91CF91089508955D
:1005E00080E090E00895F89489B18C708093F001D8
:1005F0008091F0018C3021F48091EF01811109C0CC
:100600008091F001843019F481E08093EE017894B8
:1006100008958091050190910601029718F481E0F8
:1006200090E005C08091050190910601019790939B
:100630000601809305011092EE011092EF01E7CFC1
:10064000F89489B18C708093F0018091F0018C3026
:1006500021F48091EE01811109C08091F001883070
:1006600019F481E08093EF01789408958091050159
:1006700090910601899718F088E290E005C080917A
:100680000501909106010196909306018093050162
:100690001092EE011092EF01E7CFFC01238122239B
:1006A000B9F09181909569236083828191E0909364
:1006B0006A0280938C0210926B0210928D0283E783
:1006C00093E00E94C0020E94D407282F30E002C0AD
:1006D00020E030E081E090E0232B11F080E090E01A
:1006E0000895EF92FF920F931F93CF938C01FC011B
:1006F000759684E0C0E060FF02C09081C92B6695CA
:10070000815031968111F7CF413011F4F8014489BD
:10071000F8018585C82BC42B7801FEE0EF0EF11C93
:10072000F80162896C2BC7010E944D03F8016289B0
:1007300060956C23C701CF911F910F91FF90EF90AF
:100740000C944D030F931F93CF93DF93062F0F70DD
:10075000423019F440E0602F10C0142F262FEC0116
:1007600030E0B90184E0759567958A95E1F7CE018F
:100770000E947103412F602FCE01DF91CF911F9115
:100780000F910C947103FC0184858823A9F02185C5
:1007900032852115310519F4611106C007C02130D9
:1007A000310521F4611102C0858701C01586658578
:1007B000CF010E960C944D030895833081F028F4F8
:1007C000813099F08230A1F008958730A9F0883007
:1007D000B9F08430D1F4809180008F7D03C0809186
:1007E00080008F7780938000089584B58F7702C052
:1007F00084B58F7D84BD08958091B0008F7703C04C
:100800008091B0008F7D8093B0000895CF93DF93E7
:1008100090E0FC01E656FF4F2491FC01EA57FF4FA0
:100820008491882361F190E0880F991FFC01EE58B4
:10083000FF4FC591D491FC01E859FF4FA591B491A8
:10084000611109C09FB7F89488812095822388831D
:10085000EC912E230BC0623061F49FB7F89438817D
:10086000822F809583238883EC912E2B2C939FBF1E
:1008700006C08FB7F894E8812E2B28838FBFDF91B5
:10088000CF9108958F929F92AF92BF92CF92DF92B5
:10089000EF92FF926B017C010E94F1014B015C0120
:1008A000C114D104E104F104F1F00E94F101DC0172
:1008B000CB0188199909AA09BB09883E9340A10573
:1008C000B10570F321E0C21AD108E108F10888EE01
:1008D000880E83E0981EA11CB11CC114D104E10450
:1008E000F10419F7DDCFFF90EF90DF90CF90BF902C
:1008F000AF909F908F9008952FB7F89460913B022E
:1009000070913C0280913D0290913E022FBF08956C
:10091000AF92BF92CF92DF92EF92FF920F931F930D
:10092000CF93DF93F8940E947C04A090D001B09004
:10093000D101C090D201D090D301E090D401F090C9
:10094000D5010091D6011091D701DC01CB019C01AA
:10095000AD0160E070E080E090E00E944010A09067
:10096000D401B12CC12CD12CE12CF12C00E010E0F1
:100970000E94491028F10E947C04DC01CB01809385
:10098000D0019093D101A093D201B093D3011092E2
:10099000D4011092D5011092D6011092D701809106
:1009A000D501811104C081E08093D50102C010926D
:1009B000D50180910401811103C081E0809304017D
:1009C0007894DF91CF911F910F91FF90EF90DF907E
:1009D000CF90BF90AF9008951F920F920FB60F92D5
:1009E00011242F933F938F939F93AF93BF93809145
:1009F0003B0290913C02A0913D02B0913E023091A9
:100A00003A0223E0230F2D3720F40196A11DB11DDA
:100A100005C026E8230F0296A11DB11D20933A02BE
:100A200080933B0290933C02A0933D02B0933E0220
:100A300080913F0290914002A0914102B091420208
:100A40000196A11DB11D80933F0290934002A09397
:100A50004102B0934202BF91AF919F918F913F911C
:100A60002F910F900FBE0F901F9018951F920F920D
:100A70000FB60F9211242F933F934F935F936F9371
:100A80007F938F939F93AF93BF93EF93FF93E091E7
:100A90000201F09103010995FF91EF91BF91AF9190
:100AA0009F918F917F916F915F914F913F912F9186
:100AB0000F900FBE0F901F9018951F920F920FB6B8
:100AC0000F9211242F933F934F935F936F937F93D4
:100AD0008F939F93AF93BF93EF93FF93E0910001A8
:100AE000F09101010995FF91EF91BF91AF919F9115
:100AF0008F917F916F915F914F913F912F910F90C7
:100B00000FBE0F901F901895DC01ED91FC910684AB
:100B1000F785E02D40E009940F931F93CF93DF9367
:100B2000EC01423018F08C8188608C834F83688799
:100B3000222329F0413019F48C8184608C8364E68F
:100B400070E080E090E00E9442046C8164FD31C05E
:100B5000E881F9810684F785E02D42E063E0CE016B
:100B600009958BE496E40197F1F7E881F981068411
:100B7000F785E02D42E063E0CE01099503E512E040
:100B8000C8010197F1F7E881F9810684F785E02D26
:100B900042E063E0CE010995C8010197F1F7E881D1
:100BA000F9810684F785E02D42E062E0CE010995E7
:100BB00017C06062CE010E9484058BE496E4019721
:100BC000F1F76C816062CE010E94840503E512E0BA
:100BD000C8010197F1F76C816062CE010E94840523
:100BE000C8010197F1F76C816062CE010E94840513
:100BF0008BEE90E00197F1F784E08D836CE0CE01FD
:100C00000E94840561E0CE010E9484058BE39FE190
:100C10000197F1F782E08E8366E0CE010E948405A1
:100C2000E881F9810484F585E02D6FEFCE01DF9135
:100C3000CF911F910F910994EF92FF920F931F9301
:100C4000CF93DF93EC01062FF42EE22E8B85888B59
:100C5000109239021092380210926B0210928D029B
:100C60001092690211E0109368021092430261E051
:100C700082E10E94C10161E083E10E94C101809193
:100C8000B9008E7F8093B9008091B9008D7F8093E9
:100C9000B90088E48093B80085E48093BC0088891B
:100CA00010936A0280938C0210926B0210928D0254
:100CB0000E94D40791E0811190E0998B992329F04B
:100CC00083E793E00E9479028E878989882339F02F
:100CD0001F861C8260E0CE010E960E944D032E2DD1
:100CE0004F2D602FCE01DF91CF911F910F91FF907B
:100CF000EF900C948C051F920F920FB60F92112457
:100D00002F933F934F935F936F937F938F939F9313
:100D1000AF93BF93EF93FF938091B900887F8036A4
:100D200009F49CC068F5883209F45BC090F4803106
:100D300009F454C038F4882309F4F6C0883009F463
:100D40004DC0F6C0883109F44CC0803209F45DC052
:100D5000EFC0803409F468C048F4803309F455C00A
:100D6000883309F0E5C080936702D8C0803509F464
:100D70004FC0883509F45DC0883409F0D9C0D6C0A9
:100D8000883909F4C7C0A8F4883709F467C038F473
:100D9000883609F463C0803709F460C0C9C0883858
:100DA00009F4B8C0803909F45FC0803809F0C0C0C8
:100DB0005BC0803B09F486C038F4803A09F466C011
:100DC000883A09F47FC0B4C0803C09F4A7C0883CCD
:100DD00009F4A4C0883B09F48AC0AAC080914402E7
:100DE00010C09091660280916502981770F5E091AD
:100DF000660281E08E0F80936602F0E0EB5BFD4FB0
:100E000080818093BB0085EC86C0809367028EC092
:100E1000E091660281E08E0F809366028091BB00B4
:100E2000F0E0EB5BFD4F808390916602809165025C
:100E30006EC0E091660281E08E0F80936602809121
:100E4000BB00F0E0EB5BFD4F808380916802811175
:100E50006DC081E08093430284EA61C083E08093A7
:100E6000690210923702CFCF80913702803208F0AA
:100E700051C0E091370281E08E0F8093370280915C
:100E8000BB00F0E0E95EFD4F8083BDCF85EC809331
:100E9000BC001092690280913702803230F4E091F8
:100EA0003702F0E0E95EFD4F10826091370270E09A
:100EB000E0911502F091160287E192E009951092F7
:100EC000370236C084E080936902109214021092B7
:100ED0001302E0911102F091120209958091130220
:100EE000811105C081E0809313021092F101E0911D
:100EF000140281E08E0F80931402F0E0EF50FE4F59
:100F000080818093BB009091140280911302981706
:100F100008F479CF85E88093BC000AC085EC809303
:100F2000BC001092690204C0109267020E9438024D
:100F3000FF91EF91BF91AF919F918F917F916F91B1
:100F40005F914F913F912F910F900FBE0F901F9087
:100F50001895CF92DF92EF92FF920F931F93CF934A
:100F6000DF936C017A018B01C0E0D0E0CE15DF0584
:100F700089F0D8016D918D01D601ED91FC91019020
:100F8000F081E02DC6010995892B11F47E0102C084
:100F90002196ECCFC701DF91CF911F910F91FF9068
:100FA000EF90DF90CF90089520918D0290918C0268
:100FB000213208F04AC0809169028111FCCF32E0F1
:100FC0003093690231E0309368023FEF309367025B
:100FD0001092660220936502ACE6B2E045E452E06E
:100FE000FA013E2F341B321718F43D913193F9CF9B
:100FF0001092440220914402990F922B9093440244
:1010000090914302913061F4109243029091440216
:101010009093BB009091BC0093FDF8CF95EC01C07C
:1010200095EE9093BC00909169029230E1F390911B
:1010300067029F3F79F080916702803241F0809192
:101040006702803331F084E005C081E003C082E0B4
:1010500001C083E010926B0210928D0210926A021E
:1010600008958F929F92AF92BF92CF92DF92EF92AC
:10107000FF926B017C010E947C044B015C01C60E57
:10108000D71EE81EF91E0E947C04681579058A05A2
:101090009B0528F0C616D706E806F906A0F7FF90CC
:1010A000EF90DF90CF90BF90AF909F908F9008957A
:1010B000DF92EF92FF920F931F93CF93DF93C7E0DE
:1010C000D0E0E12C01E010E060E080917F030E941D
:1010D000C1018FE99FE00197F1F700C00000209166
:1010E000800330E0F901E255FF4F8491F901E656A3
:1010F000FF4FD490F901EA57FF4FF490FF2071F0B1
:1011000081110E94DD03EF2DF0E0EE0FFF1FE45888
:10111000FF4FA591B491EC91ED21B9F461E080917C
:101120007F030E94C1018FE99FE00197F1F700C0A2
:101130000000219708F0C8CF8E2DDF91CF911F912D
:101140000F91FF90EF90DF900895C8010C2E01C021
:10115000880F0A94EAF7E82AE1CFCF93DF93CDB75F
:10116000DEB728970FB6F894DEBF0FBECDBF1D8245
:1011700090E49E8324E12F8324E5288719829A83B3
:1011800090E19B8390E59C8390918903691710F00F
:101190006FEF690F40918A03262F30E0FE01E20FC6
:1011A000F31F403121F4943011F4918101C09581F5
:1011B000682F690F606882E893E028960FB6F8946C
:1011C000DEBF0FBECDBFDF91CF910C948405E091BF
:1011D0008203F09183030190F081E02D682F82E873
:1011E00093E009946115710579F0FB0101900020ED
:1011F000E9F73197AF01461B570BDC01ED91FC91EC
:101200000280F381E02D099480E090E008954F92F0
:101210005F926F927F92EF92FF920F931F93CF9303
:10122000DF93CDB7DEB7A1970FB6F894DEBF0FBE40
:10123000CDBF7C01FA01CB0119A2223008F42AE0CB
:101240008E010F5D1F4F422E512C612C712CBF015E
:10125000A30192010E94780FF901CA0101501109FE
:101260006A3014F4605D01C0695CD8016C93232B73
:10127000242B252B61F7B801C7010E94F208A19623
:101280000FB6F894DEBF0FBECDBFDF91CF911F9197
:101290000F91FF90EF907F906F905F904F90089527
:1012A0000C94F208789484B5826084BD84B5816022
:1012B00084BD85B5826085BD85B5816085BD809121
:1012C0006E00816080936E00109281008091810099
:1012D0008260809381008091810081608093810091
:1012E000809180008160809380008091B100846053
:1012F0008093B1008091B00081608093B0008091B4
:101300007A00846080937A0080917A008260809372
:101310007A0080917A00816080937A0080917A00CF
:10132000806880937A001092C10010926F0310922F
:101330007003109271031092720310922D03109299
:101340002E0310922F031092300368EB7BE080E0B5
:1013500090E00E9431088EE892E090936E038093B3
:101360006D03E0919E02F0919F0282E08083E09104
:101370009A02F0919B021082E0919C02F0919D02F2
:1013800080E180831092A602E091A202F091A30274
:1013900086E08083E091A002F091A10280818061CB
:1013A0008083E091A002F091A10280818860808317
:1013B000E091A002F091A102808180688083E09199
:1013C000A002F091A10280818F7D80830E947C0425
:1013D00060932D0370932E0380932F03909330031B
:1013E0006FE371E080916D0390916E030E9450094C
:1013F0006AE070E080E090E00E94310881E0809334
:10140000410362E083E10E94060462E082E10E94FF
:10141000060462E082E00E94060488E894E090936B
:1014200001018093000180916900836080936900CD
:10143000E89A84E68093D4010E947C046093D001F2
:101440007093D1018093D2019093D30162E370E055
:1014500080E090E00E94420420E044E064E182E801
:1014600093E00E941C06E0918203F09183030484C0
:10147000F585E02D6FEF82E893E009950E947C04EA
:101480006093E2017093E3018093E4019093E5019E
:101490000E947C04672B682B692B41F40E947C041A
:1014A000623071058105910508F40FC10E947C042A
:1014B0006093EA017093EB018093EC019093ED014E
:1014C000C090E601D090E701E090E801F090E901DA
:1014D0006C157D058E059F0540F46093E6017093C1
:1014E000E7018093E8019093E901C090E601D09074
:1014F000E701E090E801F090E9019B01AC012C19B3
:101500003D094E095F0969017A013AEFC316D1041A
:10151000E104F10408F4D9C06093E6017093E70197
:101520008093E8019093E90184EF91E0A0E0B0E0BE
:101530008093390390933A03A0933B03B0933C0309
:1015400010923D0310923E0310923F03109240030D
:101550008091310390913203A0913303B091340311
:101560008093350390933603A0933703B0933803E9
:101570000E947C04609331037093320380933303A1
:10158000909334030E947C0460932D0370932E0388
:1015900080932F03909330030E947C046B017C01A5
:1015A00061E571E080916D0390916E030E94500996
:1015B0002AE041E050E060E070E080916D0390919E
:1015C0006E030E94070968E571E080916D039091B8
:1015D0006E030E9450092AE0B701A60180916D03B5
:1015E00090916E030E94070968E871E080916D0395
:1015F00090916E030E9450098091310390913203C3
:10160000A0913303B0913403B701A601481B590BD5
:101610006A0B7B0B2AE080916D0390916E030E9410
:10162000070968E871E080916D0390916E030E9454
:10163000500940913103509132036091330370910E
:1016400034038091350390913603A0913703B09114
:101650003803481B590B6A0B7B0B2AE080916D0302
:1016600090916E030E9407096CE571E080916D0313
:1016700090916E030E9450090E947C04AB01BC0152
:101680002AE080916D0390916E030E940709E0901B
:101690006D03F0906E036EE571E0C7010E94F208E1
:1016A0006EE471E0C7010E94F20865E070E080E03E
:1016B00090E00E9431080E947C0460933103709393
:1016C000320380933303909334038091D50160E01B
:1016D000811150C00E94AD0865E671E082E893E098
:1016E0000E94500962E081E00E94AD0869E771E064
:1016F00082E893E00E94500963E083E00E94AD0815
:101700006AE871E082E893E00E94500963E087E0B4
:101710000E94AD0880910501909106010A9750F44E
:101720006EEC71E082E893E00E94500963E088E08B
:101730000E94AD0880910501909106012AE0289F42
:10174000A001299F500D112460E070E082E893E031
:101750000E9407098FED0E94E7086CE871E082E8BB
:1017600093E00E94500963E08FE00E94AD086EE8AC
:1017700071E018C180E00E94AD0860E971E082E884
:1017800093E00E94500962E081E00E94AD0864EAA3
:1017900071E082E893E00E94500963E081E00E94DA
:1017A000AD0880910501909106010A9750F46EEC06
:1017B00071E082E893E00E94500963E082E00E94B9
:1017C000AD0880910501909106012AE0289FA001B3
:1017D000299F500D112460E070E082E893E00E94A0
:1017E00007098FED0E94E7086CE871E082E893E05A
:1017F0000E94500962E08BE00E94AD086AEA71E045
:1018000082E893E00E94500963E08BE00E94AD08FB
:1018100020E030E048EC52E46091DE017091DF019D
:101820008091E0019091E1010E94540E87FF0AC06F
:101830006EEC71E082E893E00E94500963E08CE076
:101840000E94AD08C090DE01D090DF01E090E00181
:10185000F090E101A7019601C701B6010E943B107B
:10186000882319F06FEA71E01AC046015701E89425
:10187000B7F82FEF3FEF4FE75FE7C501B4010E94D4
:101880003B10811111C02FEF3FEF4FE75FE7C5011C
:10189000B4010E94540E18163CF463EB71E082E828
:1018A00093E00E94F20879C02FEF3FEF4FE75FE42B
:1018B000C701B6010E94361018161CF467EB71E0E0
:1018C000EECF2FEF3FEF4FE75FECC701B6010E946D
:1018D000540E87FDF3CF20E030E0A901C701B60127
:1018E0000E94540E87FF07C08DE20E94E708F7FAB6
:1018F000F094F7F8F0942AE037ED43EA5BE3C70190
:10190000B6010E949B0F4B015C010E9407106B0106
:101910007C010E94590E9B01AC01C501B4010E94DB
:101920009A0F4B015C012AE0B701A60182E893E01F
:101930000E9407098EE20E94E70820E030E040E2C2
:1019400051E4C501B4010E94BA0E4B015C010E9432
:1019500007106B01E12CF12C2AE0B701A60182E807
:1019600093E00E940709C701B6010E94590E9B012E
:10197000AC01C501B4010E949A0F20E030E040E2C2
:1019800051E40E94BA0E0E940710AB0160E070E0C3
:101990002AE082E893E00E9407098FED0E94E708A1
:1019A0006CE871E082E893E00E94500980910401A4
:1019B000882351F160E080E00E94AD086BEB71E09C
:1019C00082E893E00E94500961E080E00E94AD0847
:1019D0006BEB71E082E893E00E94500962E080E0E6
:1019E0000E94AD086BEB71E082E893E00E94500921
:1019F00063E080E00E94AD086BEB71E082E893E069
:101A00000E945009109204018091D501882309F4A5
:101A1000BAC00E947C04C090E201D090E301E09043
:101A2000E401F090E501DC01CB018C199D09AE09C0
:101A3000BF09883E9340A105B10508F4A4C060E049
:101A4000809181030E94C1018FE99FE00197F1F726
:101A500000C000000E945808E82EF12CFE2CEE2455
:101A60000E945808E82A61E0809181030E94C10128
:101A7000E2FC11C0B70183E0769567958A95E1F79E
:101A800080E090E00E94590E20E030E040E85EE304
:101A90000E94BA0E04C060E070E080EC9FE720E096
:101AA00030E040E450E40E949A0F6B017C016093A7
:101AB000DE017093DF018093E0019093E10160917A
:101AC00005017091060180E090E00E94590E20E02F
:101AD00030E040E251E40E94BA0E2EEA37E441E8D9
:101AE0005FE30E94BA0E2B013C016093DA01709310
:101AF000DB018093DC019093DD0160910501709121
:101B0000060180E090E00E94590E20E030E040E2C3
:101B100051E40E94BA0E24EA30E74DE75FE30E94E9
:101B2000BA0E4B015C016093D6017093D70180938C
:101B3000D8019093D901A3019201C701B6010E9477
:101B40003610181634F460E085E00E94C10160E0B0
:101B50000DC0A5019401C701B6010E94540E87FF74
:101B600008C061E085E00E94C10161E086E00E945A
:101B7000C1010E947C046093E2017093E3018093B1
:101B8000E4019093E5010E945D0182CC0F931F93C5
:101B9000CF93DF93EEE8F2E01382128288EE93E0B7
:101BA000A0E0B0E084839583A683B7832BE031E087
:101BB0003183208325EC30E03587248724EC30E026
:101BC0003787268720EC30E0318B208B21EC30E00A
:101BD000338B228B22EC30E0358B248B26EC30E0EB
:101BE000378B268B118E128E138E148EEBE2F3E060
:101BF0001682178210861186128613861486158621
:101C000016861786108A118A128A138A148A158AF0
:101C1000E3E7F3E01382128284839583A683B7837C
:101C20008DE191E091838083CFE7D3E012E01883C8
:101C300083E08A8304E0098361E00E94060461E096
:101C400088810E94060460E089810E94060461E0A8
:101C50008A810E94C101E2E8F3E0138212828FE2DE
:101C600091E091838083108A8FEF87871686118A8F
:101C700087E283871486158612861186028B138B62
:101C800081E0848B80E1858B80E2868B80E4878B8A
:101C900080E8808F40E050E063E0CF01DF91CF919A
:101CA0001F910F910C9417020E94960E08F481E088
:101CB0000895E89409C097FB3EF49095809570953F
:101CC00061957F4F8F4F9F4F9923A9F0F92F96E988
:101CD000BB279395F695879577956795B795F111FD
:101CE000F8CFFAF4BB0F11F460FF1BC06F5F7F4F9A
:101CF0008F4F9F4F16C0882311F096E911C07723AC
:101D000021F09EE8872F762F05C0662371F096E8B4
:101D1000862F70E060E02AF09A95660F771F881F83
:101D2000DAF7880F9695879597F90895990F000827
:101D3000550FAA0BE0E8FEEF16161706E807F9079D
:101D4000C0F012161306E407F50798F0621B730B38
:101D5000840B950B39F40A2661F0232B242B252BB9
:101D600021F408950A2609F4A140A6958FEF811D5C
:101D7000811D08950E94CD0E0C943E0F0E94300FDD
:101D800038F00E94370F20F0952311F00C94270FA4
:101D90000C942D0F11240C94720F0E944F0F70F3AE
:101DA000959FC1F3950F50E0551F629FF001729F00
:101DB000BB27F00DB11D639FAA27F00DB11DAA1F0F
:101DC000649F6627B00DA11D661F829F2227B00D5C
:101DD000A11D621F739FB00DA11D621F839FA00DE7
:101DE000611D221F749F3327A00D611D231F849F37
:101DF000600D211D822F762F6A2F11249F5750408E
:101E00009AF0F1F088234AF0EE0FFF1FBB1F661F08
:101E1000771F881F91505040A9F79E3F510580F0D1
:101E20000C94270F0C94720F5F3FE4F3983ED4F3A9
:101E3000869577956795B795F795E7959F5FC1F775
:101E4000FE2B880F911D9695879597F9089597F920
:101E50009F6780E870E060E008959FEF80EC089550
:101E600000240A9416161706180609060895002479
:101E70000A9412161306140605060895092E0394F3
:101E8000000C11F4882352F0BB0F40F4BF2B11F467
:101E900060FF04C06F5F7F4F8F4F9F4F089557FDC6
:101EA0009058440F551F59F05F3F71F04795880FC8
:101EB00097FB991F61F09F3F79F08795089512165F
:101EC00013061406551FF2CF4695F1DF08C016160B
:101ED00017061806991FF1CF8695710561050894BC
:101EE0000895E894BB2766277727CB0197F90895D3
:101EF000A1E21A2EAA1BBB1BFD010DC0AA1FBB1F0E
:101F0000EE1FFF1FA217B307E407F50720F0A21B7F
:101F1000B30BE40BF50B661F771F881F991F1A94EC
:101F200069F760957095809590959B01AC01BD0116
:101F3000CF0108955058BB27AA270E94B20F0C94D6
:101F40003E0F0E94300F38F00E94370F20F039F416
:101F50009F3F19F426F40C942D0F0EF4E095E7FB47
:101F60000C94270FE92F0E944F0F58F3BA176207FE
:101F700073078407950720F079F4A6F50C94710F88
:101F80000EF4E0950B2EBA2FA02D0B01B901900194
:101F90000C01CA01A0011124FF27591B99F0593FD8
:101FA00050F4503E68F11A16F040A22F232F342F20
:101FB0004427585FF3CF469537952795A795F0406E
:101FC0005395C9F77EF41F16BA0B620B730B840B83
:101FD000BAF09150A1F0FF0FBB1F661F771F881F3B
:101FE000C2F70EC0BA0F621F731F841F48F4879593
:101FF00077956795B795F7959E3F08F0B0CF939585
:10200000880F08F09927EE0F9795879508950E94FD
:10201000570F88F09F5798F0B92F9927B751B0F014
:10202000E1F0660F771F881F991F1AF0BA95C9F75C
:1020300014C0B13091F00E94710FB1E008950C947A
:10204000710F672F782F8827B85F39F0B93FCCF32D
:10205000869577956795B395D9F73EF490958095D9
:10206000709561957F4F8F4F9F4F08950E94960EF8
:1020700008F48FEF08950E94960E880B990B08952F
:102080002A193B094C095D096E097F09800B910BE8
:1020900008952A153B054C055D056E057F058007F3
:1020A00091070895EE0FFF1F0590F491E02D09941C
:0E20B00081E090E0F8940C945D10F894FFCF5E
:1020BE001602160201010000000000F400A9078CB0
:1020CE00003B01BD009B00AF0000000000C002906D
:1020DE0002F0026A02880279026B02000000002BF5
:1020EE0002A907F002EF021C061702C303A2035651
:1020FE004D4450565F317C315F564D4450560D0A5B
:10210E0000564D4450455F003A323A007C005F560F
:10211E004D445045004865697A766F7267616E6707
:10212E0020696E616B746976005A69656C74656DB1
:10213E0070657261747572203A003E0043003C0077
:10214E004865697A766F7267616E6720616B746934
:10215E0076202100536F6C6C3A004973743A006E0E
:10216E00616E00696E66006F76660020202020206A
:10217E002020202020202020202020202020200071
:00000001FF
