:1000000007C10000E1C60000B4C6000087C60000BA
:100010005AC600002DC6000000C60000D3C500006F
:10002000A6C5000026C1000024C1000022C10000B6
:1000300020C100001EC100001CC100001AC1000048
:1000400018C1000016C1000014C1000012C1000058
:1000500010C100000EC100000CC100003EC5000030
:1000600008C1000086C400005BC4000002C100009B
:1000700000C10000FEC00000FCC00000FAC000008B
:10008000F8C00000F6C00000F4C00000F2C000009C
:10009000F0C00000EEC00000ECC00000A9C70000E6
:1000A000E8C00000E6C00000E4C00000E2C00000BC
:1000B000E0C00000DEC00000DCC00000DAC00000CC
:1000C000D8C00000D6C00000D4C00000D2C00000DC
:1000D000D0C00000CEC00000CCC00000CAC00000EC
:1000E000C8C000006F027202610265026902A902C3
:1000F00076027A028002840288028E0292029602BE
:10010000A9029C02A002A40200000A0B02090C0D25
:100110000E080703040100000000000000000000BA
:1001200000000000000000000000000000000000CF
:10013000000000001211100000000000000000008C
:1001400000000000000000000000000000000000AF
:100150002200250028002B002E003100340002016F
:100160000000050108010B01000021002400270008
:100170002A002D00300033000101000004010701B6
:100180000A0105050505070508080808020202021C
:100190000A0A080804040404010101010101010123
:1001A0000303030303030303040707070C0C0C0CEE
:1001B0000C0C0C0C020202020606060606060606D7
:1001C0000B0B0B0B0B0B0B0B010210202008081064
:1001D00020401020408002010201080402010102B7
:1001E0000408102040808040201008040201800490
:1001F00002018040201008040201080402010102EB
:100200000408102040800102040810204080900D56
:1002100011241FBECFEFD1E2DEBFCDBF00E00CBF87
:1002200024E0AAEBB2E001C01D92A537B207E1F7C6
:1002300012E0A0E0B2E0E2E6FCE100E00BBF02C0A9
:1002400007900D92AA3BB107D9F711E0C8E0D1E0C1
:1002500000E006C021970109802FFE010E94230EB5
:10026000C730D10780E00807A9F70E94940A0C94D0
:100270002F0EC6CEFC01538D448D252F30E0842FE8
:1002800090E0821B930B541710F0CF9608950197BE
:100290000895FC01918D828D981761F0828DDF01A8
:1002A000A80FB11D5D968C91928D9F5F9F73928F69
:1002B00090E008958FEF9FEF0895FC01918D828D5E
:1002C000981731F0828DE80FF11D858D90E008952B
:1002D0008FEF9FEF0895FC01918D228D892F90E083
:1002E000805C9F4F821B91098F73992708958BE63D
:1002F00093E0F1DF21E0892B09F420E0822F0895BB
:10030000FC01848DDF01A80FB11DA35ABF4F2C91B2
:10031000848D90E001968F739927848FA689B78981
:100320002C93A089B1898C9180648C93938D848D5A
:10033000981306C00288F389E02D80818F7D808329
:100340000895EF92FF920F931F93CF93DF93EC01E9
:1003500081E0888F9B8D8C8D981305C0E889F98981
:10036000808185FD23C0F62E0B8D10E00F5F1F4F9F
:100370000F731127E02E8C8DE8120BC00FB607FC0F
:10038000FACFE889F989808185FFF5CFCE01B8DF02
:10039000F2CF8B8DFE01E80FF11DE35AFF4FF08283
:1003A0000B8FEA89FB898081806207C0EE89FF8913
:1003B0006083E889F98980818064808381E090E0AE
:1003C000DF91CF911F910F91FF90EF900895CF9300
:1003D000DF93EC01888D8823C1F0EA89FB89808155
:1003E00085FD05C0A889B9898C9186FD0EC00FB620
:1003F00007FCF5CF808185FFF2CFA889B9898C9160
:1004000085FFEDCFCE017CDFE8CFDF91CF9108955E
:1004100080E090E0892B19F06ADF811125C080E02F
:1004200090E0892B41F080E090E0892B21F00E9440
:10043000000081111CC080E090E0892B41F080E039
:1004400090E0892B21F00E940000811113C080E010
:1004500090E0892BA1F080E090E0892B81F00E9450
:10046000000081110AC008950E940000D8CF0E94A8
:100470000000E1CF0E940000EACF0C940000089534
:10048000362F90E0FC01E85FFE4F4491FC01E853F9
:10049000FE4F2491FC01EE57FE4F9491992309F4ED
:1004A0006BC0442309F455C050E0FA013197E231A2
:1004B000F10508F04EC08827EE58FF4F8F4F0C947F
:1004C000230E809180008F7707C0809180008F7D00
:1004D00003C080918000877F809380003AC084B5FC
:1004E0008F7702C084B58F7D84BD33C08091B0000A
:1004F0008F7703C08091B0008F7D8093B00029C0BA
:10050000809190008F7707C0809190008F7D03C00D
:1005100080919000877F809390001BC08091A00005
:100520008F7707C08091A0008F7D03C08091A000CD
:10053000877F8093A0000DC0809120018F7707C036
:10054000809120018F7D03C080912001877F80935F
:100550002001E92FF0E0EE0FFF1FE25BFE4FA591B7
:10056000B4918FB7F894EC91311103C020952E23EC
:1005700001C02E2B2C938FBF08953FB7F894809124
:100580000D0390910E03A0910F03B091100326B5B7
:10059000A89B05C02F3F19F00196A11DB11D3FBFBB
:1005A000BA2FA92F982F8827820F911DA11DB11D49
:1005B000BC01CD0142E0660F771F881F991F4A9545
:1005C000D1F70895089521E001C0220F6A95EAF756
:1005D000DC011C962C931C971A965C934E931997EA
:1005E000ED91FC910484F585E02D60E01994DC0127
:1005F000ED91FC910684F785E02D41E0199581E0AD
:1006000090E008950895089585ED8093BC00809151
:10061000BC0084FDFCCF1092460308954091E10296
:10062000262F30E0240F311D21323105DCF42091DA
:1006300046032430C9F4FC0180E090E0861758F4AA
:100640003091E1022191DC01A154BD4FA30FB11DF6
:100650002C930196F3CF8091E102680F6093E10241
:1006600080E0089581E0089582E00895089581E092
:1006700090E03091070320910603321710F480E0D8
:1006800090E091958195910908958091070390914B
:100690000603891730F48F5F8093070380E090E0B2
:1006A00008958FEF9FEF08958091060390E02091C9
:1006B0000703821B91090895CF92DF92EF92FF9278
:1006C0000F931F93CF93DF937C01262F972F8A01DF
:1006D00080914703882391F0C62FD72F6E01C40E57
:1006E000D51ECC15DD0569F06991D701ED91FC911E
:1006F0000190F081E02DC7011995F3CF642F822F6F
:100700008DDFC801DF91CF911F910F91FF90EF9086
:10071000DF90CF900895CF93DF931F92CDB7DEB7D0
:100720006983209147032223D1F020916A0320326C
:1007300040F021E030E0FC013383228380E090E050
:1007400014C080914803E82FF0E0E75BFC4F9981EB
:1007500090838F5F8093480380936A0304C061E0B5
:10076000CE0101965BDF81E090E00F90DF91CF91A9
:100770000895089580E090E00895F89489B18C7010
:100780008093BE028091BE028C3021F48091BD0224
:10079000811109C08091BE02843019F481E08093F8
:1007A000BA02789408958091BB029091BC0201979F
:1007B0009093BC028093BB021092BA021092BD02C9
:1007C000F0CFF89489B18C708093BE028091BE0204
:1007D0008C3021F48091BA02811109C08091BE024F
:1007E000883019F481E08093BD0278940895809157
:1007F000BB029091BC0201969093BC028093BB0215
:100800001092BA021092BD02F0CF0E942B0EFC0192
:1008100023812223A9F091819095692360838281AD
:1008200091E09093470380936903109248031092DC
:100830006A0380E594E06FDF37D5282F30E002C0EF
:1008400020E030E081E090E0232B11F080E090E0A8
:100850000895EF92FF920F931F93CF938C01FC01A9
:10086000759684E0C0E060FF02C09081C92B669558
:10087000815031968111F7CF413011F4F80144894C
:10088000F8018585C82BC42B7801FEE0EF0EF11C22
:10089000F80162896C2BC701BADFF80162896095A3
:1008A0006C23C701CF911F910F91FF90EF90AFCFB5
:1008B0000F931F93CF93DF93062F0F70423019F4DD
:1008C00040E0602F0FC0142F262FEC0130E0B9015B
:1008D00084E0759567958A95E1F7CE01BADF412FDF
:1008E000602FCE01DF91CF911F910F91B2CFFC010C
:1008F00084858823A1F0218532852115310519F4DD
:10090000611106C007C02130310521F4611102C018
:10091000858701C015866585CF010E9678CF08952D
:100920001F920F920FB60F9211240BB60F922F93B6
:100930003F934F935F936F937F938F939F93AF9367
:10094000BF93EF93FF938BE693E0DADCFF91EF9197
:10095000BF91AF919F918F917F916F915F914F91D7
:100960003F912F910F900BBE0F900FBE0F901F90D5
:1009700018951F920F920FB60F9211240BB60F927B
:100980002F938F939F93EF93FF93E0917B03F091CD
:100990007C038081E0918103F091820382FD12C08B
:1009A0009081809184038F5F8F73209185038217DC
:1009B00051F0E0918403F0E0E559FC4F958F80936E
:1009C000840301C08081FF91EF919F918F912F91BE
:1009D0000F900BBE0F900FBE0F901F9018958F9227
:1009E0009F92AF92BF92CF92DF92EF92FF926B01F4
:1009F0007C01C3DD4B015C01C114D104E104F104AD
:100A0000E9F0BBDDDC01CB0188199909AA09BB0912
:100A1000883E9340A105B10578F321E0C21AD108C0
:100A2000E108F10888EE880E83E0981EA11CB11C35
:100A3000C114D104E104F10421F7DECFFF90EF905F
:100A4000DF90CF90BF90AF909F908F9008952FB779
:100A5000F8946091090370910A0380910B039091BF
:100A60000C032FBF08950F931F93F894F0DF0091AC
:100A70001103109112032091130330911403AB0161
:100A8000BC01401B510B620B730B8091150390E06E
:100A9000A0E0B0E0481759076A077B07D0F0D7DF1E
:100AA00060931103709312038093130390931403C4
:100AB00080911703811104C081E08093170302C065
:100AC0001092170380911603811103C081E0809377
:100AD000160378941F910F9108951F920F920FB6ED
:100AE0000F9211242F933F938F939F93AF93BF93B4
:100AF0008091090390910A03A0910B03B0910C031C
:100B00003091080323E0230F2D3720F40196A11D17
:100B1000B11D05C026E8230F0296A11DB11D20932B
:100B200008038093090390930A03A0930B03B093E7
:100B30000C0380910D0390910E03A0910F03B091CF
:100B400010030196A11DB11D80930D0390930E0318
:100B5000A0930F03B0931003BF91AF919F918F911A
:100B60003F912F910F900FBE0F901F9018951F92DD
:100B70000F920FB60F9211240BB60F922F933F9343
:100B80004F935F936F937F938F939F93AF93BF9395
:100B9000EF93FF93E0910E02F0910F021995FF91F0
:100BA000EF91BF91AF919F918F917F916F915F91E5
:100BB0004F913F912F910F900BBE0F900FBE0F9052
:100BC0001F9018951F920F920FB60F9211240BB61B
:100BD0000F922F933F934F935F936F937F938F93D6
:100BE0009F93AF93BF93EF93FF93E0910C02F0912B
:100BF0000D021995FF91EF91BF91AF919F918F9148
:100C00007F916F915F914F913F912F910F900BBE0C
:100C10000F900FBE0F901F9018951F920F920FB656
:100C20000F9211240BB60F922F933F934F935F9324
:100C30006F937F938F939F93AF93BF93EF93FF93A4
:100C4000E0910202F09103021995FF91EF91BF919B
:100C5000AF919F918F917F916F915F914F913F9154
:100C60002F910F900BBE0F900FBE0F901F901895F5
:100C70001F920F920FB60F9211240BB60F922F9363
:100C80003F934F935F936F937F938F939F93AF9314
:100C9000BF93EF93FF93E0910002F0910102199549
:100CA000FF91EF91BF91AF919F918F917F916F9144
:100CB0005F914F913F912F910F900BBE0F900FBE00
:100CC0000F901F9018951F920F920FB60F9211243C
:100CD0000BB60F922F933F934F935F936F937F9336
:100CE0008F939F93AF93BF93EF93FF93E0910A028B
:100CF000F0910B021995FF91EF91BF91AF919F91E8
:100D00008F917F916F915F914F913F912F910F90B4
:100D10000BBE0F900FBE0F901F9018951F920F9251
:100D20000FB60F9211240BB60F922F933F934F9350
:100D30005F936F937F938F939F93AF93BF93EF9343
:100D4000FF93E0910802F09109021995FF91EF914C
:100D5000BF91AF919F918F917F916F915F914F91D3
:100D60003F912F910F900BBE0F900FBE0F901F90D1
:100D700018951F920F920FB60F9211240BB60F9277
:100D80002F933F934F935F936F937F938F939F9393
:100D9000AF93BF93EF93FF93E0910602F0910702A8
:100DA0001995FF91EF91BF91AF919F918F917F9195
:100DB0006F915F914F913F912F910F900BBE0F90CC
:100DC0000FBE0F901F9018951F920F920FB60F92A3
:100DD00011240BB60F922F933F934F935F936F9312
:100DE0007F938F939F93AF93BF93EF93FF93E09184
:100DF0000402F09105021995FF91EF91BF91AF9117
:100E00009F918F917F916F915F914F913F912F9122
:100E10000F900BBE0F900FBE0F901F901895DC0126
:100E2000ED91FC910684F785E02D40E019940F9335
:100E30001F93CF93DF93EC01423018F08C818860D0
:100E40008C834F836887222329F0413019F48C81E9
:100E500084608C8364E670E080E090E0C0DD6C81AB
:100E600064FD31C0E881F9810684F785E02D42E018
:100E700063E0CE0119958BE496E40197F1F7E881E0
:100E8000F9810684F785E02D42E063E0CE011995F3
:100E900003E512E0C8010197F1F7E881F9810684C2
:100EA000F785E02D42E063E0CE011995C801019776
:100EB000F1F7E881F9810684F785E02D42E062E0F0
:100EC000CE01199514C06062CE01A9DF8BE496E4CF
:100ED0000197F1F76C816062CE01A1DF03E512E0BA
:100EE000C8010197F1F76C816062CE0198DFC801FB
:100EF0000197F1F76C816062CE0191DF8BEE90E09B
:100F00000197F1F784E08D836CE0CE0188DF61E02A
:100F1000CE0185DF8BE39FE10197F1F782E08E83BD
:100F200066E0CE017CDFE881F9810484F585E02D5F
:100F30006FEFCE01DF91CF911F910F911994EF9236
:100F4000FF920F931F93CF93DF93EC01062FF42EA4
:100F5000E22E8B85888B1092070310920603109265
:100F6000480310926A031092460311E01093450360
:100F70001092200361E084E183DA61E085E180DAA8
:100F80008091B9008E7F8093B9008091B9008D7FE8
:100F90008093B90088E48093B80085E48093BC0016
:100FA0008889109347038093690310924803109235
:100FB0006A037AD191E0811190E0998B992321F015
:100FC00080E594E062DB8E878989882331F01F8673
:100FD0001C8260E0CE010E961ADC2E2D4F2D602F64
:100FE000CE01DF91CF911F910F91FF90EF901FCF16
:100FF0001F920F920FB60F9211240BB60F922F93E0
:101000003F934F935F936F937F938F939F93AF9390
:10101000BF93EF93FF938091B900887F803609F4E6
:101020009CC068F5883209F45BC090F4803109F403
:1010300054C038F4882309F4F6C0883009F44DC050
:10104000F5C0883109F44CC0803209F45DC0EEC0AF
:10105000803409F468C048F4803309F455C08833FB
:1010600009F0E4C080934403D8C0803509F44FC030
:10107000883509F45DC0883409F0D8C0D6C08839F5
:1010800009F4C7C0A8F4883709F467C038F4883673
:1010900009F463C0803709F460C0C8C0883809F417
:1010A000B8C0803909F45FC0803809F0BFC05BC0A8
:1010B000803B09F486C038F4803A09F466C0883A67
:1010C00009F47FC0B3C0803C09F4A7C0883C09F490
:1010D000A4C0883B09F48AC0A9C08091210310C034
:1010E0009091430380914203981770F5E091430378
:1010F00081E08E0F80934303F0E0EE5DFC4F808132
:101100008093BB0085EC86C0809344038EC0E09141
:10111000430381E08E0F809343038091BB00F0E096
:10112000EE5DFC4F808390914303809142036EC03B
:10113000E091430381E08E0F809343038091BB00D5
:10114000F0E0EE5DFC4F80838091450381116DC01E
:1011500081E08093200384EA61C083E080934603AA
:1011600010920503CFCF80910503803208F051C063
:10117000E091050381E08E0F809305038091BB0011
:10118000F0E0EB51FD4F8083BDCF85EC8093BC0038
:101190001092460380910503803230F4E0910503FC
:1011A000F0E0EB51FD4F10826091050370E0E0919B
:1011B000E302F091E40285EE92E0199510920503A6
:1011C00035C084E0809346031092E2021092E1025F
:1011D000E091DF02F091E00219958091E102811126
:1011E00005C081E08093E1021092BF02E091E2022B
:1011F00081E08E0F8093E202F0E0E154FD4F8081A8
:101200008093BB009091E2028091E102981708F46C
:1012100079CF85E88093BC0009C085EC8093BC0041
:101220001092460303C010924403EED9FF91EF9150
:10123000BF91AF919F918F917F916F915F914F91EE
:101240003F912F910F900BBE0F900FBE0F901F90EC
:101250001895CF92DF92EF92FF920F931F93CF9347
:10126000DF936C017A018B01C0E0D0E0CE15DF0581
:1012700089F0D8016D918D01D601ED91FC9101901D
:10128000F081E02DC6011995892B11F47E0102C071
:101290002196ECCFC701DF91CF911F910F91FF9065
:1012A000EF90DF90CF90089520916A0390916903A9
:1012B000213208F04AC0809146038111FCCF32E010
:1012C0003093460331E0309345033FEF30934403BE
:1012D0001092430320934203A9E4B3E042E253E0B7
:1012E000FA013E2F341B321718F43D913193F9CF98
:1012F0001092210320912103990F922B90932103A7
:1013000090912003913061F4109220039091210379
:101310009093BB009091BC0093FDF8CF95EC01C079
:1013200095EE9093BC00909146039230E1F390913A
:1013300044039F3F79F080914403803241F08091D3
:101340004403803331F084E005C081E003C082E0D3
:1013500001C083E01092480310926A031092470381
:101360000895CF93DF9390E0FC01E853FE4F249162
:10137000FC01EE57FE4F84918823C1F090E0880F66
:10138000991FFC01E859FE4FC591D491FC01E25B25
:10139000FE4FA591B4919FB7F8943881822F809524
:1013A00083238883EC91E22BEC939FBFDF91CF9155
:1013B00008958F929F92AF92BF92CF92DF92EF9259
:1013C000FF926B017C0143DB4B015C01C60ED71E13
:1013D000E81EF91E3CDB681579058A059B0528F097
:1013E000C616D706E806F906A8F7FF90EF90DF903B
:1013F000CF90BF90AF909F908F900895CF93DF9341
:10140000CDB7DEB728970FB6F894DEBF0FBECDBFBD
:101410001D8290E49E8324E12F8324E5288719828E
:101420009A8390E19B8390E59C8390916304691774
:1014300010F06FEF690F40916404262F30E0FE0139
:10144000E20FF31F403121F4943011F4918101C077
:101450009581682F690F60688CE594E028960FB637
:10146000F894DEBF0FBECDBFDF91CF91D8CC611510
:10147000710579F0FB0101900020E9F73197AF0188
:10148000461B570BDC01ED91FC910280F381E02DAE
:10149000199480E090E008954F925F926F927F924E
:1014A000EF92FF920F931F93CF93DF93CDB7DEB7E9
:1014B000A1970FB6F894DEBF0FBECDBF7C01FA0135
:1014C000CB0119A2223008F42AE08E010F5D1F4FD4
:1014D000422E512C612C712CBF01A301920191D39A
:1014E000F901CA01015011096A3014F4605D01C0AC
:1014F000695CD8016C93232B242B252B69F7B80149
:10150000C701B5DFA1960FB6F894DEBF0FBECDBF01
:10151000DF91CF911F910F91FF90EF907F906F908F
:101520005F904F900895A3CF789484B5826084BD76
:1015300084B5816084BD85B5826085BD85B58160D7
:1015400085BD80916E00816080936E001092810055
:101550008091810082608093810080918100816010
:1015600080938100809180008160809380008091D1
:10157000B10084608093B1008091B000816080935D
:10158000B0008091910082608093910080919100E1
:1015900081608093910080919000816080939000A1
:1015A0008091A10082608093A1008091A100816060
:1015B0008093A1008091A00081608093A000809121
:1015C00021018260809321018091210181608093BB
:1015D00021018091200181608093200180917A0017
:1015E000846080937A0080917A00826080937A0090
:1015F00080917A00816080937A0080917A0080687F
:1016000080937A001092C10010924C0410924D0405
:1016100010924E0410924F0410920A0410920B0480
:1016200010920C0410920D0468EB7BE080E090E0D7
:10163000C0DE8BE693E090934B0480934A04E091E4
:101640007B03F0917C03D2E0D083E0917703F091AB
:1016500078031082E0917903F0917A0380E180832E
:1016600010928303E0917F03F0918003C6E0C08372
:10167000E0917D03F0917E03808180618083E09121
:101680007D03F0917E03808188608083E0917D03FB
:10169000F0917E03808180688083E0917D03F091EA
:1016A0007E0380818F7D8083D2D960930A047093FA
:1016B0000B0480930C0490930D0468E472E0809115
:1016C0004A0490914B042FDF6AE070E080E090E0E4
:1016D00070DE81E080931E0483E143DE82E141DE1F
:1016E00082E03FDE8DEB93E0909309028093080245
:1016F00080916900806380936900EA9A81EE93E0AB
:1017000090930B0280930A0280916900806C809311
:101710006900EB9A83E395E09093010280930002C5
:1017200080916A00836080936A00EC9A84E68093DB
:1017300015038DD9609311037093120380931303E3
:101740009093140362E370E080E090E048D920E0D9
:1017500044E064E18CE594E0F2DBE0915C04F0911C
:101760005D040484F585E02D6FEF8CE594E0199518
:10177000E0917B03F0917C03D083E0917703F091BB
:1017800078031082E0917903F0917A038FEC8083E3
:1017900010928303E0917F03F0918003C083E09176
:1017A0007D03F0917E03808180618083E0917D03E1
:1017B000F0917E03808188608083E0917D03F091C9
:1017C0007E03808180688083E0917D03F0917E03B9
:1017D00080818F7D808384EF882E99249394A12C1F
:1017E000B12C35D9672B682B692B39F430D962308D
:1017F00071058105910508F4F8C029D960931C038F
:1018000070931D0380931E0390931F03C0901803D1
:10181000D0901903E0901A03F0901B036C157D051E
:101820008E059F0540F4609318037093190380930D
:101830001A0390931B03C0901803D0901903E090F3
:101840001A03F0901B039B01AC012C193D094E09B2
:101850005F0969017A013AEFC316D104E104F1048A
:1018600008F4C3C0609318037093190380931A039C
:1018700090931B038092160490921704A092180470
:10188000B092190410921A0410921B0410921C04B6
:1018900010921D0480910E0490910F04A0911004E9
:1018A000B09111048093120490931304A093140434
:1018B000B0931504CCD860930E0470930F048093FA
:1018C000100490931104C3D860930A0470930B041E
:1018D00080930C0490930D04BAD86B017C016AE5E7
:1018E00072E080914A0490914B041DDE2AE041E0B1
:1018F00050E060E070E080914A0490914B04CCDDB0
:1019000061E672E080914A0490914B040CDE2AE07B
:10191000B701A60180914A0490914B04BDDD6DE7AB
:1019200072E080914A0490914B04FDDD80910E0499
:1019300090910F04A0911004B0911104B701A60179
:10194000481B590B6A0B7B0B2AE080914A0490914B
:101950004B04A2DD6DE772E080914A0490914B0444
:10196000E2DD40910E0450910F04609110047091DB
:1019700011048091120490911304A0911404B09169
:101980001504481B590B6A0B7B0B2AE080914A0413
:1019900090914B0481DD65E672E080914A0490915C
:1019A0004B04C1DD54D8AB01BC012AE080914A044C
:1019B00090914B0471DDE0904A04F0904B0467E68F
:1019C00072E0C70154DD67E572E0C70150DD65E0F4
:1019D00070E080E090E0EDDC3AD860930E04709304
:1019E0000F0480931004909311048091170360E01A
:1019F000811120C081E002DD6EE672E08CE594E0AA
:101A000092DD62E085E0FADC6FE772E08CE594E05D
:101A10008ADD62E088E0F2DC2AE044E650E060E043
:101A200070E08CE594E038DD62E08DE0E7DC61E8B1
:101A300072E04AC080E0E2DC63E872E08CE594E0AA
:101A400072DD62E081E0DADC67E972E08CE594E067
:101A50006ADD63E081E0D2DC2AE044E650E060E049
:101A600070E08CE594E018DDE0915C04F0915D0499
:101A70000190F081E02D6FED8CE594E019956DE912
:101A800072E08CE594E04FDD62E08CE0B7DC6FE95A
:101A900072E08CE594E047DD63E08CE0AFDC2AE0A7
:101AA00044E650E060E070E08CE594E0F5DCE09125
:101AB0005C04F0915D040190F081E02D6FED8CE508
:101AC00094E019956DE972E08CE594E02CDD80914D
:101AD0001603882311F160E080E090DC64EA72E094
:101AE0008CE594E020DD61E080E088DC64EA72E06F
:101AF0008CE594E018DD62E080E080DC64EA72E06E
:101B00008CE594E010DD63E080E078DC64EA72E06C
:101B10008CE594E008DD109216030E94080261CE65
:101B2000EBE6F3E01382128288EE93E0A0E0B0E0EF
:101B300084839583A683B78324E132E031832083B5
:101B400025EC30E03587248724EC30E03787268782
:101B500020EC30E0318B208B21EC30E0338B228B7A
:101B600022EC30E0358B248B26EC30E0378B268B53
:101B7000118E128E138E148EE8E0F4E01682178216
:101B80001086118612861386148615861686178689
:101B9000108A118A128A138A148A158AE0E5F4E001
:101BA0001382128284839583A683B78386E292E0B0
:101BB00091838083ECE5F4E01382128288E392E063
:101BC00091838083108A8FEF87871686118A87E238
:101BD0008387148615861286118684E0828B82E0C4
:101BE000838B81E0848B80E1858B80E2868B80E42F
:101BF000878B80E8808F40E050E063E0CF010C9459
:101C0000E302A1E21A2EAA1BBB1BFD010DC0AA1FF5
:101C1000BB1FEE1FFF1FA217B307E407F50720F055
:101C2000A21BB30BE40BF50B661F771F881F991FD0
:101C30001A9469F760957095809590959B01AC0119
:101C4000BD01CF010895EE0FFF1F881F8BBF0790C6
:101C5000F691E02D199481E090E0F89400C0F8949A
:021C6000FFCFB4
:101C6200E202E202E202E202E202E202E202E20252
:101C720000000000A10129093A01E7016B014901B5
:101C82005D01000000008B035C03BA0336035403BA
:101C92004503370300000000F7022909BA03B9031C
:101CA2009F07E30277045804564D4450565F317C37
:101CB200315F564D4450560D0A00564D4450455F13
:101CC200003A323A007C005F564D445045005A6952
:101CD200656C74656D70657261747572203A003E50
:101CE200003C004865697A766F7267616E672061B1
:101CF2006B746976202100536F6C6C3A0043004983
:101D020073743A0020202020202020202020202030
:0A1D120020202020202020200000C7
:00000001FF
