:1000000014C100003BC700000EC70000E1C600009D
:10001000B4C6000087C600005AC600002DC6000006
:1000200000C6000033C1000031C100002FC1000034
:100030002DC100002BC1000029C1000027C1000014
:1000400025C1000023C1000021C100001FC1000024
:100050001DC100001BC1000019C1000098C50000AF
:1000600015C100001FC40000F4C300000FC1000050
:100070000DC100000BC1000009C1000007C1000054
:1000800005C1000003C1000001C10000FFC0000065
:10009000FDC00000FBC00000F9C000000C94520835
:1000A000F5C00000F3C00000F1C00000EFC0000088
:1000B000EDC00000EBC00000E9C00000E7C0000098
:1000C000E5C00000E3C00000E1C00000DFC00000A8
:1000D000DDC00000DBC00000D9C00000D7C00000B8
:1000E000D5C00000A304A604950499049F04DD0470
:1000F000AA04AE04B404B804BC04C204C604CA040E
:10010000DD04D004D404D80400002100240027001A
:100110002A002D0030003300010100000401070116
:100120000A0100002200250028002B002E003100CB
:10013000340002010000050108010B01000020004D
:100140002300260029002C002F00320000010000AF
:10015000030106010901050505050705080808084A
:10016000020202020A0A080804040404010101014F
:10017000010101010303030303030303040707074A
:100180000C0C0C0C0C0C0C0C0202020206060606EF
:10019000060606060B0B0B0B0B0B0B0B01021020BC
:1001A00020080810204010204080020102010804AD
:1001B0000201010204081020408080402010080441
:1001C000020180040201804020100804020108049A
:1001D00002010102040810204080010204081020DE
:1001E000408000000A0B02090C0D0E0807030401F1
:1001F00000000000000000000000000000000000FF
:1002000000000000000000000000000000001211CB
:1002100010000000000000000000000000000000CE
:1002200000000000000000007C0F11241FBECFEF73
:10023000D1E2DEBFCDBF00E00CBF24E0ACEDB2E008
:1002400001C01D92A73AB207E1F712E0A0E0B2E0C8
:10025000E6EDF3E200E00BBF02C007900D92AC3D6B
:10026000B107D9F711E0C5E1D1E000E006C0219760
:100270000109802FFE010E94DD11C431D10780E009
:100280000807A9F70E942D0B0C94E911B9CEFC01C7
:10029000538D448D252F30E0842F90E0821B930BEB
:1002A000541710F0CF96089501970895FC01918D91
:1002B000828D981761F0828DDF01A80FB11D5D96C8
:1002C0008C91928D9F5F9F73928F90E008958FEF36
:1002D0009FEF0895FC01918D828D981731F0828DEA
:1002E000E80FF11D858D90E008958FEF9FEF089541
:1002F000FC01918D228D892F90E0805C9F4F821BA5
:1003000091098F7399270895FC01848DDF01A80F4F
:10031000B11DA35ABF4F2C91848D90E001968F732D
:100320009927848FA689B7892C93A089B1898C914C
:1003300080648C93938D848D981306C00288F38912
:10034000E02D80818F7D80830895EF92FF920F933F
:100350001F93CF93DF93EC0181E0888F9B8D8C8D71
:10036000981305C0E889F989808185FD23C0F62EA0
:100370000B8D10E00F5F1F4F0F731127E02E8C8D38
:10038000E8120BC00FB607FCFACFE889F989808123
:1003900085FFF5CFCE01B8DFF2CF8B8DFE01E80FE0
:1003A000F11DE35AFF4FF0820B8FEA89FB898081B0
:1003B000806207C0EE89FF896083E889F9898081BE
:1003C0008064808381E090E0DF91CF911F910F9155
:1003D000FF90EF900895CF93DF93EC01888D8823F1
:1003E000C1F0EA89FB89808185FD05C0A889B989AA
:1003F0008C9186FD0EC00FB607FCF5CF808185FF7E
:10040000F2CFA889B9898C9185FFEDCFCE017CDF31
:10041000E8CFDF91CF91089580E090E0892B19F02B
:1004200072D7811125C080E090E0892B41F080E0F7
:1004300090E0892B21F00E94000081111CC080E017
:1004400090E0892B41F080E090E0892B21F00E9420
:100450000000811113C080E090E0892BA1F080E0C2
:1004600090E0892B81F00E94000081110AC008955C
:100470000E940000D8CF0E940000E1CF0E9400003F
:10048000EACF0C94000008953FB7F89480912D03B3
:1004900090912E03A0912F03B091300326B5A89B15
:1004A00005C02F3F19F00196A11DB11D3FBFBA2F06
:1004B000A92F982F8827820F911DA11DB11DBC0166
:1004C000CD0142E0660F771F881F991F4A95D1F72B
:1004D0000895089521E001C0220F6A95EAF7DC0132
:1004E0001C962C931C971A965C934E931997ED913A
:1004F000FC910484F585E02D60E01994DC01ED9118
:10050000FC910684F785E02D41E0199581E090E0AB
:1005100008950895089585ED8093BC008091BC00F6
:1005200084FDFCCF10927503089540910103262F9E
:1005300030E0240F311D21323105DCF420917503A8
:100540002430C9F4FC0180E090E0861758F4309123
:1005500001032191DC01A152BD4FA30FB11D2C93CA
:100560000196F3CF80910103680F6093010380E04F
:10057000089581E0089582E00895089581E090E073
:100580003091270320912603321710F480E090E089
:100590009195819591090895809127039091260363
:1005A000891730F48F5F8093270380E090E00895EF
:1005B0008FEF9FEF08958091260390E0209127030D
:1005C000821B91090895CF92DF92EF92FF920F93D1
:1005D0001F93CF93DF937C01262F972F8A01809161
:1005E0007603882391F0C62FD72F6E01C40ED51E37
:1005F000CC15DD0569F06991D701ED91FC91019071
:10060000F081E02DC7011995F3CF642F822F8DDF84
:10061000C801DF91CF911F910F91FF90EF90DF9074
:10062000CF900895CF93DF931F92CDB7DEB7698344
:10063000209176032223D1F020919903203240F0BB
:1006400021E030E0FC013383228380E090E014C09D
:1006500080917703E82FF0E0E858FC4F9981908370
:100660008F5F809377038093990304C061E0CE018C
:1006700001965BDF81E090E00F90DF91CF910895CC
:10068000089580E090E00895F89489B18C7080938B
:10069000DE028091DE028C3021F48091DD02811136
:1006A00009C08091DE02843019F481E08093DC027D
:1006B000789408958091110290911202029718F493
:1006C00081E090E005C080911102909112020197A3
:1006D00090931202809311021092DC021092DD02BC
:1006E000E7CFF89489B18C708093DE028091DE02AE
:1006F0008C3021F48091DC02811109C08091DE02EE
:10070000883019F481E08093DD0278940895809117
:10071000110290911202899718F088E290E005C0CA
:10072000809111029091120201969093120280938F
:1007300011021092DC021092DD02E7CF0E94E51157
:10074000FC0123812223A9F0918190956923608384
:10075000828191E0909376038093980310927703BF
:10076000109299038FE794E05DDF02D6282F30E0E6
:1007700002C020E030E081E090E0232B11F080E027
:1007800090E00895EF92FF920F931F93CF938C0107
:10079000FC01759684E0C0E060FF02C09081C92B27
:1007A0006695815031968111F7CF413011F4F801EF
:1007B0004489F8018585C82BC42B7801FEE0EF0E33
:1007C000F11CF80162896C2BC701BADFF80162895C
:1007D00060956C23C701CF911F910F91FF90EF900F
:1007E000AFCF0F931F93CF93DF93062F0F7042303D
:1007F00019F440E0602F0FC0142F262FEC0130E0D9
:10080000B90184E0759567958A95E1F7CE01BADF65
:10081000412F602FCE01DF91CF911F910F91B2CF69
:10082000FC0184858823A1F02185328521153105BD
:1008300019F4611106C007C02130310521F461119E
:1008400002C0858701C015866585CF010E9678CFD9
:1008500008951F920F920FB60F9211240BB60F92AC
:100860002F933F934F935F936F937F938F939F93B8
:10087000AF93BF93EF93FF938AE993E045DDFF9138
:10088000EF91BF91AF919F918F917F916F915F9108
:100890004F913F912F910F900BBE0F900FBE0F9075
:1008A0001F9018951F920F920FB60F9211240BB63E
:1008B0000F922F938F939F93EF93FF93E091AA034F
:1008C000F091AB038081E091B003F091B10382FD20
:1008D00012C090818091B3038F5F8F732091B40316
:1008E000821751F0E091B303F0E0E656FC4F958F8C
:1008F0008093B30301C08081FF91EF919F918F910D
:100900002F910F900BBE0F900FBE0F901F90189558
:1009100090E0FC013197E231F10508F04EC08827E4
:10092000EE58FF4F8F4F0C94DD11809180008F7730
:1009300003C0809180008F7D809380000895809116
:100940008000877FF9CF84B58F7702C084B58F7D13
:1009500084BD08958091B0008F7703C08091B0006E
:100960008F7D8093B0000895809190008F7707C0AD
:10097000809190008F7D03C080919000877F80934D
:10098000900008958091A0008F7707C08091A0000B
:100990008F7D03C08091A000877F8093A000089581
:1009A000809120018F7707C0809120018F7D03C047
:1009B00080912001877F8093200108951F93CF931A
:1009C000DF93282F30E0F901EE51FE4F8491F901B9
:1009D000E456FE4FD491F901EA5AFE4FC491CC235C
:1009E000C1F0162F811194DFEC2FF0E0EE0FFF1F06
:1009F000EE5DFE4FA591B4918FB7F894111105C02B
:100A00009C91ED2FE095E92302C0EC91ED2BEC9346
:100A10008FBFDF91CF911F910895CF93DF9390E027
:100A2000FC01E456FE4F2491FC01EA5AFE4F8491EA
:100A3000882361F190E0880F991FFC01E85FFE4F69
:100A4000C591D491FC01EE5DFE4FA591B491611169
:100A500009C09FB7F8948881209582238883EC9100
:100A60002E230BC0623061F49FB7F8943881822F37
:100A7000809583238883EC912E2B2C939FBF06C0F7
:100A80008FB7F894E8812E2B28838FBFDF91CF9109
:100A900008958F929F92AF92BF92CF92DF92EF9282
:100AA000FF926B017C01F0DC4B015C01C114D104AD
:100AB000E104F104E9F0E8DCDC01CB0188199909D3
:100AC000AA09BB09883E9340A105B10578F321E04E
:100AD000C21AD108E108F10888EE880E83E0981E5A
:100AE000A11CB11CC114D104E104F10421F7DECF33
:100AF000FF90EF90DF90CF90BF90AF909F908F903E
:100B000008952FB7F8946091290370912A0380917A
:100B10002B0390912C032FBF08950F931F93F894EC
:100B2000F0DF0091310310913203209133033091B3
:100B30003403AB01BC01401B510B620B730B809162
:100B4000350390E0A0E0B0E0481759076A077B073B
:100B5000D0F0D7DF60933103709332038093330377
:100B60009093340380913603811104C081E0809317
:100B7000360302C01092360380911002811103C027
:100B800081E08093100278941F910F9108951F9235
:100B90000F920FB60F9211242F933F938F939F9331
:100BA000AF93BF938091290390912A03A0912B03C7
:100BB000B0912C033091280323E0230F2D3720F42C
:100BC0000196A11DB11D05C026E8230F0296A11DA7
:100BD000B11D209328038093290390932A03A093A7
:100BE0002B03B0932C0380912D0390912E03A091A1
:100BF0002F03B09130030196A11DB11D80932D03E9
:100C000090932E03A0932F03B0933003BF91AF9125
:100C10009F918F913F912F910F900FBE0F901F903A
:100C200018951F920F920FB60F9211240BB60F92C8
:100C30002F933F934F935F936F937F938F939F93E4
:100C4000AF93BF93EF93FF93E0910E02F0910F02E9
:100C50001995FF91EF91BF91AF919F918F917F91E6
:100C60006F915F914F913F912F910F900BBE0F901D
:100C70000FBE0F901F9018951F920F920FB60F92F4
:100C800011240BB60F922F933F934F935F936F9363
:100C90007F938F939F93AF93BF93EF93FF93E091D5
:100CA0000C02F0910D021995FF91EF91BF91AF9158
:100CB0009F918F917F916F915F914F913F912F9174
:100CC0000F900BBE0F900FBE0F901F9018951F92A4
:100CD0000F920FB60F9211240BB60F922F933F93E2
:100CE0004F935F936F937F938F939F93AF93BF9334
:100CF000EF93FF93E0910202F09103021995FF91A7
:100D0000EF91BF91AF919F918F917F916F915F9183
:100D10004F913F912F910F900BBE0F900FBE0F90F0
:100D20001F9018951F920F920FB60F9211240BB6B9
:100D30000F922F933F934F935F936F937F938F9374
:100D40009F93AF93BF93EF93FF93E0910002F091D5
:100D500001021995FF91EF91BF91AF919F918F91F2
:100D60007F916F915F914F913F912F910F900BBEAB
:100D70000F900FBE0F901F9018951F920F920FB6F5
:100D80000F9211240BB60F922F933F934F935F93C3
:100D90006F937F938F939F93AF93BF93EF93FF9343
:100DA000E0910A02F0910B021995FF91EF91BF912A
:100DB000AF919F918F917F916F915F914F913F91F3
:100DC0002F910F900BBE0F900FBE0F901F90189594
:100DD0001F920F920FB60F9211240BB60F922F9302
:100DE0003F934F935F936F937F938F939F93AF93B3
:100DF000BF93EF93FF93E0910802F09109021995D8
:100E0000FF91EF91BF91AF919F918F917F916F91E2
:100E10005F914F913F912F910F900BBE0F900FBE9E
:100E20000F901F9018951F920F920FB60F921124DA
:100E30000BB60F922F933F934F935F936F937F93D4
:100E40008F939F93AF93BF93EF93FF93E09106022D
:100E5000F09107021995FF91EF91BF91AF919F918A
:100E60008F917F916F915F914F913F912F910F9053
:100E70000BBE0F900FBE0F901F9018951F920F92F0
:100E80000FB60F9211240BB60F922F933F934F93EF
:100E90005F936F937F938F939F93AF93BF93EF93E2
:100EA000FF93E0910402F09105021995FF91EF91F3
:100EB000BF91AF919F918F917F916F915F914F9172
:100EC0003F912F910F900BBE0F900FBE0F901F9070
:100ED0001895DC01ED91FC910684F785E02D40E04A
:100EE00019940F931F93CF93DF93EC01423018F0C6
:100EF0008C8188608C834F836887222329F041305E
:100F000019F48C8184608C8364E670E080E090E06A
:100F1000C0DD6C8164FD31C0E881F9810684F7850C
:100F2000E02D42E063E0CE0119958BE496E4019751
:100F3000F1F7E881F9810684F785E02D42E063E06E
:100F4000CE01199503E512E0C8010197F1F7E88198
:100F5000F9810684F785E02D42E063E0CE01199522
:100F6000C8010197F1F7E881F9810684F785E02D42
:100F700042E062E0CE01199514C06062CE01A9DFA3
:100F80008BE496E40197F1F76C816062CE01A1DFFA
:100F900003E512E0C8010197F1F76C816062CE01B0
:100FA00098DFC8010197F1F76C816062CE0191DF93
:100FB0008BEE90E00197F1F784E08D836CE0CE0139
:100FC00088DF61E0CE0185DF8BE39FE10197F1F7D8
:100FD00082E08E8366E0CE017CDFE881F9810484C3
:100FE000F585E02D6FEFCE01DF91CF911F910F912D
:100FF0001994EF92FF920F931F93CF93DF93EC011D
:10100000062FF42EE22E8B85888B109227031092E8
:10101000260310927703109299031092750311E042
:101020001093740310924F0361E084E1C7DC61E028
:1010300085E1C4DC8091B9008E7F8093B9008091F6
:10104000B9008D7F8093B90088E48093B80085E46F
:101050008093BC0088891093760380939803109244
:1010600077031092990384D191E0811190E0998BDC
:10107000992321F08FE794E08FDA8E87898988237E
:1010800031F01F861C8260E0CE010E9659DB2E2DBA
:101090004F2D602FCE01DF91CF911F910F91FF90C7
:1010A000EF901FCF1F920F920FB60F9211240BB625
:1010B0000F922F933F934F935F936F937F938F93F1
:1010C0009F93AF93BF93EF93FF938091B900887F75
:1010D000803609F49CC068F5883209F45BC090F44E
:1010E000803109F454C038F4882309F4F6C08830FC
:1010F00009F44DC0F5C0883109F44CC0803209F4C0
:101100005DC0EEC0803409F468C048F4803309F44F
:1011100055C0883309F0E4C080937303D8C080358C
:1011200009F44FC0883509F45DC0883409F0D8C08F
:10113000D6C0883909F4C7C0A8F4883709F467C055
:1011400038F4883609F463C0803709F460C0C8C039
:10115000883809F4B8C0803909F45FC0803809F0D4
:10116000BFC05BC0803B09F486C038F4803A09F404
:1011700066C0883A09F47FC0B3C0803C09F4A7C0B8
:10118000883C09F4A4C0883B09F48AC0A9C08091B6
:10119000500310C09091720380917103981770F5FD
:1011A000E091720381E08E0F80937203F0E0EF5ABA
:1011B000FC4F80818093BB0085EC86C080937303D5
:1011C0008EC0E091720381E08E0F80937203809154
:1011D000BB00F0E0EF5AFC4F808390917203809146
:1011E00071036EC0E091720381E08E0F80937203F1
:1011F0008091BB00F0E0EF5AFC4F80838091740334
:1012000081116DC081E080934F0384EA61C083E067
:101210008093750310922503CFCF809125038032F0
:1012200008F051C0E091250381E08E0F80932503E3
:101230008091BB00F0E0EB5FFC4F8083BDCF85EC7D
:101240008093BC001092750380912503803230F4A6
:10125000E0912503F0E0EB5FFC4F108260912503E5
:1012600070E0E0910303F091040385E093E01995A9
:101270001092250335C084E0809375031092020319
:1012800010920103E091FF02F09100031995809103
:101290000103811105C081E0809301031092DF02F8
:1012A000E091020381E08E0F80930203F0E0E152AF
:1012B000FD4F80818093BB009091020380910103D8
:1012C000981708F479CF85E88093BC0009C085ECB5
:1012D0008093BC001092750303C0109273031BD956
:1012E000FF91EF91BF91AF919F918F917F916F91FE
:1012F0005F914F913F912F910F900BBE0F900FBEBA
:101300000F901F9018958AE993E00E94780121E0E0
:10131000892B09F420E0822F0895CF92DF92EF927B
:10132000FF920F931F93CF93DF936C017A018B0190
:10133000C0E0D0E0CE15DF0589F0D8016D918D01B8
:10134000D601ED91FC910190F081E02DC601199537
:10135000892B11F47E0102C02196ECCFC701DF91E9
:10136000CF911F910F91FF90EF90DF90CF90089554
:101370002091990390919803213208F04AC08091FE
:1013800075038111FCCF32E03093750331E0309367
:1013900074033FEF30937303109272032093710331
:1013A000A8E7B3E041E553E0FA013E2F341B3217C2
:1013B00018F43D913193F9CF1092500320915003CE
:1013C000990F922B9093500390914F03913061F4B9
:1013D00010924F03909150039093BB009091BC00EA
:1013E00093FDF8CF95EC01C095EE9093BC009091E1
:1013F00075039230E1F3909173039F3F79F08091F0
:101400007303803241F080917303803331F084E0C4
:1014100005C081E003C082E001C083E01092770341
:10142000109299031092760308958F929F92AF9233
:10143000BF92CF92DF92EF92FF926B017C0161DB52
:101440004B015C01C60ED71EE81EF91E5ADB68155B
:1014500079058A059B0528F0C616D706E806F90621
:10146000A8F7FF90EF90DF90CF90BF90AF909F9044
:101470008F900895DF92EF92FF920F931F93CF9377
:10148000DF93C7E0D0E0E12C01E010E060E0809164
:101490008B0494DA8FE99FE00197F1F700C0000018
:1014A00020918C0430E0F901EE51FE4F8491F90156
:1014B000E456FE4FD490F901EA5AFE4FF490FF2013
:1014C00069F0811125DAEF2DF0E0EE0FFF1FE45CEB
:1014D000FE4FA591B491EC91ED21B1F461E08091C2
:1014E0008B046CDA8FE99FE00197F1F700C00000F0
:1014F000219708F0CBCF8E2DDF91CF911F910F91C7
:10150000FF90EF90DF900895C8010C2E01C0880F66
:101510000A94EAF7E82AE2CFCF93DF93CDB7DEB79C
:1015200028970FB6F894DEBF0FBECDBF1D8290E4A2
:101530009E8324E12F8324E5288719829A8390E1F2
:101540009B8390E59C8390919504691710F06FEF51
:10155000690F40919604262F30E0FE01E20FF31F41
:10156000403121F4943011F4918101C09581682FAC
:10157000690F60688EE894E028960FB6F894DEBF95
:101580000FBECDBFDF91CF91A4CCE0918E04F0913E
:101590008F040190F081E02D682F8EE894E019947B
:1015A0006115710579F0FB0101900020E9F7319791
:1015B000AF01461B570BDC01ED91FC910280F381DA
:1015C000E02D199480E090E008954F925F926F9221
:1015D0007F92EF92FF920F931F93CF93DF93CDB73C
:1015E000DEB7A1970FB6F894DEBF0FBECDBF7C016A
:1015F000FA01CB0119A2223008F42AE08E010F5D16
:101600001F4F422E512C612C712CBF01A30192015E
:1016100019D6F901CA01015011096A3014F4605D4C
:1016200001C0695CD8016C93232B242B252B69F70F
:10163000B801C701B5DFA1960FB6F894DEBF0FBEA3
:10164000CDBFDF91CF911F910F91FF90EF907F90D1
:101650006F905F904F900895A3CF789484B5826087
:1016600084BD84B5816084BD85B5826085BD85B546
:10167000816085BD80916E00816080936E001092C4
:10168000810080918100826080938100809181003F
:1016900081608093810080918000816080938000D0
:1016A0008091B10084608093B1008091B00081602E
:1016B0008093B0008091910082608093910080912E
:1016C000910081608093910080919000816080936F
:1016D00090008091A10082608093A1008091A10080
:1016E00081608093A1008091A00081608093A00020
:1016F000809121018260809321018091210181608C
:10170000809321018091200181608093200180914C
:101710007A00846080937A0080917A00826080935E
:101720007A0080917A00816080937A0080917A00BB
:10173000806880937A001092C10010927B0410920E
:101740007C0410927D0410927E0410923904109251
:101750003A0410923B0410923C0468EB7BE080E07A
:1017600090E063DE8AE993E090937A0480937904B1
:10177000E091AA03F091AB0382E08083E091A6039D
:10178000F091A7031082E091A803F091A90380E1F2
:1017900080831092B203E091AE03F091AF0386E034
:1017A0008083E091AC03F091AD0380818061808300
:1017B000E091AC03F091AD03808188608083E0917B
:1017C000AC03F091AD03808180688083E091AC032D
:1017D000F091AD0380818F7D808393D9609339042C
:1017E00070933A0480933B0490933C046BE472E062
:1017F0008091790490917A042FDF6AE070E080E0B4
:1018000090E013DE81E080934D0462E083E105D92E
:1018100062E082E102D962E082E0FFD884E493E0F2
:1018200090930902809308028091690080638093FD
:101830006900EA9A81E793E090930B0280930A0291
:1018400080916900806C80936900EB9A8DE895E047
:10185000909301028093000280916A0083608093DC
:101860006A00EC9A84E6809335034BD96093310388
:1018700070933203809333039093340362E370E0F8
:1018800080E090E006D920E044E064E18EE894E056
:10189000B0DBE0918E04F0918F040484F585E02D97
:1018A0006FEF8EE894E019952CD960934303709301
:1018B0004403809345039093460323D9672B682BF9
:1018C000692B39F41ED9623071058105910508F440
:1018D000FCC017D960934B0370934C0380934D0366
:1018E00090934E03C0904703D0904803E090490383
:1018F000F0904A036C157D058E059F0540F46093BA
:101900004703709348038093490390934A03C09020
:101910004703D0904803E0904903F0904A039B01AD
:10192000AC012C193D094E095F0969017A013AEFB2
:10193000C316D104E104F10408F4C7C0609347035F
:10194000709348038093490390934A0384EF91E096
:10195000A0E0B0E08093450490934604A093470430
:10196000B09348041092490410924A0410924B0418
:1019700010924C0480913D0490913E04A0913F044C
:10198000B09140048093410490934204A093430497
:10199000B0934404B6D860933D0470933E048093A2
:1019A0003F0490934004ADD86093390470933A0497
:1019B00080933B0490933C04A4D86B017C016DE5BB
:1019C00072E08091790490917A0446DE2AE041E049
:1019D00050E060E070E08091790490917A04F5DD48
:1019E00064E672E08091790490917A0435DE2AE011
:1019F000B701A6018091790490917A04E6DD64E94B
:101A000072E08091790490917A0426DE80913D0401
:101A100090913E04A0913F04B0914004B701A6010B
:101A2000481B590B6A0B7B0B2AE08091790490913B
:101A30007A04CBDD64E972E08091790490917A04B4
:101A40000BDE40913D0450913E0460913F04709143
:101A500040048091410490914204A0914304B091CC
:101A60004404481B590B6A0B7B0B2AE080917904D4
:101A700090917A04AADD68E672E0809179049091F1
:101A80007A04EADD3ED8AB01BC012AE080917904FA
:101A900090917A049ADDE0907904F0907A046AE6F5
:101AA00072E0C7017DDD6AE572E0C70179DD65E0BE
:101AB00070E080E090E0B9DC24D860933D0470933E
:101AC0003E0480933F04909340048091360360E08D
:101AD000811143C021DD61E772E08EE894E0BCDD56
:101AE00062E081E019DD65E872E08EE894E0B4DD43
:101AF00063E083E011DD66E972E08EE894E0ACDD3E
:101B000063E087E009DD80911102909112020A974B
:101B100040F46AED72E08EE894E09EDD63E088E0D8
:101B2000FBDC80911102909112022AE0289FA00113
:101B3000299F500D112460E070E08EE894E045DDAF
:101B40008FED23DD68E972E08EE894E085DD63E0E7
:101B50008FE0E2DC6AE972E0F1C080E0DDDC6CE994
:101B600072E08EE894E078DD62E081E0D5DC60EB45
:101B700072E08EE894E070DD63E081E0CDDC80917E
:101B80001102909112020A9740F46AED72E08EE819
:101B900094E062DD63E082E0BFDC8091110290910D
:101BA00012022AE0289FA001299F500D112460E015
:101BB00070E08EE894E009DD8FEDE7DC68E972E023
:101BC0008EE894E049DD62E08BE0A6DC66EB72E033
:101BD0008EE894E041DD63E08BE09EDC20E030E0C5
:101BE00048EC52E460913F037091400380914103BF
:101BF000909142030ED287FF08C06AED72E08EE832
:101C000094E02ADD63E08CE087DCC0903F03D09055
:101C10004003E0904103F0904203A7019601C70101
:101C2000B601C7D3882319F06BEB72E018C04601E8
:101C30005701E894B7F82FEF3FEF4FE75FE7C50193
:101C4000B401B7D381110FC02FEF3FEF4FE75FE72C
:101C5000C501B401DED1181634F46FEB72E08EE8E2
:101C600094E09EDC67C02FEF3FEF4FE75FE4C701D2
:101C7000B6019BD318161CF463EC72E0F0CF2FEF83
:101C80003FEF4FE75FECC701B601C3D187FDF4CF4B
:101C900020E030E0A901C701B601BBD187FF06C033
:101CA0008DE273DCF7FAF094F7F8F0942AE037ED60
:101CB00043EA5BE3C701B601E8D24B015C0149D3BB
:101CC0006B017C01AAD19B01AC01C501B401DCD23E
:101CD0004B015C012AE0B701A6018EE894E075DCB7
:101CE0008EE253DC20E030E040E251E4C501B40173
:101CF000F5D14B015C012DD36B01E12CF12C2AE0D5
:101D0000B701A6018EE894E060DCC701B60185D179
:101D10009B01AC01C501B401B7D220E030E040E244
:101D200051E4DCD116D3AB0160E070E02AE08EE82C
:101D300094E04BDC8FED29DC68E972E08EE894E0FA
:101D40008BDC80911002882311F160E080E0E4DBFD
:101D500067EC72E08EE894E07FDC61E080E0DCDB41
:101D600067EC72E08EE894E077DC62E080E0D4DB40
:101D700067EC72E08EE894E06FDC63E080E0CCDB3F
:101D800067EC72E08EE894E067DC109210028091BC
:101D90003603882309F4ADC00E948105C090430337
:101DA000D0904403E0904503F0904603DC01CB0162
:101DB0008C199D09AE09BF09883E9340A105B10564
:101DC00008F497C060E080918D040E94DE048FE9E2
:101DD0009FE00197F1F700C000004CDBE82EF12CEA
:101DE000FE2CEE2447DBE82A61E080918D040E94FE
:101DF000DE04E2FC0FC0B70183E0769567958A9513
:101E0000E1F780E090E009D120E030E040E85EE3D7
:101E100065D104C060E070E080EC9FE720E030E036
:101E200040E450E431D26B017C0160933F03709336
:101E3000400380934103909342036091110270919B
:101E4000120280E090E0E9D020E030E040E251E48E
:101E500045D12EEA37E441E85FE340D12B013C0154
:101E600060933B0370933C0380933D0390933E0348
:101E7000609111027091120280E090E0CED020E0DB
:101E800030E040E251E42AD124EA30E74DE75FE355
:101E900025D14B015C016093370370933803809325
:101EA000390390933A03A3019201C701B6017DD291
:101EB000181634F460E085E00E94DE0460E00CC097
:101EC000A5019401C701B601A4D087FF08C061E055
:101ED00085E00E94DE0461E086E00E94DE040E944C
:101EE000810560934303709344038093450390936B
:101EF00046030E940C02E1CCCF93DF93EAE9F3E0C2
:101F00001382128288EE93E0A0E0B0E08483958390
:101F1000A683B78327E132E03183208325EC30E0CC
:101F20003587248724EC30E03787268720EC30E0A3
:101F3000318B208B21EC30E0338B228B22EC30E094
:101F4000358B248B26EC30E0378B268B118E128E4E
:101F5000138E148EE7E3F4E0168217821086118642
:101F6000128613861486158616861786108A118A9D
:101F7000128A138A148A158AEFE7F4E01382128218
:101F800084839583A683B78389E292E091838083DB
:101F9000CBE8D4E087E0888388E08A838CE089837B
:101FA00061E088E00E940D0561E088810E940D05D6
:101FB00060E089810E940D0561E08A810E94DE0453
:101FC000EEE8F4E0138212828BE392E09183808347
:101FD000108A8FEF87871686118A87E28387148697
:101FE00015861286118684E0828B82E0838B81E0E5
:101FF000848B80E1858B80E2868B80E4878B80E810
:10200000808F40E050E063E0CF01DF91CF910C94EE
:102010006A0240D008F481E00895E89409C097FB73
:102020003EF490958095709561957F4F8F4F9F4FAF
:102030009923A9F0F92F96E9BB279395F6958795F3
:1020400077956795B795F111F8CFFAF4BB0F11F4B6
:1020500060FF1BC06F5F7F4F8F4F9F4F16C088235D
:1020600011F096E911C0772321F09EE8872F762F93
:1020700005C0662371F096E8862F70E060E02AF0D4
:102080009A95660F771F881FDAF7880F96958795C0
:1020900097F90895990F0008550FAA0BE0E8FEEF95
:1020A00016161706E807F907C0F012161306E4071C
:1020B000F50798F0621B730B840B950B39F40A2615
:1020C00061F0232B242B252B21F408950A2609F4F3
:1020D000A140A6958FEF811D811D08950BD078C07A
:1020E00069D028F06ED018F0952309F05AC05FC06F
:1020F0001124A2C07ED0A0F3959FD1F3950F50E09C
:10210000551F629FF001729FBB27F00DB11D639FA9
:10211000AA27F00DB11DAA1F649F6627B00DA11D4F
:10212000661F829F2227B00DA11D621F739FB00DF5
:10213000A11D621F839FA00D611D221F749F332765
:10214000A00D611D231F849F600D211D822F762FFE
:102150006A2F11249F5750408AF0E1F088234AF0FB
:10216000EE0FFF1FBB1F661F771F881F9150504047
:10217000A9F79E3F510570F014C05EC05F3FECF3BD
:10218000983EDCF3869577956795B795F795E79533
:102190009F5FC1F7FE2B880F911D9695879597F944
:1021A000089597F99F6780E870E060E008959FEFD9
:1021B00080EC089500240A941616170618060906DE
:1021C000089500240A9412161306140605060895AD
:1021D000092E0394000C11F4882352F0BB0F40F435
:1021E000BF2B11F460FF04C06F5F7F4F8F4F9F4F75
:1021F000089557FD9058440F551F59F05F3F71F0F7
:102200004795880F97FB991F61F09F3F79F087955D
:102210000895121613061406551FF2CF4695F1DFE6
:1022200008C0161617061806991FF1CF8695710576
:10223000610508940895E894BB2766277727CB01AA
:1022400097F90895A1E21A2EAA1BBB1BFD010DC030
:10225000AA1FBB1FEE1FFF1FA217B307E407F50756
:1022600020F0A21BB30BE40BF50B661F771F881F32
:10227000991F1A9469F760957095809590959B01C8
:10228000AC01BD01CF0108955058BB27AA270ED03D
:102290009FCF90DF30F095DF20F031F49F3F11F4B5
:1022A0001EF485CF0EF4E095E7FB7BCFE92FA1DF8D
:1022B00080F3BA17620773078407950718F071F463
:1022C0009EF5B9CF0EF4E0950B2EBA2FA02D0B0181
:1022D000B90190010C01CA01A0011124FF27591B6B
:1022E00099F0593F50F4503E68F11A16F040A22F71
:1022F000232F342F4427585FF3CF469537952795E2
:10230000A795F0405395C9F77EF41F16BA0B620BE0
:10231000730B840BBAF09150A1F0FF0FBB1F661F27
:10232000771F881FC2F70EC0BA0F621F731F841F6A
:1023300048F4879577956795B795F7959E3F08F090
:10234000B3CF9395880F08F09927EE0F979587954F
:10235000089557DF88F09F5790F0B92F9927B7510C
:10236000A0F0D1F0660F771F881F991F1AF0BA9559
:10237000C9F712C0B13081F05EDFB1E008955BCFE4
:10238000672F782F8827B85F39F0B93FCCF386954F
:1023900077956795B395D9F73EF4909580957095AC
:1023A00061957F4F8F4F9F4F089574DE08F48FEF34
:1023B000089570DE880B990B0895EE0FFF1F881F9C
:1023C0008BBF0790F691E02D199481E090E0F8948E
:0623D00000C0F894FFCFED
:1023D600690269026902690269026902690269029F
:1023E60001010000000000A5018D094701EB0178FD
:1023F6000156016A01000000001203E3024103BD19
:1024060002DB02CC02BE02000000007E028D094102
:10241600034003F9076A021004F103564D4450566F
:102426005F317C315F564D4450560D0A00564D447F
:1024360050455F003A323A007C005F564D445045A5
:10244600004865697A766F7267616E6720696E61AA
:102456006B746976005A69656C74656D7065726136
:10246600747572203A003E0043003C004865697A64
:10247600766F7267616E6720616B746976202100E2
:10248600536F6C6C3A004973743A006E616E006962
:102496006E66006F766600202020202020202020F7
:0C24A600202020202020202020202000CA
:00000001FF
